:020000022000DC
:10600000000001205D630200B9630200BB6302006F
:10601000BD630200BF630200C16302000000000014
:10602000000000000000000000000000C363020048
:10603000C563020000000000C7630200C9630200DC
:1060400065B00200CB6302008DBD020025E00200B6
:106050004DED0200CB630200ADBA0200CB6302003B
:10606000CB630200CB630200CB630200CB63020070
:10607000CB630200CB630200CB630200CB63020060
:10608000CB630200BD880200CB630200CB63020039
:10609000FD880200CB630200ED480300CB630200E1
:1060A000CB630200CB630200CB630200CB63020030
:1060B000CB630200CB630200000000000000000080
:1060C000CB630200CB630200CB630200CB63020010
:1060D000CB630200CB630200CB6302000000000030
:1060E00000000000000000000000000000000000B0
:1060F00000000000000000000000000000000000A0
:10610000000000000000000000000000000000008F
:10611000000000000000000000000000000000007F
:10612000000000000000000000000000000000006F
:10613000000000000000000000000000000000005F
:10614000000000000000000000000000000000004F
:10615000000000000000000000000000000000003F
:10616000000000000000000000000000000000002F
:10617000000000000000000000000000000000001F
:10618000000000000000000000000000000000000F
:1061900000000000000000000000000000000000FF
:1061A00000000000000000000000000000000000EF
:1061B00000000000000000000000000000000000DF
:1061C00000000000000000000000000000000000CF
:1061D00000000000000000000000000000000000BF
:1061E00000000000000000000000000000000000AF
:1061F000000000000000000000000000000000009F
:10620000354936480A1A02D0072291438D4634494F
:1062100034480A1A06D00722914381F309880222E2
:1062200082F3148830483149314A00F044F831484B
:106230003149324A00F03FF831483249324A00F0E1
:106240003AF832483249334A00F035F83248334997
:10625000334A00F030F833483349344A00F02BF821
:1062600033483449344A00F026F83448344900228F
:1062700000F02CF833483449002200F027F8334866
:106280003349091A082902DB002202604160314AC1
:1062900090471F481F49884205D00268043003B464
:1062A000904703BCF7E700208646EC46002000211B
:1062B000294A9047FEE7884207D0521A05D0037852
:1062C00001300B700131013AF9D17047884202D098
:1062D00002700130FAE770470000012000E0002062
:1062E00000000120000001209C7A030010400020E3
:1062F000C0400020D0630200D06302008A50030037
:106300009C7A0300104000201040002088510300B8
:10631000885103008851030088510300885103000D
:106320008851030088510300885103009A7A0300C2
:106330004C7B0300C0400020C0400020C040002033
:106340005154002054540020545400205454002030
:1063500054740020856302002503030000F036B862
:106360000F484FF00701884385460E4880470E4886
:10637000016841F470010160BFF34F8FBFF36F8F6D
:10638000FFF73EBF09480A490A4A884207D0521A15
:1063900005D0037801300B700131013AF9D1704713
:1063A0000000012039A4020088ED00E088510300BC
:1063B0001040002010400020FEE7FEE7FEE7FEE769
:1063C000FEE7FEE7FEE7FEE7FEE7FEE7FFF7C8BFF2
:1063D00000B585B00190019B002B0AD0074B43F01C
:1063E00001030393019B9B010293039B029898472F
:1063F00000E000BF05B05DF804FB00BFA051030042
:1064000000B583B00190019B002B0AD04FF47A7045
:10641000FFF7DEFF019B013B0193019B002BF5D1B0
:1064200000E000BF03B05DF804FB08B50AF0ECFF24
:1064300000BF08BD00B589B0039002910192019B95
:10644000002B33D00023079303230693029A079B64
:106450001344019A194600200AF086FF0590079A16
:10646000059B13440793019A059BD31A0193059B3F
:10647000002B13D10F4B1B7883F00103DBB2002BF1
:1064800013D10120FFF7BCFF069B013B0693069B3F
:10649000002B03D1074B00221A7007E0054B0122A5
:1064A0001A70019B002BD1D100E000BF00BF09B0E2
:1064B0005DF804FBC040002000B585B00390029158
:1064C000054B00934023054A0299039800F012F807
:1064D00000BF05B05DF804FB35640200C440002035
:1064E00082B0019000BF02B0704782B0019000BF3F
:1064F00002B0704700B5A1B00590049103920293D9
:10650000049803F061FE039B1593029B16930023EE
:10651000179300238DF8603000231993229B1A9360
:1065200000231F930FA91F9B0822049803F026FF46
:1065300008231F93119B1293BDF84030ADF84C30E7
:10654000BDF84230ADF84E3000238DF851309DF843
:106550003C3003F00303DBB2012B26D10F9BC3F3C6
:1065600095231C939DF83C30C3F3C203DBB28DF836
:106570005030BDF83C30C3F38313DBB21B931B9B3D
:106580009A0009A91F9B049803F0F8FE1B9B9B002F
:106590001F9A13441F9312AA09A915AB009313461F
:1065A0001B9A1C9800F0D6FE2FE09DF83C3003F0BB
:1065B0000303DBB2022B28D1BDF83E30C3F38913AD
:1065C0009BB21E939DF83C30C3F3C203DBB28DF83F
:1065D00050301E9B082B28BF08231D9307A91F9B23
:1065E0001D9A049803F0CAFE1F9A1D9B13441F9323
:1065F0001E9A1D9BD31A1E9315AB12AA07A81D99AC
:1066000000F04AFF1E9B002BE3D1049803F0EBFD42
:1066100000BF21B05DF804FB82B00190019BDB68F4
:1066200001225A7100BF02B07047000000B583B06C
:106630004FF0FF330193FFF7F8FE0421084800F004
:10664000A3FD0190019B002B03DA0649412009F0CC
:10665000ABF80348FFF7E0FF00BF03B05DF804FBB1
:1066600078510300B851030000B583B00190009148
:10667000019B1B681B6800990198984700BF03B0F5
:106680005DF804FB00B583B00190019B1B685B685B
:106690000198984700BF03B05DF804FB00B583B0D4
:1066A0000190019B1B689B680198984700BF03B04D
:1066B0005DF804FB82B001900B468DF80330019B1E
:1066C000DB689DF803201A7100BF02B0704782B0EA
:1066D0000190019BDB681B79184602B0704782B0BD
:1066E0000190019BDB6801225A7100BF02B0704724
:1066F00082B00190019BDB685B79184602B070475D
:1067000000B585B001900091154BFF229A60144BA3
:1067100000221A60124B00225A60114B0022C3F86B
:1067200018240F4B0022C3F814240D4B002283F8C9
:1067300020240C4803F0ACFC0390039B002B01D0F9
:10674000039B08E0084803F039FE084A084BD31AB7
:10675000DB0802930023184605B05DF804FB00BF78
:106760006C420020445103001852030044510300BE
:10677000D4500300024A034BD31ADB081846704773
:1067800044510300D450030000B587B001900B467C
:106790008DF803309DF80330002B1FD0FFF7EAFF80
:1067A00004900023059313E0059B9B000E4A1344BD
:1067B0000393039B1B881A46019B1B689A4204D1D2
:1067C000019B059A1A60002309E0059B013305939C
:1067D000059A049B9A42E7D3052300E0002318465C
:1067E00007B05DF804FB00BF1040002000B585B085
:1067F00001900B468DF803309DF8032001AB114644
:106800001846FFF7C1FF0346002B07D1019BDB00B1
:10681000054A13440393039B1B6800E000231846BA
:1068200005B05DF804FB00BFD450030084B00190B4
:106830000B468DF80330019BDB00174A134402938B
:106840009DF80330013B032B1CD801A252F823F022
:106850006168020069680200716802007B680200DA
:1068600002238DF80F3011E004238DF80F300DE076
:10687000029B1B798DF80F3008E0029B5B798DF845
:106880000F3003E000238DF80F3000BF9DF80F306C
:10689000184604B0704700BFD450030084B0019084
:1068A000009100238DF80F30019B1B7803F0040347
:1068B000DBB2002B24D0019B1B78C3F30103DBB2B6
:1068C000012B02D0022B0CD017E0009B1B68019A11
:1068D0001288C2F38312D2B213449A1C009B1A602E
:1068E0000BE0009B1B68019A5288C2F3891292B296
:1068F00013449A1C009B1A6000BF01238DF80F30CF
:106900009DF80F30184604B07047000000B58BB0FA
:106910000023ADF826303E4802F03BFC3D4802F033
:1069200038FC3D4B5B6804933B4B9B680693049A91
:10693000069B134002339B00374A134404330893E9
:1069400004AB19460898FFF7A9FF0346002B09D0AE
:10695000049A069B134002339B002F4A13440433CE
:106960000893EDE700BF0023079311E0049B5A1C36
:106970000492069A1340079A920001A90A442649F4
:1069800002339B000B445B681360079B0133079342
:10699000079B012BEAD99DF80430C3F30103DBB256
:1069A000012B10D0022B1CD1BDF80A30ADF82630D7
:1069B000BDF80630C3F389139BB203339A08049BD6
:1069C0001344049313E0BDF80A30ADF82630BDF847
:1069D0000430C3F38313DBB21A46049B13440493BD
:1069E00005E00E494FF4BF7008F0DEFE00BF094815
:1069F00002F0DBFB0590059B002B02D0049B064AAE
:106A00005360BDF8263018460BB05DF804FB00BF9C
:106A100084460020804600206C420020285203005B
:106A200000B585B00021074802F024FB0390039BCA
:106A30000293029B83F310030193019B184605B058
:106A40005DF804FB8846002000B589B003900291F0
:106A500001920093039B1B0C0793FFF7E1FF069045
:106A6000FFF788FE0246079B934204D3214940F278
:106A7000A31008F099FE069B1904009B5A1C0A9B60
:106A80001340079A0A431C4902339B000B445A6087
:106A9000009A0A9B134002339B00174A13440433A5
:106AA0000593039B03F00703D9B2059A137861F3AA
:106AB000C5031370019B03F00F03D9B2059A138825
:106AC00061F389131380029BC3F31501059A1368C0
:106AD00061F39F231360059A1378012161F3010389
:106AE0001370059A13786FF38203137000BF09B017
:106AF0005DF804FB285203006C42002000B58DB005
:106B00000390029113468DF80730039B02330A93DA
:106B100001238DF8273000238DF81B300DF11B0366
:106B2000184602F0A9F9404B1A68029B1A603E4BC6
:106B30009A683D4B59683C4B1B68CB1A1344013390
:106B40000B9314E00121394802F0F3FAFFF7DEFE5F
:106B500007900799354802F0ECFA334B9A68324BAC
:106B60005968314B1B68CB1A134401330B930A9AB3
:106B70000B9B9A42E6D89DF82730002B48D0002383
:106B800005939DF80730002B17D09DF81430012293
:106B900062F301038DF814309DF8143043F00403C0
:106BA0008DF81430039B03F00F03DAB2BDF81430F4
:106BB00062F38913ADF8143016E09DF81430022208
:106BC00062F301038DF814309DF8143043F0040390
:106BD0008DF81430039BC3F309039AB2BDF8163045
:106BE00062F38F13ADF816300F4B1A680E4B9B688B
:106BF000134002339B000C4A134404330893059A54
:106C0000089B1A60084B1A680A9B1344064A1360D3
:106C10009DF81B30184602F045F99DF827301846BC
:106C20000DB05DF804FB00BF6C42002088460020D8
:106C300000B58BB005900491039202931F4B9B68A3
:106C4000079306AB012219460298FFF757FF034648
:106C5000002B24D0069B023309930023089311E0F4
:106C6000089B9B00039A1A44099B591C0991079998
:106C70000B401268114902339B000B445A60089B79
:106C800001330893089A029B9A42E9D3069A079B1C
:106C900000931346029A04990598FFF7D5FE074B17
:106CA00093F82034002B05D000BF00F065F80346B0
:106CB000002BFAD100BF0BB05DF804FB6C42002042
:106CC00000B583B001900091002300220099019843
:106CD000FFF7AEFF00BF03B05DF804FB00B587B05F
:106CE000039002910192019B059305AA0123029949
:106CF0000398FFF79DFF00BF07B05DF804FB00B5E8
:106D000087B00390029101920093019B0493009B32
:106D1000059304AA022302990398FFF789FF00BF95
:106D200007B05DF804FB00B58BB0039002910192AF
:106D30000093019B0593009B06930C9B07930D9B6F
:106D400008930E9B099305AA052302990398FFF760
:106D50006FFF00BF0BB05DF804FB0000054B5A68E5
:106D6000044B1B689A420CBF01230023DBB2184678
:106D7000704700BF6C42002000B599B0FFF7EEFFEE
:106D80000346002B01D00023BEE19B4B0022C3F839
:106D90001824BFF34F8F00BF974B5B680493964B4B
:106DA0009B681093049A109B134002339B00924AF5
:106DB00013440433119300231793002316930023E5
:106DC0000F9304AB19461198FFF768FD0346002B9B
:106DD00019D0894BD3F81834002B14D1864B1A687C
:106DE000049B9A4205D8844B1B68834A5360002356
:106DF0008AE1049A109B134002339B007E4A13449D
:106E000004331193DDE70023159311E0049B5A1C12
:106E10000492109A1340159A920001A90A447649E7
:106E200002339B000B445B681360159B0133159381
:106E3000159B012BEAD99DF8043003F00303DBB264
:106E4000022B40F09C80BDF80630C3F389139BB23F
:106E50000D93BDF80630C3F389139BB2502B28BFA6
:106E600050239BB20C930C9BC3F309039AB2BDF859
:106E7000063062F38F13ADF806300C9B08330B938A
:106E80009DF80430C3F3C203DBB20F930B995B4848
:106E900003F009F91790179B002B00F0D180179889
:106EA00003F092F901A9169B0822179803F048FAFB
:106EB000169B08331693049BDA43109B134001334F
:106EC0009B000A930C9A0A9B9A4242D90A9B002B78
:106ED00008D0049A109B134002339B00464A134487
:106EE000043300E0464B08930A9B002B02D00A9B18
:106EF000DBB201E00C9BDBB28DF81F300A9B002B4C
:106F000001D03F4B00E0002306930A9B002B06D0E4
:106F10000C9BDAB20A9BDBB2D31ADBB200E000238F
:106F20008DF817309DF81F20169B0899179803F0CD
:106F300007FA9DF81F30169A13441693069B002BF0
:106F400016D09DF81720169B0699179803F0F8F9AC
:106F50000EE0049A109B134002339B00264A134410
:106F600004330993169B0C9A0999179803F0E8F9D2
:106F70000D9B03339A08049B1344049360E09DF82F
:106F8000043003F00303DBB2012B59D1BDF8043008
:106F9000C3F38313DBB2062B28BF0623DAB2BDF896
:106FA000043062F38913ADF80430BDF80430C3F344
:106FB0008313DBB202330E939DF80430C3F3C20394
:106FC000DBB20F930E9B9B0019460C4803F06BF845
:106FD0001790179B002B33D0179803F0F5F801A9F1
:106FE000169B0822179803F0ABF9169B08331693EB
:106FF000002315931BE000BF6C42002044510300A6
:1070000078420020049B5A1C0492109A13400233C9
:107010009B003F4A1344191D169B0422179803F046
:107020008FF9169B04331693159B01331593BDF806
:107030000430C3F38313DBB21A46159B9342E1D3AA
:10704000179B002B40D0324BD3F810341493304BA5
:10705000D3F81834002B1BD0179803F0C4F84DE078
:1070600000238DF84F301498FFF742FB0346002BA6
:1070700002D001238DF84F309DF84F30002B03D004
:1070800017991498FFF7F0FA149BDB681B681493A8
:10709000149B002BE4D1179803F0A5F800238DF87A
:1070A00003300DF10303184601F0E6FE184BD3F848
:1070B0001834002B02D1049B154A53609DF803300D
:1070C000184601F0EFFE19E0114BD3F8103412937B
:1070D00006E01298FFF7E2FA129BDB681B68129336
:1070E000129B002BF5D10B4A0B4BD31ADB081B0468
:1070F00043F0020309491846FFF7E2FDFFF72EFEB1
:10710000034683F00103DBB2184619B05DF804FBB7
:107110006C4200200C510300D45003008052030045
:1071200000B585B00023039323E0164BD3F8103449
:10713000029301238DF807300FE00298FFF7C7FA9A
:1071400003461A46039B934203D100238DF8073070
:1071500006E0029BDB681B680293029B002BECD1CC
:107160009DF80730002B01D0039B07E0039B013300
:107170000393039B092BD8DD4FF0FF33184605B06E
:107180005DF804FB6C42002000B585B001900B4611
:107190008DF80330FFF7C4FF0390039BB3F1FF3F6B
:1071A00001D1039B22E0039BDBB219460198FFF754
:1071B00081FA104BD3F81034002B08D10D4A019BF3
:1071C000C2F81034019BDB6800221A600DE0094B05
:1071D000D3F81034DA68019BDB6812681A60054B3B
:1071E000D3F81034DB68019A1A60039B184605B087
:1071F0005DF804FB6C42002000B583B00D4BD3F862
:10720000103401930B4B012283F8202409E00198EC
:10721000FFF765FA0198FFF735FA019BDB681B68F9
:107220000193019B002BF2D100BF00BF03B05DF8BA
:1072300004FB00BF6C42002082B00190009100BFAF
:1072400002B0704710B584B003900291039BDB88B5
:10725000002B0AD0039BDB881A461F4B0093134672
:107260001E4A1F49029802F0DDF8039B1B7A052B8A
:107270002ED0039B5B7A002B12D0039B9B881A466F
:10728000039B1B7A19461046FFF7D0FA03461A46AD
:10729000144B53F822301A461349029802F0C2F8F0
:1072A000039B1B6819460298FFF7C6FF039B1B7AD6
:1072B0001A460E4B53F82240039B9B880021184628
:1072C000FFF794FA034622460949029802F0AAF809
:1072D00000BF04B010BD00BFB4520300C45203008D
:1072E000FC5203002C4000201453030018400020DF
:1072F0001853030000B585B00390029113468DF832
:107300000730039B1B7A052B0FD0039B5B7A002B66
:1073100006D00D4B1B681A460C49029802F082F801
:107320000B49029802F07EF807E09DF80730002B29
:1073300003D00749029802F075F8029802F050F85D
:1073400000BF05B05DF804FB2C400020145303007F
:107350002453030030B58BB0079006910592049337
:107360000E9B1B7B8DF827300E9B00221A730E9903
:107370000498FFF767FF059B062B7FD801A252F800
:1073800023F000BFA1730200AB730200BB730200C5
:10739000CF730200ED730200157402004574020001
:1073A00007990E9802F03EF869E0069B1B681A46A2
:1073B00007990E9802F036F861E0069B1A68069B62
:1073C00004331B6807990E9802F02CF857E0069BCF
:1073D0001A68069B04331968069B08331B680093E0
:1073E0000B4607990E9802F01DF848E0069B1968B5
:1073F000069B04331868069B08331B68069A0C32F8
:1074000012680192009303460A4607990E9802F00B
:1074100009F834E0069B1868069B04331C68069B39
:1074200008331B68069A0C321268069910310968F5
:107430000291019200932346024607990E9801F0AB
:10744000F1FF1CE0069B1C68069B04331D68069B2D
:1074500008331B68069A0C321268069910310968C5
:1074600006981430006803900291019200932B4615
:10747000224607990E9801F0D5FF00E000BF0022D8
:107480000E990498FFF736FF0E9B9DF827201A737C
:1074900000BF0BB030BD00BF00B587B003900291B4
:1074A00001920093029B082B60D8009B1B7B8DF8F8
:1074B0001330009B00221A7300990198FFF7C2FE57
:1074C0000023059314E0059A029B9A4209D2039A7D
:1074D000059B13441B781A462649009801F0A2FF29
:1074E00003E02549009801F09DFF059B01330593BA
:1074F000059B072BE7D92149009801F093FF002352
:10750000059326E0059A029B9A421BD2039A059B9B
:1075100013441B788DF812309DF812307E2B0AD858
:107520009DF8123018460DF0FDFC0346002B02D0EA
:107530009DF8123000E02E231A461149009801F000
:1075400071FF03E00F49009801F06CFF059B0133C8
:107550000593059B072BD5D9012200990198FFF7C8
:10756000C9FE009B9DF813201A7300E000BF07B00E
:107570005DF804FB28530300305303003453030029
:10758000385303003C53030084B003468DF80730A2
:107590009DF807305B08DBB21A460D4B9B5C8DF8FB
:1075A0000F309DF8073003F00103002B04D09DF845
:1075B0000F301B09DBB204E09DF80F3003F00F031E
:1075C000DBB28DF80E309DF80E30184604B07047CF
:1075D000C846002084B003460A468DF8073013469B
:1075E0008DF806309DF8073003F00103002B01D021
:1075F0000F2300E0F0238DF80F309DF8073003F0E3
:107600000103002B04D09DF806301B01DBB201E022
:107610009DF806308DF80E309DF807305B08DBB220
:107620001A46114B9A5C9DF807305B08DBB219468D
:107630009DF80F301340DAB20B4B5A549DF80730C7
:107640005B08DBB21A46084B9A5C9DF807305B0872
:10765000DBB219469DF80E301343DAB2024B5A548E
:1076600000BF04B0704700BFC846002000B585B019
:1076700003468DF807300023039310E00F4B1A6880
:10768000039BDB0013440293029B1B789DF80720A9
:107690009A4201D1029B0DE0039B01330393084BF7
:1076A0001B781A46039B9342E8DB0649882008F0C2
:1076B0007BF80023184605B05DF804FB90460020D7
:1076C000944600204C53030000B585B003460A469B
:1076D0008DF8073013468DF806309DF807301846B0
:1076E000FFF7C4FF0390039B002B0BD0039B5B6849
:1076F000002B07D0039B5B689DF806109DF80720C0
:107700001046984700BF05B05DF804FB2DE9F04F27
:1077100087B003460A468DF80F3013468DF80E30B9
:107720009DF80F301846FFF72FFF0346042B00F299
:10773000C28001A252F823F04D770200C177020007
:10774000DD7702000D780200237802009DF80E30EC
:10775000002B00F0AD809DF80F3001211846FFF797
:1077600039FF00238DF817300DF11703184601F08B
:1077700083FB9DF80F104FF001024FF00003A1F1C1
:107780002004C1F1200003FA01F702FA04F42743B0
:1077900022FA00F0074302FA01F6494BD3E900232D
:1077A00046EA020100913B430193454BDDE900129B
:1077B000C3E900129DF81730184601F073FB77E01B
:1077C0009DF80E30002B01D0022200E000229DF82F
:1077D0000F3011461846FFF7FDFE6CE09DF80E30A5
:1077E000002B0CD09DF80F3003211846FFF7F2FE56
:1077F0009DF80F3001211846FFF766FF5BE09DF80A
:107800000F3001211846FFF7E5FE54E09DF80E30D9
:10781000002B4FD19DF80F3004211846FFF7DAFEF8
:1078200048E09DF80E30002B06D09DF80F30032164
:107830001846FFF7CFFE3EE09DF80F3000211846B6
:10784000FFF7C8FE9DF80F3000211846FFF73CFFF8
:1078500000238DF816300DF11603184601F00CFBCD
:107860009DF80F104FF001024FF00003A1F1200628
:10787000C1F1200003FA01F502FA06F6354322FAB7
:1078800000F0054302FA01F46FEA04086FEA050903
:107890000B4BD3E9002308EA020A09EA030B084B61
:1078A000C3E900AB9DF81630184601F0FBFA02E080
:1078B00000BF00E000BF00BF07B0BDE8F08F00BF11
:1078C000C046002000B583B00648074B1B685B0824
:1078D0000022194601F07CF8019000BF03B05DF86A
:1078E00004FB00BF9C4600209846002000B587B0EE
:1078F00001900023059328E01C4B1A68059BDB00D0
:1079000013440493049B1B78184604F0B5F803460F
:107910008DF80F30049B5B78012B0CBF01230023F3
:10792000DBB21A469DF80F309A420CBF01230023A8
:107930008DF80E30049B1B789DF80E2011461846DA
:10794000FFF7E4FE059B01330593094B1B781A46AC
:10795000059B9342D0DB074BD3E90023134301D0AF
:10796000FFF7B0FF00BF07B05DF804FB90460020B2
:1079700094460020C046002000B585B001900B461B
:107980008DF80330019BDBB21846FFF76FFE0390C2
:10799000039B1B78184604F06FF803468DF80B30F4
:1079A000039B5B78012B0CBF01230023DBB21A463B
:1079B0009DF80B309A420CBF012300238DF80A304A
:1079C0009DF80A30002B06D0054BD3E90023134362
:1079D00001D1FFF777FF00BF05B05DF804FB00BFE2
:1079E000C046002000B58BB003900B4601928DF885
:1079F0000B30019B092B01D8072367E003F02EFF12
:107A0000034683F00103DBB2002B09D003F0D4FE60
:107A10000990099B0893089B002B01D0089B55E017
:107A20002C4A039B13602C4A9DF80B3013702B4A91
:107A3000019B13601022002129480DF0A1FA294969
:107A40004FF000024FF00003C1E9002331E09DF840
:107A50000B30DB00039A1344079303238DF8143093
:107A600000238DF815309DF816306FF300038DF864
:107A700016309DF816306FF341038DF816309DF8DF
:107A800016306FF382038DF81630079B9B788DF8C4
:107A90001530079B1B78184605AB134A194603F0AF
:107AA000E9FE0990099B0693069B002B01D0069BDB
:107AB0000CE09DF80B305A1E8DF80B20002BC6D120
:107AC0000A4A00210A4800F053FF034618460BB04B
:107AD0005DF804FB90460020944600209846002064
:107AE000C8460020C046002079790200ED780200E7
:107AF000A053030000B583B0114B1B68002B04D1C9
:107B0000104940F2351007F04FFE002301930CE0BE
:107B10000B4B1A68019BDB0013441B7801211846AC
:107B200003F022FF019B01330193074B1B781A4698
:107B3000019B9342ECD30023184603B05DF804FB8D
:107B4000904600204C5303009446002086B00390DA
:107B50000291019201238DF817309DF81730214AC8
:107B6000039B13601F4A029B53601E4A019B936054
:107B7000039B44F20102934213D0039B44F202029E
:107B8000934221D1019B174AD360164BDB681B88B7
:107B90001A46144B9A61134BDB685B68114AD36138
:107BA00012E0019B0F4A13610E4B1B699B680D4A43
:107BB00053610C4B1B691B680A4A9361094B1B6993
:107BC0005B68084AD36100BF72B600BF00BF9DF872
:107BD0001730DBB2002BFAD162B600BF00BF06B08F
:107BE000704700BFD846002000B583B002900091D6
:107BF000019244F2010071466A4600F003F803B0B6
:107C000000BD00BF30B58BB007900691059272B6EB
:107C100000BFFFF7F1FA00BFFFF7AEF80346002BF5
:107C2000FAD1079B44F2020293422FD0079B44F201
:107C30000202934269D8079B44F20102934237D073
:107C4000079B44F2010293425FD8079B012B05D0AA
:107C5000079B41F2010293420CD056E0394A3A4B5D
:107C6000D31ADB081B0443F0010338491846FFF719
:107C700027F857E0334A344BD31ADB081B0443F090
:107C8000010333491846FFF71BF84BE0059B0993A6
:107C90002C4A2D4BD31ADB081B0443F00100099B2F
:107CA0005B681A46099B1B882A49FFF728F839E0C8
:107CB000059B0893234A244BD31ADB081B0443F08B
:107CC0000104089B9D68089B9B68184602F098F980
:107CD00003461846089B5B681946089B1B68069A72
:107CE00002920193009103462A461B492046FFF762
:107CF0001AF8144A144BD31ADB081B0443F001038F
:107D000016491846FEF7DCFF0CE00E4A0E4BD31A5C
:107D1000DB081B0443F00103069A11491846FEF7DD
:107D2000DDFF00BF0F4B1B6803F00103002B00D0E9
:107D300000BE059A06990798FFF708FF00BF0BB031
:107D400030BD00BF0C510300D4500300A453030006
:107D5000C4530300E8530300045403002C540300ED
:107D600040540300F0ED00E084B00190019B9B685B
:107D70000393019BDA68039BD31A184604B070473B
:107D800082B001900B468DF80330019B1A68019B6D
:107D9000DB68019989880B4013449DF803201A7011
:107DA000019BDB685A1C019BDA6000BF02B0704780
:107DB00084B003900B460192ADF80A30039B1A6819
:107DC000039B9968BDF80A300B44039989880B40DE
:107DD00013441A78019B1A7000BF04B0704700B5B5
:107DE00083B001900091009A00210198FFF7E0FF15
:107DF000019B9B685A1C019B9A6000BF03B05DF811
:107E000004FB84B0039002911346ADF80630029B48
:107E1000002B01D10E231DE0BDF80630002B07D04A
:107E2000BDF806305A1EBDF806301340002B01D0B5
:107E300009230FE0039B029A1A60BDF80630013B4C
:107E40009AB2039B9A80039B00229A60039B0022B4
:107E5000DA600023184604B0704700B583B0019083
:107E60000B468DF803300198FFF77EFF0246019B19
:107E70009B889A4207D89DF8033019460198FFF76E
:107E80007FFF002300E00423184603B05DF804FBE5
:107E900000B583B0019000910198FFF765FF03469C
:107EA000002B05D000990198FFF799FF002300E00F
:107EB0000523184603B05DF804FB000082B00346BA
:107EC0008DF807309DF8073003F01F0205499DF932
:107ED00007305B09012000FA02F241F8232000BFBD
:107EE00002B0704700E100E082B003468DF8073031
:107EF0009DF8073003F01F0206499DF907305B0922
:107F0000012000FA02F2203341F8232000BF02B022
:107F1000704700BF00E100E082B003468DF80730F3
:107F20009DF8073003F01F0206499DF907305B09F1
:107F3000012000FA02F2403341F8232000BF02B0D2
:107F4000704700BF00E100E082B003468DF80730C3
:107F50009DF8073003F01F0206499DF907305B09C1
:107F6000012000FA02F2603341F8232000BF02B082
:107F7000704700BF00E100E082B0034600918DF839
:107F800007309DF90730002B0CDA009BDAB20C4960
:107F90009DF8073003F00F03043B5201D2B20B44AB
:107FA0001A7609E0009BDAB206499DF907305201C2
:107FB000D2B20B4483F8002300BF02B0704700BF69
:107FC00000ED00E000E100E000B585B00190019B0C
:107FD000002B0AD0074B43F001030393019B9B0145
:107FE0000293039B0298984700E000BF05B05DF83C
:107FF00004FB00BF6054030000B583B00190064A43
:10800000019BC2F8083507211120FFF7B5FF00BF1B
:1080100003B05DF804FB00BF0010014008B50D4B34
:108020004FF48032C3F844230A4B4FF48032C3F834
:1080300004231120FFF788FF1120FFF73FFF054BB6
:1080400001221A602F20FFF7BFFF034B01221A7095
:1080500000BF08BD001001401648002008B51120DF
:10806000FFF742FF0E4B4FF48032C3F848230C4B0E
:108070004FF48032C3F80823094B01225A602F20A5
:10808000FFF7A2FF064B01229A60064B00221A60FE
:108090002F20FFF799FF044B00221A7000BF08BD84
:1080A000001001400848002016480020024BD3F879
:1080B00004351846704700BF0010014082B001909F
:1080C0000091019A009BD31A23F07F43184602B017
:1080D0007047000082B00190034A019BC2F840350E
:1080E00000BF02B0704700BF0010014086B0019091
:1080F000284B1B68002B03D1264A019B136045E0E7
:10810000019B1A68234B1B681B689A4210D8214BAD
:108110001B681968019B1A681E4B1B688A1A1A6033
:108120001C4B1A68019BDA611A4A019B13602DE00F
:10813000019B1B680393174B1B680593154B1B682A
:10814000049309E0049B1B68039AD31A0393049BCE
:108150000593049BDB690493049B002B04D0049BD0
:108160001B68039A9A42EDD8049B002B05D0049B10
:108170001A68039BD21A049B1A60019B039A1A6027
:10818000019B049ADA61059B019ADA6100BF06B08F
:10819000704700BF0448002000B587B001902A4B0B
:1081A0001B680393284B1B680593059B049308E009
:1081B000049A019B9A4208D0049B0593049BDB69B7
:1081C0000493049B002BF3D100E000BF049B002B21
:1081D00001D1002333E0059A049B9A4214D11A4B33
:1081E0001B68DB69184A1360174B1B68002B0BD107
:1081F000164B01229A60164B00221A60154B012281
:108200001A702F20FFF7E0FE049B1B680293049B6B
:10821000DA69059BDA61059BDB690493049B002BFB
:1082200005D0049B1A68029B1A44049B1A60064BF3
:108230001B68039A9A4214BF01230023DBB218463D
:1082400007B05DF804FB00BF0448002000100140A7
:10825000084800201748002008B51120FFF75CFEF1
:1082600000BF08BD08B51420FFF756FE00BF08BDCB
:1082700000B583B00190019B5B69019A9269104639
:10828000984700BF03B05DF804FB000000B585B05F
:108290002B4B1B68002B4ED000230193FFF706FFEA
:1082A0000246284B1B6819461046FFF707FF02904D
:1082B000234B1B6803931DE0039B1B68029A9A42A1
:1082C0001CD3039B1B68029AD31A0293039B1B685F
:1082D000019A13440193039B0093039BDB6903936F
:1082E000009B1B7C002B05D0009B00221A74009879
:1082F000FFF7BEFF039B002BDED100E000BF124B57
:108300001A78124B1B789A420CD1104B1B78013310
:10831000DAB20E4B1A700D4B1B78022B02D10B4BAD
:1083200000221A70094B1B781946094A019B42F832
:108330002130FFF797FF00BF05B05DF804FB00BFD9
:108340000448002008480020144800201548002058
:108350000C48002082B00190184B1A78184B1B78FB
:108360009A4223D0154B1B780133DAB2134B1A70A3
:10837000124B1B78022B02D1104B00221A700F4BAC
:108380001B781A460F4B53F82220019B1A60019B61
:108390001A680D4B1B6813440B4A13600A4B1B6889
:1083A00023F07F43084A1360012303E0019B00226E
:1083B0001A600023184602B0704700BF144800201E
:1083C000154800200C4800200848002088B0039081
:1083D000029101920023079338E0204B1B6806931B
:1083E000069B1B68039A9A4206D2069B1A68039B57
:1083F000D21A069B1A602EE0069B1B68039AD31ABA
:108400000393069B1B68079A13440793069B00225D
:108410001A60124B1B680593069BDB690F4A1360B9
:10842000069BDB68002B11D0029A079B134423F0B4
:108430007F42069B5A60069BDA68069B9A60019B06
:108440001A68069BDA61019B059A1A60034B1B6848
:10845000002BC2D100BF00BF08B070470448002005
:1084600000B589B0019000238DF81F30664B1B6862
:108470000593AAE0019B002B05D0019B0693069B68
:10848000DB69019361E0614B1B781A4613465B0080
:108490001344DB005D4A1344043304935B4B1B78A5
:1084A0000133DAB2594B1A70584B1A78574B9B78F4
:1084B0009A4202D1554B00221A70049B5B680693C6
:1084C000049B1B78032B1ED0032B7EDC012B1FD0BB
:1084D000022B7AD1049B5B681846FFF75DFE0346CA
:1084E000002B02D001238DF81F30069B00221A7446
:1084F0006BE0454B1B680393039B00221A74039B9C
:10850000DB69414A1360404B1B68002BF1D15CE0F2
:1085100000BF069B1B7C002B00D056E0049B9A6892
:10852000069B5A60049BDA68069B9A60049B1A6952
:10853000069BDA60049B5A69069B9A61344B1B7850
:10854000002B02D0069B00225A60069B5A68314BD2
:108550001B68D31A23F07F432F4A93420ED8069B01
:108560005B682C4A126811461846FFF7A7FD0246C1
:10857000069B9B681A44069B1A6017E0254B1A68F5
:10858000069B5B6819461046FFF798FD0290069B14
:108590009B68029A9A4206D2069B9A68029BD21A5C
:1085A000069B1A6002E0069B00221A60069B0022CE
:1085B0005A60069B00229A60069B01221A74069B51
:1085C0000022DA610698FFF791FD019B002B7FF4F2
:1085D00051AF0E4B1A780D4B5B789A427FF44AAF3D
:1085E0009DF81F30002B04D1074B1B68059A9A4257
:1085F00001D0012300E0002303F00103DBB21846A1
:1086000009B05DF804FB00BF04480020F8460020D4
:108610001748002008480020FEFF7F0010B588B0F2
:108620000190274B1B68002B44D0254B1B681B680F
:108630000793FFF73BFD0690224B1B6805930599B6
:108640000698FFF73BFD0346033304931E4B1B784C
:1086500083F00103DBB2002B01D0FFF7DFFC049AAB
:10866000079B934238BF1346059A13440593059B15
:1086700023F07F4305930598FFF72CFDFFF716FDC8
:10868000039006990398FFF719FD0346DC1C069931
:108690000598FFF713FD03469C420DD9FFF706FD31
:1086A00003461846FFF716FD2F20FFF78DFCFFF756
:1086B000D3FD01E0FFF7D2FC00BF08B010BD00BF42
:1086C00004480020084800201648002000B587B064
:1086D0000023019300238DF81730194B1B68049376
:1086E000184B1B6803936B461846FFF733FE03468F
:1086F0008DF80B309DF80B30002B08D0009B01AAA1
:1087000004991846FFF762FE01238DF81730019B8C
:108710001846FFF7A5FE0346002B02D001238DF873
:1087200017309DF81730002B02D00398FFF776FF23
:10873000054B00221A7000BF07B05DF804FB00BFB4
:1087400008480020044800201748002082B0034653
:108750008DF80730034A9DF80730537000BF02B010
:10876000704700BFF846002084B00190144B5B783E
:1087700001338DF80F30124B9B789DF80F209A42F1
:1087800002D100238DF80F300D4B1B789DF80F2080
:108790009A4201D100230FE0019B9DF80F201A702F
:1087A000074B5B781A4613465B001344DB00044A10
:1087B000134404330293029B184604B0704700BF71
:1087C000F846002000B589B0039002910192009311
:1087D0000023079300238DF816300DF11603184679
:1087E00000F04AFB0DF117031846FFF7BDFF069096
:1087F000069B002B02D10423079318E0069B01225D
:108800001A70069B039A5A60FFF750FC0246069BBB
:108810009A60069B029ADA60069B019A1A61069B8F
:10882000009A5A619DF817301846FFF78FFF9DF8A0
:108830001630184600F036FB079B002B01D1FFF7DE
:1088400011FD079B184609B05DF804FB00B587B021
:1088500001900B468DF803300023059300238DF81B
:108860000E300DF10E03184600F006FB0DF10F035C
:108870001846FFF779FF0490049B002B02D10423D4
:1088800005930BE0049B9DF803201A70049B019A4A
:108890005A609DF80F301846FFF758FF9DF80E30CC
:1088A000184600F0FFFA059B002B01D1FFF7DAFC18
:1088B000059B184607B05DF804FB000008B50E4B99
:1088C0000022C3F840210C4B0022C3F844210A4B7C
:1088D0000022C3F84821084B0022C3F84C21064B64
:1088E0000022C3F80021044B0022C3F80421FFF743
:1088F000CDFC00BF08BD00BF0010014008B5FFF768
:10890000E5FE00BF08BD000008B5FFF7A7FB134B4D
:1089100000221A70114B00225A70104B0B229A70D1
:108920000F4B00221A600F4B00221A700E4B0022D0
:108930001A701420FFF708FB07211420FFF71CFB17
:108940001420FFF7BBFA0020FFF756FBFFF7AEFB42
:108950000346064A13600023184608BDF846002067
:108960000448002014480020154800200848002032
:1089700086B003900B4601928DF80B30134B9B7819
:10898000002B01D108231EE0019B002B01D10723FE
:1089900019E0039B002B01D1072314E0039B1B6804
:1089A0001B7C002B01D008230DE0039B1B68059363
:1089B000059B00221A74059B9DF80B205A74059B99
:1089C000019A5A610023184606B07047F846002005
:1089D00000B587B0039002910192039B0593164B5B
:1089E0009B78002B01D1082322E0039B002B01D1AF
:1089F00008231DE0029B042B03D9029BB3F1807F67
:108A000001D3072314E0059B5B69002B01D10823E8
:108A10000EE0059B5B7C012B01D1029B00E0002353
:108A20000493019B049A02990598FFF7CBFE034635
:108A3000184607B05DF804FBF846002000B585B085
:108A40000190019B03930D4B9B78002B01D10823D0
:108A500010E0019B002B03D0039B5B69002B01D12D
:108A6000082307E0039B00221A7402210398FFF7F2
:108A7000EDFE0346184605B05DF804FBF8460020FD
:108A800000B587B00390029113468DF8073000239C
:108A90000593039B1B781A46114B9B5C002B09D056
:108AA000039B04339DF807200299184604F01AFB33
:108AB00005900FE0039B1B781A46094B9B5C002B2B
:108AC00008D1039B0C339DF807200299184603F048
:108AD000DBFC0590059B184607B05DF804FB00BF62
:108AE0008448002000B587B00390029113468DF8AA
:108AF000073000230593039B1B781A46114B9B5CA0
:108B0000002B09D0039B04339DF8072002991846D7
:108B100004F0BEFB05900FE0039B1B781A46094B3F
:108B20009B5C002B08D1039B0C339DF80720029916
:108B3000184603F089FD0590059B184607B05DF8BF
:108B400004FB00BF8448002084B00190019B9B6817
:108B50000393019BDA68039BD31A184604B070474D
:108B600000B587B001900091019B1B78022B45D086
:108B7000022B6ADC002B52D0012B66D1019B1B7AA1
:108B8000002B05D1012233493348FFF7ABFF5DE0ED
:108B9000019B5B681B7819463048FFF75EF905902A
:108BA000059B002B0AD001238DF80C30059B049304
:108BB0002B4B1B6803AA104698470DE02748FFF788
:108BC000C3FF0346002B07D000238DF80C30244B45
:108BD0001B6803AA104698472048FFF7B5FF0346D5
:108BE0001E4A9288934205D801221A491A48FFF773
:108BF00079FF2BE01B4B01221A7027E002238DF82E
:108C00000C30019BDB680493012212491248FFF7E4
:108C100069FF134B1B6803AA1046984716E01249D8
:108C20001248FFF735F90346002B05D101220E4902
:108C30000948FFF725FF09E003238DF80C30084BA6
:108C40001B6803AA1046984700E000BF00BF07B0AA
:108C50005DF804FB204800205040002024480020FC
:108C600018480020214800201C48002034480020DB
:108C700030B591B00390029101928DF803303C4AD7
:108C8000019B1360029B002B01D107236DE0029B27
:108C90001968029B5B689BB21A463648FFF7B1F829
:108CA0000F900F9B0E930E9B002B01D00E9B5CE050
:108CB000029B9968029BDB689BB21A462E48FFF71D
:108CC000A0F80F900F9B0D930D9B002B01D00D9BD7
:108CD0004BE02A4B04AC1D460FCD0FC495E80F00A6
:108CE00084E80F00039B5B690A93039B1B7C002BAA
:108CF00014BF01230023DBB28DF824309DF803302C
:108D00008DF82C30039B5B7C002B01D00E2300E000
:108D100000238DF82530039BDB680693039B9B683B
:108D20000793039B1B680593039B5B68049304AB49
:108D3000134A1946134802F005F90F900F9B0C9344
:108D40000C9B002B01D00C9B0FE00F4B00221A70E4
:108D5000039B1B68B3F1FF3F06D001220B49094872
:108D6000FFF7C0FE034600E00023184611B030BDF7
:108D7000184800202448002034480020685403008C
:108D8000618B020050400020214800202048002034
:108D900082B0EFF310830093009B019372B600BF83
:108DA000019B184602B0704762B600BF00BF704713
:108DB00000B585B00190FFF7EBFF0390164B9B6861
:108DC000002B1BD1144B01229A60144BD3F8802046
:108DD000134B1340104A1360104B114AC3F8802004
:108DE0000E4BD3F884300C4A53600C4B4FF0FF32DB
:108DF000C3F88420019B00221A7002E0019B01222B
:108E00001A70039B002B01D1FFF7CEFF00231846F9
:108E100005B05DF804FB00BF4448002000E100E01D
:108E2000FC06FFBD00B585B003468DF80730104B3A
:108E30009B68002B16D09DF80730002B12D1FFF74E
:108E4000A7FF03900B4A0A4B1B681360094A084BA3
:108E50005B685360064B00229A60039B002B01D194
:108E6000FFF7A2FF0023184605B05DF804FB00BF22
:108E70004448002000E100E000B583B0019000F01C
:108E80002BF80346012B03D00549432006F08CFC48
:108E90000198FFF78DFF00BF03B05DF804FB00BF32
:108EA000DC54030000B583B003468DF8073000F0B2
:108EB00013F80346012B03D00649512006F074FC39
:108EC0009DF807301846FFF7ADFF00BF03B05DF80F
:108ED00004FB00BFDC54030084B0EFF3058301936F
:108EE000019BC3F308030393039B002B0DD1EFF306
:108EF00014830093009B0293029B03F00103002B59
:108F00000CBF01230023DBB200E00123184604B0AC
:108F1000704786B001900091019B53E8021F1FFA31
:108F2000A1F2D888824202BFBFF32F8F00230DE049
:108F3000D88902449889824228BF121AC1EA0242A3
:108F400043E802200028E8D14FF001038DF80F30EC
:108F5000059002910492029A009B1A609DF80F30CE
:108F6000DBB2184606B0704784B00190019951E811
:108F7000023FC3EA234341E80232002AF7D10392B9
:108F8000029300BF04B0704700B585B00190009116
:108F9000009B19460198FFF7BCFF0346002B07D042
:108FA000019B1B68009A528813440393039B00E0C3
:108FB0000023184605B05DF804FB00B583B00190AE
:108FC0000091009B1A88009B5B889A4204D101980B
:108FD000FFF7CAFF012300E00023184603B05DF845
:108FE00004FB00B585B001900091009B5B099B00DC
:108FF000019A1A44009B03F01F03012101FA03F3B5
:109000001946104600F04DF8039000BF05B05DF81A
:1090100004FB00B585B001900091009B5B099B00AB
:10902000019A1A44009B03F01F03012101FA03F384
:10903000DB431946104600F064F8039000BF05B00A
:109040005DF804FB82B001900091009B5B099B00DE
:10905000019A13441A68009B03F01F0322FA03F3DA
:1090600003F00103002B14BF01230023DBB21846D9
:1090700002B0704710B487B001900091019B009A34
:1090800053E8004F104643E8000191F0000FF7D17C
:10909000059404900391059B184607B05DF8044BB6
:1090A000704710B487B001900091019B009A53E87B
:1090B000004F44EA020043E8000191F0000FF6D1AE
:1090C000059404900391049B184607B05DF8044B87
:1090D000704710B487B001900091019B009A53E84B
:1090E000004F04EA020043E8000191F0000FF6D1BE
:1090F000059404900391059B184607B05DF8044B56
:10910000704710B487B001900091019B009A53E81A
:10911000004F04EA020043E8000191F0000FF6D18D
:10912000059404900391049B184607B05DF8044B26
:10913000704710B487B001900091019B009A53E8EA
:10914000004F04EB020043E8000191F0000FF6D15C
:10915000059404900391049B184607B05DF8044BF6
:10916000704710B487B001900091019B009A53E8BA
:10917000004FA4EB020043E8000191F0000FF6D18C
:10918000059404900391049B184607B05DF8044BC6
:10919000704700B583B0019001210198FFF781FF6E
:1091A0000346184603B05DF804FB00B583B0019098
:1091B00000210198FFF78DFF0346184603B05DF8C4
:1091C00004FB000000B583B001900B468DF803301E
:1091D000019B002B03D10849E82006F0E5FA019B2A
:1091E000DA689DF803300199098A01FB03F31344FF
:1091F000184603B05DF804FB3455030000B583B096
:1092000001900091019B002B03D10849F52006F045
:10921000CBFA009B019AD2689B1A019A128AB3FB7F
:10922000F2F3DBB2184603B05DF804FB34550300DB
:1092300000B585B00190019B002B01D10E234CE0BD
:10924000019B1B68002B03D12649FF2006F0ACFAD6
:10925000019B5B68002B04D122494FF4807006F01B
:10926000A3FA019B9B68002B04D11E4940F2011018
:1092700006F09AFA019BDB68002B04D119494FF4E0
:10928000817006F091FA019B1B8A002B04D11549CD
:1092900040F2031006F088FA019B9A68019B5B6814
:1092A000D31A8DF80F30019B1B68019A52681A601F
:1092B00007E0019B1A681368591C11609DF80F2084
:1092C0001A709DF80F305A1E8DF80F20002BF0D128
:1092D000019B1B6800221A710023184605B05DF837
:1092E00004FB00BF3455030000B585B00190019B1D
:1092F000002B04D11F494FF4927006F055FA002359
:10930000039300238DF80A300DF10A031846FFF786
:10931000B3FD019B1B681A68019B5B689A421FD9C9
:10932000019B1B681A68013A1A601B681B78194672
:109330000198FFF747FF0390019B9A68019B1B6808
:109340001B68D31A8DF80B30019B1B681B799DF8A5
:109350000B209A4204D9019B1B689DF80B201A71BF
:109360009DF80A301846FFF79DFD039B184605B08F
:109370005DF804FB3455030010B584B001900091F2
:10938000019B002B04D1154940F2471006F00CFA5E
:10939000009B002B04D111494FF4A47006F004FA8D
:1093A000009B039300238DF80B300DF10B0318463F
:1093B000FFF762FD019B1B681C68621C1A60039921
:1093C0000198FFF71BFF034623709DF80B301846EA
:1093D000FFF768FD00BF04B010BD00BF34550300A7
:1093E00000B583B00190019B002B03D10C493120C3
:1093F00006F0DAF9019B9B68002B0CD0019B5B699E
:10940000019A1069019A1168019A92689847019B24
:1094100000229A6000E000BF03B05DF804FB00BFCB
:10942000885503000EB400B584B00190019B002B59
:1094300003D11849422006F0B7F9019B5B69002B64
:1094400003D11449432006F0AFF9019B1B68002BA0
:1094500003D11049442006F0A7F9019B5B68002B5B
:1094600003D10C49452006F09FF9059B002B0AD03B
:109470000023039306AB039303AB1A4605990198A7
:1094800000F0B0F900E000BF04B05DF804EB03B0F9
:10949000704700BF8855030000B583B001900B46AC
:1094A0008DF80330019B1A68019B9B68581C019939
:1094B000886013449DF803201A70019B9A68019BF1
:1094C0005B689A4202D30198FFF78AFF00BF03B09E
:1094D0005DF804FB00B587B0039002910192009300
:1094E00000230593009B03F00103002B24D00BE025
:1094F000029B01330293059B013305939DF81330C2
:1095000019460398FFF7C8FF029B1B788DF81330AC
:109510009DF81330002BEBD106E0019B013B01933A
:1095200020210398FFF7B8FF019A059B9A422ED994
:10953000019B002BF1D12AE0029B002B0BD002985B
:109540000BF073FD059006E0019B013B0193202188
:109550000398FFF7A1FF019A059B9A420FD9019B3F
:10956000002BF1D10BE0029B01330293059B0133E9
:1095700005939DF8133019460398FFF78DFF029B62
:109580001B788DF813309DF81330002BEBD100BF02
:1095900007B05DF804FB000000B589B003900291AC
:1095A00001920093029B07930123069307E0079A19
:1095B000019BB2FBF3F30793069B01330693079AD3
:1095C000019B9A42F3D2009A069B9A4201D9009BD2
:1095D00006930B9B03F00103002B22D10A9B002B67
:1095E0001FD00B9B03F00203002B06D0009B002B27
:1095F00003D130238DF8173002E020238DF8173087
:1096000008E00A9B013B0A939DF81730194603981E
:10961000FFF742FF0A9B002B03D0069A0A9B9A424F
:10962000EFD301230793009B012B03D9009B013B40
:10963000009309E0029A079BB2FBF3F30493049AA8
:10964000019B9A4200D205E0079B019A02FB03F3BB
:109650000793E8E7029A079BB2FBF3F30493049B9A
:10966000079A02FB03F3029AD31A0293154A049B4A
:1096700013441B7819460398FFF70EFF079A019BC6
:10968000B2FBF3F30793079B002BE3D10B9B03F093
:109690000103002B11D00A9B002B0ED006E00A9B81
:1096A000013B0A9320210398FFF7F6FE0A9B002B4B
:1096B00003D0069A0A9B9A42F1D300BF09B05DF825
:1096C00004FB00BF2056030000B589B0059004914B
:1096D00003920293049B002BB8BF5B4206930123C5
:1096E000079307E0039B069A92FBF3F30693079B0D
:1096F00001330793039B069A9A42F3DA029A079B77
:109700009A4201D9029B07930A9B002B0AD0049B23
:10971000002B04DB0B9B03F00403002B02D00A9BFD
:10972000013B0A930B9B03F00203002B02D0029B28
:10973000002B16D00B9B03F00103002B11D10A9BC9
:10974000002B0ED006E00A9B013B0A9320210598CE
:10975000FFF7A2FE0A9B002B03D0079A0A9B9A42AE
:10976000F1D3049B002B07DA049B5B4204932D2169
:109770000598FFF791FE08E00B9B03F00403002B14
:1097800003D02B210598FFF787FE0B9B03F0020304
:10979000002B19D00B9B03F00103002B14D1029B6B
:1097A000002B11D10A9B002B0ED006E00A9B013B37
:1097B0000A9330210598FFF76FFE0A9B002B03D018
:1097C000079A0A9B9A42F1D304990B9B01930A9B37
:1097D0000093029B039A0598FFF7DEFE00BF09B0D5
:1097E0005DF804FB00B58FB0059004910392059BD2
:1097F000002B04D1B64940F2522005F0D5FF059B5D
:109800005B69002B04D1B2494FF4157005F0CCFF11
:10981000059B1B68002B04D1AD4940F2552005F093
:10982000C3FF059B5B68002B04D1A94940F2562079
:1098300005F0BAFF049B002B00F09381049B1B787A
:109840008DF83730049B013304939DF83730002B9B
:1098500000F07E819DF83730252B40F06D8100238C
:109860000A9301230C93049B1B788DF837309DF8E5
:109870003730302B0DD0302B1BDC2B2B11D02D2B68
:1098800017D10A9B43F001030A93049B013304930D
:1098900012E00A9B43F002030A93049B01330493F2
:1098A0000AE00A9B43F004030A93049B01330493E8
:1098B00002E000230C9300BF0C9B002BD3D10023AC
:1098C00009939DF837302A2B0CD1039B1B68191D77
:1098D000039A11601B68099A13440993049B01338E
:1098E00004931AE0049B1B788DF837309DF83730CD
:1098F0002F2B12D99DF83730392B0ED8049B01330A
:109900000493099A13469B0013445B001A469DF882
:1099100037301344303B0993D3E700230B93049B68
:109920001B788DF837309DF837302E2B1DD1049BD6
:1099300001330493049B1B788DF837309DF8373042
:109940002F2B12D99DF83730392B0ED8049B0133B9
:1099500004930B9A13469B0013445B001A469DF830
:1099600037301344303B0B93E4E7049B1B788DF8AE
:1099700037309DF837306C2B03D09DF83730682B8B
:1099800007D1049B01330493049B1B788DF8373077
:10999000EFE79DF83730252B00F0C480252BC0F26F
:1099A000C680782B00F3C380582BC0F2C080583B90
:1099B000202B00F2BC8001A252F823F0AB9A0200E7
:1099C0002F9B02002F9B02002F9B02002F9B020067
:1099D0002F9B02002F9B02002F9B02002F9B020057
:1099E0002F9B02002F9B0200419A0200639A020003
:1099F0002F9B02002F9B02002F9B02002F9B020037
:109A0000639A02002F9B02002F9B02002F9B0200F3
:109A10002F9B02002F9B02002F9B0200F19A020055
:109A20002F9B02002F9B0200D59A02002F9B020061
:109A3000879A02002F9B02002F9B0200AB9A020024
:109A4000039B1B68191D039A11601B680C930C9BE8
:109A50008DF81F309DF81F3019460598FFF71CFD43
:109A600066E0039B1B68191D039A11601B680C9329
:109A70000A9B0193099B00930B9B0A220C99059862
:109A8000FFF722FE54E0039B1B68191D039A116027
:109A90001B680C930C990A9B0193099B00930B9BE9
:109AA0000A220598FFF778FD42E0039B1B68191D09
:109AB000039A11601B680C930C990A9B0193099BF4
:109AC00000930B9B10220598FFF766FD30E000BF66
:109AD000D0550300039B1B68191D039A11601B6876
:109AE00008930A9B099A08990598FFF7F3FC1FE071
:109AF000039B1B68191D039A11601B680C9330218E
:109B00000598FFF7C9FC78210598FFF7C5FC0C996B
:109B10000023019308230093082310220598FFF7E0
:109B20003BFD05E025210598FFF7B6FC00E000BFEE
:109B3000049B0133049305E09DF8373019460598DE
:109B4000FFF7AAFC049B1B78002B7FF477AE00E0A4
:109B500000BF059B1B7B002B04D00598FFF740FC42
:109B600000E000BF0FB05DF804FB00BF29DF7047C5
:109B700000BF184628DF704700BF184600B589B0FF
:109B800001900091019B1B689B68002B35D002ABB4
:109B900000221A605A609A60DA601A615A61009B6A
:109BA0000393019B9B680793019B1B79002B02D0B9
:109BB000012B0DD01AE001238DF80830019B1B69A1
:109BC0000493019BDB680593019B5B6906930DE0A1
:109BD00002238DF80830019BDB684FF4805202FBB2
:109BE00003F30493019B5B69069300BF019B1B6811
:109BF0009B6802AA1046984700E000BF09B05DF8D4
:109C000004FB00B587B00190019B5A69019B9B69D9
:109C1000D31AB3F5805F28BF4FF480530593042215
:109C2000059BB3FBF2F3012B38BF01230593019B86
:109C30001A69019B9B6913440493019BDB681A46D4
:109C4000019B9B6913440393059A03990498FFF7BA
:109C50008DFF0346184607B05DF804FB00B583B0DE
:109C60000190019BDA68019B1B6913441846FFF7BA
:109C700081FF0346184603B05DF804FB08B5034BAB
:109C800003491846FFF799F900BF08BD5048002066
:109C90007848002008B5084B08491846FFF774F9C2
:109CA0000346074A1360064B1B68002B14BF0123B1
:109CB0000023DBB2184608BD504800207848002039
:109CC0007448002000B583B02A4B1B7A002B0BD1BF
:109CD000FFF7E0FF034683F00103DBB2002B03D064
:109CE000244B00225A6042E0224B02221A72224B7D
:109CF0001B681B79002B02D0012B07D00DE01E4BF7
:109D00001B681846FFF77DFF019009E01A4B1B689E
:109D10001846FFF7A3FF019002E00323019300BF61
:109D2000019B002B03D0019B112B0CD00FE0114B9A
:109D30001B7C83F00103DBB2002B17D00021022033
:109D400000F06EF812E00B4B01221A720FE00A4B82
:109D50001B6803211846FFF711FF064B00221A72F9
:109D6000044B00225A60FFF789FF00E000BF03B0F8
:109D70005DF804FB604800207448002084B0019026
:109D80001B4B0022DA60019B1B79002B02D0012BB8
:109D900019D028E0019B5A69019B9B69D31AB3F53E
:109DA000805F28BF4FF480530393019B9A69039B04
:109DB0001A44019B9A61019B9A69019B5B699A42D3
:109DC0000ED1012310E0019B1B695A1C019B1A61F3
:109DD000019B1A69019B5B699A4203D1012303E04D
:109DE00000BF00E000BF0023184604B0704700BF6A
:109DF0006048002082B00190084BDB680133074ABD
:109E0000D360064BDB68082B04D9044B0022DA60D0
:109E1000012300E00023184602B07047604800208C
:109E200000B585B001900091019B022B02D0019BEF
:109E3000032B48D1274B1B7A022B05D0022B35DC94
:109E4000002B42D0012B31E000238DF80F30019B15
:109E5000022B03D0019B032B09D011E01E4B1B6882
:109E60001846FFF78BFF03468DF80F3008E01A4BBA
:109E70001B681846FFF7BEFF03468DF80F3000BF82
:109E80009DF80F30002B10D0124B00221A72124B8B
:109E90001A68019B022B01D1002300E00D23194613
:109EA0001046FFF76BFEFFF7E9FE00BF094B5B7C36
:109EB00083F00103DBB2002B02D0FFF703FF05E0C4
:109EC0000AF0D0FC02E000BF00E000BF05B05DF882
:109ED00004FB00BF604800207448002082B00346A5
:109EE00000918DF80730064B01225A74044B1B7AFF
:109EF000002B0CBF01230023DBB2184602B07047D1
:109F00006048002000B583B0034600918DF807300B
:109F10009DF80730012B03D09DF80730032B0DD19E
:109F2000084B00225A749DF80730012B0CBF012307
:109F30000023DAB2034B1A74FFF7C4FE00BF03B06C
:109F40005DF804FB6048002000B583B001900091EB
:109F5000019B002B03D11049502005F025FC009BEC
:109F6000002B03D10C49512005F01EFC019B009AE7
:109F70001A60019B1B681A68019B5A60019B5A6812
:109F8000019B1B685B689A4202D1019B00225A60C8
:109F900000BF03B05DF804FBE457030000B583B0D5
:109FA0000190019B002B03D11449632005F0FCFBB9
:109FB000019B1B68002B03D11049642005F0F4FBC2
:109FC000019B5B68002B14D0019B5B681A46019BC8
:109FD0001B689B6813441A46019B5A60019B5A6890
:109FE000019B1B685B689A4204D1019B00225A6066
:109FF00000E000BF03B05DF804FB00BFE4570300BE
:10A0000000B585B00190019800F00EF80390039B15
:10A01000002B01D0039B00E0024B184605B05DF811
:10A0200004FB00BF5058030086B00190164B059307
:10A03000164B04931FE0049A059BD31ADB10DA0F2A
:10A0400013445B10DB00059A13440393039B1B68C6
:10A050000293029A019B9A4202D9039B04930AE05D
:10A06000029A019B9A4203D2039B0833059302E0B4
:10A07000039B5B6804E0059A049B9A42DBD30023B0
:10A08000184606B0704700BF505C0300785D0300BF
:10A0900000B583B001900198FFF7CAF8034618464F
:10A0A00003B05DF804FB00B58BB001900091019BFB
:10A0B0001B8A043B0793009A079B1344DA1C079BF7
:10A0C000B2FBF3F38DF81B300198FFF70DF9059003
:10A0D000059B002B01D1002338E0059B00221A715B
:10A0E000059B01225A71079B9AB2059BDA80059B5A
:10A0F00009939DF81B30013B0493099B019A1A6058
:10A10000002308931DE00198FFF7EEF80390039BEE
:10A11000002B0ED0059B5B790133DAB2059B5A7197
:10A12000099B039A1A60039B019A1A60039B099387
:10A1300004E0059800F00EF8002307E0089B0133C7
:10A140000893089A049B9A42DDD3059B18460BB0EE
:10A150005DF804FB00B58BB00190019B0793079B52
:10A160005B798DF81B30019B08939DF81B30013BF8
:10A1700005930023099305E0089B1B680893099B3E
:10A1800001330993099A059B9A42F5D3089B1B68F2
:10A190000493019B0893002309930BE0089B1B6821
:10A1A000039308990498FFF7E7F8039B0893099B2A
:10A1B000013309939DF81B30099A9A42EED300BFF0
:10A1C00000BF0BB05DF804FB00B585B00190019BAA
:10A1D0000393039B043301211846FEF7AAFF00BF37
:10A1E00005B05DF804FB00B587B00190019B0593B5
:10A1F000059B043301211846FEF7B3FF0346039382
:10A2000003AB0493049B1B78002B02D10198FFF74A
:10A21000A1FF00BF07B05DF804FB000000B591B0DE
:10A220000390029101920093039B002B03D14349B9
:10A23000B62005F0B9FA039B0993039B0F93099B82
:10A24000DB881A46099B5B7903FB02F3043B089306
:10A25000009A089B9A4203D33849C42005F0A4FA17
:10A26000099BDB880793009B1A1D079BB2FBF3F346
:10A270000E93009B0433079AB3FBF2F2079901FB9C
:10A2800002F29B1A0D93019B1A68009B1344089AD3
:10A290009A4203D2089A009BD31A01E0019B1B68E3
:10A2A0000C93019B0C9A1A6005E00F9B1B680F939F
:10A2B0000E9B013B0E930E9B002BF6D100230B93BC
:10A2C000079A0D9BD31A0A930A9A0C9B934228BFB4
:10A2D00013460A932AE0029A0B9B134406930F9AA3
:10A2E0000D9B1344043305939DF84830002B05D093
:10A2F0000A9A059906980AF01AFE04E00A9A069945
:10A3000005980AF014FE00230D930F9B1B680F9312
:10A310000C9A0A9BD31A0C930B9A0A9B13440B9327
:10A32000079A0C9B934228BF13460A930C9B002B61
:10A33000D1D100BF00BF11B05DF804FB785D030010
:10A3400000B589B00590049103920293039B079393
:10A3500007AA00230093029B04990598FFF75EFF6C
:10A36000079B039A9A4203D00349F62005F01CFA92
:10A3700000BF09B05DF804FB785D030000B589B04B
:10A380000590049103920293039B079307AA01236C
:10A390000093029B04990598FFF740FF079B039ADF
:10A3A0009A4204D004494FF4807005F0FDF900BFD3
:10A3B00009B05DF804FB00BF785D030082B0019036
:10A3C000019B9B6800229A60019B9B6800221A6196
:10A3D000019B9B6800225A61019B9B680022DA6006
:10A3E000019B9B6800225A60019B9B6800221A60B7
:10A3F00000BF02B070470000BFF34F8F00BF074B94
:10A40000DB6803F4E0620549054B1343CB60BFF3FF
:10A410004F8F00BF00BF00BFFCE700BF00ED00E0B2
:10A420000400FA05024B034A1A6000BF704700BFE0
:10A43000644000200090D00308B500F069F903469D
:10A44000002B06D0A04B1B681B0AA04A03F01F0379
:10A45000136000F089F90346002B02D09C4B9D4A03
:10A460001A6000F09DF90346002B06D09A4B1B683A
:10A470005B0B9A4A03F00703136000F0BDF9034633
:10A48000002B05D0964BDB68954A23F08073D36090
:10A4900000F0CEF90346002B0ED04FF0804300228F
:10A4A000C3F80C214FF080430022C3F810214FF075
:10A4B00080430022C3F8382500F0E6F90346002B5C
:10A4C00002D0884B03221A6000F0FAF90346002BF1
:10A4D0000BD0854B05221A60844B01221A60844BF5
:10A4E00000221A60834B3F221A6000F005FA0346EF
:10A4F000002B76D04FF080537F4AD3F80434C2F853
:10A5000020354FF080537C4AD3F80834C2F8243504
:10A510004FF08053784AD3F80C34C2F828354FF006
:10A520008053754AD3F81034C2F82C354FF080535D
:10A53000714AD3F81434C2F830354FF080536E4A64
:10A54000D3F81834C2F834354FF080536A4AD3F840
:10A550001C34C2F840354FF08053674AD3F820349A
:10A56000C2F844354FF08053634AD3F82434C2F81C
:10A5700048354FF08053604AD3F82834C2F84C3540
:10A580004FF080535C4AD3F82C34C2F850354FF06A
:10A590008053594AD3F83034C2F854354FF08053C1
:10A5A000554AD3F83434C2F860354FF08053524ADC
:10A5B000D3F83834C2F864354FF080534E4AD3F89C
:10A5C0003C34C2F868354FF080534B4AD3F84034DE
:10A5D000C2F86C354FF08053474AD3F84434C2F880
:10A5E000703500F0A5F90346002B05D0434B1B68DE
:10A5F000434A03F04F03136000F0C6F90346002BF3
:10A600000DD04FF08043D3F8003403F00103002B4A
:10A6100005D04FF080436FF00102C3F8002400F032
:10A62000DFF90346002B05D0364B1B68354A43F44F
:10A6300080631360344BD3F88830334A43F470039B
:10A64000C2F88830BFF34F8F00BFBFF36F8F00BFDA
:10A650004FF01023D3F80032002B05DB4FF010230E
:10A66000D3F80432002B2BDA284B0122C3F804253F
:10A6700000BF264BD3F80034002BFAD04FF0102344
:10A680001522C3F8002200BF204BD3F80034002B62
:10A69000FAD04FF010231522C3F8042200BF1B4B41
:10A6A000D3F80034002BFAD0184B0022C3F804254D
:10A6B00000BF164BD3F80034002BFAD0FFF79CFEF6
:10A6C000FFF7B0FE00BF08BD240300104035014075
:10A6D00074C007400DF0ADBA440200103C050040C4
:10A6E000F0ED00E0A0050040105600408856004004
:10A6F000185600401456004000C000405802001098
:10A70000E40E00403C17004000ED00E000E0014096
:10A71000124B1B68DBB2062B1DD1114B1B6803F0DB
:10A720000F03002B17D10F4B1B6803F0F003302BE6
:10A7300001D1012310E00B4B1B6803F0F003402B09
:10A7400001D1012308E0074B1B6803F0F003502BF5
:10A7500001D1012300E0002318467047E00F00F00C
:10A76000E40F00F0E80F00F00A4B1B68DBB2062B89
:10A770000DD1094B1B6803F00F03002B07D1074BCA
:10A780001B6803F0F003302B01D1012300E000230C
:10A7900018467047E00F00F0E40F00F0E80F00F0FB
:10A7A000124B1B68DBB2062B1DD1114B1B6803F04B
:10A7B0000F03002B17D10F4B1B6803F0F003302B56
:10A7C00001D1012310E00B4B1B6803F0F003402B79
:10A7D00001D1012308E0074B1B6803F0F003502B65
:10A7E00001D1012300E0002318467047E00F00F07C
:10A7F000E40F00F0E80F00F00A4B1B68DBB2062BF9
:10A800000DD1094B1B6803F00F03002B07D1074B39
:10A810001B6803F0F003302B01D1012300E000237B
:10A8200018467047E00F00F0E40F00F0E80F00F06A
:10A83000124B1B68DBB2062B1DD1114B1B6803F0BA
:10A840000F03002B17D10F4B1B6803F0F003302BC5
:10A8500001D1012310E00B4B1B6803F0F003402BE8
:10A8600001D1012308E0074B1B6803F0F003502BD4
:10A8700001D1012300E0002318467047E00F00F0EB
:10A88000E40F00F0E80F00F00A4B1B68DBB2062B68
:10A890000DD1094B1B6803F00F03002B07D1074BA9
:10A8A0001B6803F0F003302B01D1012300E00023EB
:10A8B00018467047E00F00F0E40F00F0E80F00F0DA
:10A8C0000A4B1B68DBB2062B0DD1094B1B6803F04A
:10A8D0000F03002B07D1074B1B6803F0F003302B4D
:10A8E00001D1012300E0002318467047E00F00F07B
:10A8F000E40F00F0E80F00F00A4B1B68DBB2062BF8
:10A900000DD1094B1B6803F00F03002B07D1074B38
:10A910001B6803F0F003502B01D1012300E000235A
:10A9200018467047E00F00F0E40F00F0E80F00F069
:10A93000124B1B68DBB2062B1DD1114B1B6803F0B9
:10A940000F03002B17D10F4B1B6803F0F003302BC4
:10A9500001D1012310E00B4B1B6803F0F003402BE7
:10A9600001D1012308E0074B1B6803F0F003502BD3
:10A9700001D1012300E0002318467047E00F00F0EA
:10A98000E40F00F0E80F00F0124B1B68DBB2062B5F
:10A990001DD1114B1B6803F00F03002B17D10F4B78
:10A9A0001B6803F0F003302B01D1012310E00B4BA7
:10A9B0001B6803F0F003402B01D1012308E0074B93
:10A9C0001B6803F0F003502B01D1012300E00023AA
:10A9D00018467047E00F00F0E40F00F0E80F00F0B9
:10A9E000064B1B68062B05D1054B1B68062B01D1B6
:10A9F000012300E000231846704700BF300100101B
:10AA00003401001000B583B00190019B1B681F2B1F
:10AA100004D9054940F2CD1004F0C6FE4FF0A04322
:10AA2000184603B05DF804FBCC5D030000B585B0AB
:10AA30000190084611461A4603468DF803300B462E
:10AA40008DF8023013468DF8013001AB1846FFF740
:10AA5000D9FF03909DF803209DF802305B001A4354
:10AA60009DF801309B001A439DF818301B0242EA02
:10AA700003019DF81C301B04019A1943039B02F546
:10AA8000E07243F8221000BF05B05DF804FB00B58A
:10AA900085B003900023019300230093002301223B
:10AAA00001210398FFF7C2FF00BF05B05DF804FB6A
:10AAB00000B585B003900B468DF80B309DF80B3038
:10AAC0000022019200220092002200210398FFF749
:10AAD000ADFF00BF05B05DF804FB00B585B0019087
:10AAE00001AB1846FFF78EFF0390019B012202FA8B
:10AAF00003F31946039800F086F800BF05B05DF82F
:10AB000004FB00B585B0019001AB1846FFF77AFF52
:10AB10000390019B012202FA03F31946039800F007
:10AB20007CF800BF05B05DF804FB00B585B001906E
:10AB300001AB1846FFF766FF0390039BD3F804357B
:10AB40000293029BDA43019B012101FA03F31A40AD
:10AB5000039BC3F80825019B01229A40029B1A40DF
:10AB6000039BC3F80C2500BF05B05DF804FB00B5DE
:10AB700083B001900091009B002B03D10198FFF757
:10AB8000C0FF02E00198FFF7A8FF00BF03B05DF827
:10AB900004FB00B585B0019001AB1846FFF732FF0A
:10ABA0000390039800F01FF80246019B22FA03F37A
:10ABB00003F00103184605B05DF804FB00B585B04D
:10ABC000019001AB1846FFF71DFF0390039800F0BA
:10ABD00012F80246019B22FA03F303F00103184620
:10ABE00005B05DF804FB82B00190019BD3F81035ED
:10ABF000184602B0704782B00190019BD3F804352B
:10AC0000184602B0704782B001900091019B009AF3
:10AC1000C3F8082500BF02B0704782B001900091D0
:10AC2000019B009AC3F80C2500BF02B070470000DA
:10AC300000B585B00190019B032B03D911493A203F
:10AC400004F0B2FD104A019B13441B781846FFF72D
:10AC5000B5FF0346002B14BF012300238DF80F30EE
:10AC60009DF80F30002B14BF01230023DBB283F0CB
:10AC70000103DBB203F00103DBB2184605B05DF857
:10AC800004FB00BFFC5D0300405E030000B583B021
:10AC90000190019B032B03D90749412004F084FD57
:10ACA000064A019B13441B7800211846FFF75FFFFB
:10ACB00000BF03B05DF804FBFC5D0300405E0300D1
:10ACC00000B583B00190019B032B03D907494720AE
:10ACD00004F06AFD064A019B13441B7801211846C3
:10ACE000FFF745FF00BF03B05DF804FBFC5D030008
:10ACF000405E030000B583B00023019305E0019896
:10AD0000FFF7DEFF019B01330193019B032BF6D973
:10AD100000BF00BF03B05DF804FB00B583B00023A3
:10AD2000019305E00198FFF7B1FF019B0133019307
:10AD3000019B032BF6D900BF00BF03B05DF804FBF5
:10AD400000B583B00190019B032B03D907495F2015
:10AD500004F02AFD064A019B13441B781846FFF7AE
:10AD6000E4FE00BF03B05DF804FB00BFFC5D030020
:10AD7000405E030000B583B00023019309E0094A57
:10AD8000019B13441B781846FFF781FE019B01339A
:10AD90000193019B032BF2D9FFF7ACFF00BF03B077
:10ADA0005DF804FB405E030000B585B00190019B97
:10ADB000032B03D91149AC2004F0F6FC104A019B87
:10ADC00013441B781846FFF7E4FE0346002B14BF1C
:10ADD000012300238DF80F309DF80F30002B14BF96
:10ADE00001230023DBB283F00103DBB203F0010394
:10ADF000DBB2184605B05DF804FB00BFFC5D030044
:10AE0000445E030000B583B0002301930AE0094AC1
:10AE1000019B13441B7803211846FFF749FE019B51
:10AE200001330193019B032BF1D900BF00BF03B095
:10AE30005DF804FB445E030084B001904FF0FF33E3
:10AE40000293002303930DE00A4A039B13441B78EB
:10AE50001A46019B934202D1039B029305E0039B98
:10AE600001330393039B032BEED9029B184604B0D6
:10AE7000704700BF445E030000B583B00190019BA2
:10AE800003F00103002B01D0FFF774FF019B03F0D7
:10AE90000203002B01D0FFF7B5FF00BF03B05DF840
:10AEA00004FB000000B589B001900091009B07935E
:10AEB000019B1B788DF80C30019B5B680493019B10
:10AEC0009B68DBB28DF81430019BDB680693074A60
:10AED000079B52F823300649079A51F8221003AA1B
:10AEE0001046984700BF09B05DF804FB7C4800207D
:10AEF0008048002000B589B001900091009B079325
:10AF0000019B1B788DF80C30019B5B680493019BBF
:10AF10009B68DBB28DF81430019BDB680693074A0F
:10AF2000079B52F823300649079A51F8221003AACA
:10AF30001046984700BF09B05DF804FB7C4800202C
:10AF40008048002030B58FB0039002910192039B9E
:10AF50001B780C9326490C9B019A41F82320029BF5
:10AF60001A6924490C9B41F82320029B5B7F1946F8
:10AF7000214A0C9B13440A461A70029B04AC1D46DE
:10AF80000FCD0FC495E80F0084E80F000C9B0893C9
:10AF900000230D93039B1B781A46174B9B5C002BD9
:10AFA0000DD0039B181D019B002B01D0134A00E01C
:10AFB000002204AB194602F02FF80D9014E0039B19
:10AFC0001B781A460C4B9B5C002B0DD1039B03F1A5
:10AFD0000C00019B002B01D0094A00E0002204ABC9
:10AFE000194601F09DF90D900D9B18460FB030BD2C
:10AFF0007C4800208048002084480020A5AE020044
:10B00000F5AE020082B001904FF08042019BC2F881
:10B01000083300BF02B0704784B00346ADF8063075
:10B02000BDF8063003F1804300221A60BDF80630F7
:10B0300003F180431B680393039B00BF04B0704778
:10B0400082B00346ADF80630BDF8063003F1804308
:10B050001B68002B14BF01230023DBB2184602B08B
:10B060007047000008B54FF48070FFF7E9FF034612
:10B07000002B14D04FF48070FFF7CEFF0120FFF7B4
:10B08000C1FF114B5B7983F00103DBB2002B06D0CB
:10B090000D4B01225A710C4B1B68002098474FF44E
:10B0A0008270FFF7CDFF0346002B0AD04FF4827069
:10B0B000FFF7B2FF0220FFF7A5FF034B1B6801203B
:10B0C000984700BF08BD00BF8848002082B00346F3
:10B0D0008DF807309DF8073003F01F0205499DF9F0
:10B0E00007305B09012000FA02F241F8232000BF7B
:10B0F00002B0704700E100E082B0034600918DF895
:10B1000007309DF90730002B0CDA009BDAB20C49AE
:10B110009DF8073003F00F03043B5201D2B20B44F9
:10B120001A7609E0009BDAB206499DF90730520110
:10B13000D2B20B4483F8002300BF02B0704700BFB7
:10B1400000ED00E000E100E000B583B003460A46F0
:10B150008DF8073013468DF806309DF80630012B28
:10B1600003D99DF80630032B0BD99DF80630042B2C
:10B1700003D99DF80630072B03D908496B2004F04A
:10B1800013FB9DF806209DF9073011461846FFF77E
:10B19000B3FF00BF03B05DF804FB00BFD05E030047
:10B1A00000B583B003468DF807309DF90730184687
:10B1B000FFF78CFF00BF03B05DF804FB00B583B060
:10B1C0000346ADF80630BDF80630184600F026F804
:10B1D00003461B68012B0CBF01230023DBB218467A
:10B1E00003B05DF804FB00B585B00346ADF806304A
:10B1F000BDF80630184600F011F803461A46002341
:10B200001360BDF80630184600F008F803461B68C6
:10B210000393039B00BF05B05DF804FB82B00346B7
:10B22000ADF80630BDF8063003F1804303F5C043A6
:10B23000184602B07047000082B00190034A019B9B
:10B24000C2F8043300BF02B0704700BF0060004086
:10B2500082B00190034BD3F80423019B134018469E
:10B2600002B070470060004082B00190084A019B24
:10B2700003F5A27352F82330054943F00102019B04
:10B2800003F5A27341F8232000BF02B0704700BF4E
:10B290000060004084B00390029113468DF807309F
:10B2A000144A039B03F5A27352F82330114923F487
:10B2B000473323F44073039A02F5A27241F8223017
:10B2C0000C4A039B03F5A27352F82320029B1B0236
:10B2D00003F4F8519DF807301B0403F440330B438B
:10B2E00004491A43039B03F5A27341F8232000BFCE
:10B2F00004B070470060004082B00190054A019B95
:10B3000003F5A27352F823301B0A03F01F031846FB
:10B3100002B070470060004082B00190064A019B75
:10B3200003F5A27352F823301B0C03F00303DBB2C6
:10B33000184602B0704700BF0060004000B583B0FF
:10B340000190019B1B681F2B04D9054940F2CD10C9
:10B3500004F02AFA4FF0A043184603B05DF804FB4E
:10B36000005F030000B585B00190084611461A46FB
:10B3700003468DF803300B468DF8023013468DF8E6
:10B38000013001AB1846FFF7D9FF03909DF8032069
:10B390009DF802305B001A439DF801309B001A4370
:10B3A0009DF818301B0242EA03019DF81C301B0473
:10B3B000019A1943039B02F5E07243F8221000BF83
:10B3C00005B05DF804FB00B585B003900B468DF821
:10B3D0000B309DF80B3000220192002200920022D7
:10B3E00000210398FFF7BEFF00BF05B05DF804FB26
:10B3F00000B585B0019001AB1846FFF79FFF0390A1
:10B40000019A039B02F5E07253F8223023F0020305
:10B410000293019A039B02F5E072029943F822100D
:10B4200000BF05B05DF804FB00B585B001900B4688
:10B430008DF8033001AB1846FFF780FF0390019AA7
:10B44000039B02F5E07253F82230019A23F4403155
:10B45000039B02F5E07243F82210019A039B02F568
:10B46000E07253F822309DF8032012041146019A2D
:10B470001943039B02F5E07243F8221000BF05B0A8
:10B480005DF804FB00B585B0019001AB1846FFF7ED
:10B4900055FF0390039800F020F80246019B22FA22
:10B4A00003F303F00103184605B05DF804FB00B593
:10B4B00085B0019001AB1846FFF740FF0390019A59
:10B4C000039B02F5E07253F822301B0C03F00303D8
:10B4D000DBB2184605B05DF804FB82B00190019B19
:10B4E000D3F81035184602B07047000000B587B099
:10B4F0000390029101924FF0A0430493039A029BA0
:10B500001344012B04D9124940F2FD2004F04CF9F8
:10B51000039B059311E0059B9B0006AA134453F877
:10B52000083C1846FFF7D9FF0246019B1A60019BB1
:10B5300004330193059B01330593039A029B134443
:10B54000059A9A42E7D300BF00BF07B05DF804FB3D
:10B55000005F030084B001900091009B0393019B66
:10B56000DB080293019B03F0070301930122019B77
:10B5700002FA03F30399029A0A4412781340184618
:10B5800004B0704784B001900091009B0393019B2D
:10B59000DB080293019B03F007030193039A029BCC
:10B5A00013441B785AB20121019B01FA03F35BB2E9
:10B5B000134359B2039A029B1344CAB21A7000BFD4
:10B5C00004B0704782B001900C4A019B13443033A1
:10B5D00093F90030002B09DB084A019B13443033F8
:10B5E00093F90030072B01DC012300E0002303F076
:10B5F0000103DBB2184602B0704700BF904800203C
:10B6000082B00190064A019B1344303393F9003015
:10B61000072BCCBF01230023DBB2184602B07047D2
:10B620009048002082B00190064A019B13443033B9
:10B6300093F90030DB43DBB2DB09DBB2184602B022
:10B64000704700BF9048002084B00390029101929F
:10B650008DF80330029B59B20E4A039B13443033DA
:10B660000A461A700B49029B019A41F823209DF863
:10B67000033083F00103DBB2002B08D0029B083BB0
:10B68000039A51B2034A13440A4683F8502000BF7C
:10B6900004B070479048002082B00190044A019B9A
:10B6A00013443033FF221A7000BF02B0704700BF4E
:10B6B0009048002000B583B0019004490198FFF73D
:10B6C00061FF00BF03B05DF804FB00BFE448002049
:10B6D00082B00190044A019B1344303393F9003047
:10B6E000184602B0704700BF9048002082B0019019
:10B6F000034A019B52F82330184602B0704700BF3E
:10B700009048002000B589B00390029113468DF84F
:10B710000730FF238DF81F309DF80730002B01D034
:10B72000002300E0082305939DF80730002B01D08B
:10B73000082300E00C230493059B069314E00F4AB2
:10B74000069B52F82330B3F1FF3F0AD19DF8073032
:10B75000029A06990398FFF777FF069B8DF81F3032
:10B7600006E0069B01330693069A049B9A42E6D3B1
:10B770009DF91F30184609B05DF804FB9048002081
:10B7800082B003468DF807309DF80730094A4FF024
:10B79000FF3142F823109DF80730072B07D99DF899
:10B7A0000730083B034A1344FF2283F8502000BFB0
:10B7B00002B070479048002000B583B0254B93F845
:10B7C0005830002B03D008230193019B3EE0002357
:10B7D0008DF8033009E09DF803301846FFF75CFF51
:10B7E0009DF8033001338DF803309DF803301F2B93
:10B7F000F1D900238DF8033009E09DF80330184695
:10B80000FFF7BEFF9DF8033001338DF803309DF83C
:10B8100003300B2BF1D9042200210F4809F0B0FBB3
:10B8200007210620FFF790FC0620FFF7B9FC4FF434
:10B83000BE70FFF7D8FC4FF00040FFF7FDFC054B52
:10B84000012283F8582000230193019B184603B07E
:10B850005DF804FB90480020E4480020044B93F876
:10B860005830002B14BF01230023DBB21846704769
:10B870009048002000B587B0039002910192039B8D
:10B880001F2B04D9364940F2072003F08DFF002317
:10B8900005930398FFF7C6FE0346002B02D008234A
:10B8A000059357E0029B9B78C3F34003DBB21A4633
:10B8B00001990398FFF726FF03468DF813309DF991
:10B8C0001330B3F1FF3F43D0029B9B78C3F3800357
:10B8D000DBB283F00103DBB2002B13D0029B9B7819
:10B8E00003F00103DBB2002B03D00398FFF780FDC8
:10B8F00005E0029B5B7819460398FFF764FD039807
:10B90000FFF7D8FE029B9B7803F00203DBB2002B0B
:10B9100008D09DF91300029B1B781A460399FFF784
:10B92000B9FC17E09DF91330083B0E4A134493F914
:10B930005010029B1B789B015AB29DF91330083BB3
:10B940000A4351B2074A13440A4683F8502001E0E3
:10B9500004230593059B184607B05DF804FB00BF60
:10B96000385F03009048002000B589B001900B4675
:10B970008DF80330019B1F2B04D93D4940F237203D
:10B9800003F012FF0198FFF74DFE0346002B04D190
:10B9900037494FF40E7003F007FF0198FFF730FEB0
:10B9A0000346002B2FD00198FFF792FE0346083B79
:10B9B000304A134493F950308DF80F309DF80F3012
:10B9C0009B098DF80E309DF80E30032B0BD101989A
:10B9D000FFF758FD0346002B01D0032300E00223AC
:10B9E0008DF81F3008E09DF80E30012B01D10223A5
:10B9F00000E003238DF81F309DF81F301946019891
:10BA0000FFF712FD30E00198FFF7DCFD0346002B45
:10BA10002AD00198FFF75CFE03460693069B9BB273
:10BA200040339BB29B00ADF81630069B1846FFF7DB
:10BA30001BFCBDF816301846FFF7D5FB9DF8033008
:10BA4000002B11D00198FFF743FE03461846FFF77D
:10BA50004DFE0490049B002B06D00122069B02FAA7
:10BA600003F31846FFF7E8FB00BF09B05DF804FBDD
:10BA7000385F03009048002000B583B00190019B1F
:10BA80001F2B04D908494FF4227003F08DFE019852
:10BA9000FFF7F8FC0346002B14BF01230023DBB2A1
:10BAA000184603B05DF804FB385F030000B595B09D
:10BAB00000231093002303934FF48073ADF83A30C2
:10BAC0000123129300230F9321E0BDF83A3018466A
:10BAD000FFF774FB0346002B0ED01298FFF7B8FB5C
