:020000040002F8
:102000004876012019220200212202002322020028
:1020100025220200272202002922020000000000DF
:102020000000000000000000000000002B22020061
:102030002D220200000000002F22020031220200A7
:1020400089270200332202002D2B02000D280200F6
:102050004928020033220200AD240200332202008C
:102060003322020033220200332202003322020014
:102070003322020033220200332202003322020004
:1020800033220200D9270200332202003322020049
:10209000AD28020033220200B528020033220200DC
:1020A00033220200332202003322020033220200D4
:1020B0003322020033220200000000000000000072
:1020C000332202003322020033220200852802005C
:1020D00033220200332202003322020033220200A4
:1020E000512B02003322020033220200332202006D
:1020F0000000000033220200000000000000000089
:1021000000000000000000000000000000000000CF
:1021100000000000000000000000000000000000BF
:1021200000000000000000000000000000000000AF
:10213000000000000000000000000000000000009F
:10214000000000000000000000000000000000008F
:10215000000000000000000000000000000000007F
:10216000000000000000000000000000000000006F
:10217000000000000000000000000000000000005F
:10218000000000000000000000000000000000004F
:10219000000000000000000000000000000000003F
:1021A000000000000000000000000000000000002F
:1021B000000000000000000000000000000000001F
:1021C000000000000000000000000000000000000F
:1021D00000000000000000000000000000000000FF
:1021E00000000000000000000000000000000000EF
:1021F00000000000000000000000000000000000DF
:10220000DFF810D000F0CAF800F07EF80048004770
:102210004172020048760120064880470648004780
:10222000FEE7FEE7FEE7FEE7FEE7FEE7FEE7FEE786
:10223000FEE7FEE7FD280200012202002DE9F05F23
:102240000546002092469B46884606468146402425
:102250001BE0284641464746224600F076F85346A2
:102260005A46C01A914110D311461846224600F032
:102270005DF82D1A67EB01084F4622460120002128
:1022800000F054F817EB00094E41201EA4F10104A0
:10229000DFDC484631462A464346BDE8F09F40EA27
:1022A00001039B0703D009E008C9121F08C0042AD4
:1022B000FAD203E011F8013B00F8013B521EF9D2BB
:1022C0007047D2B201E000F8012B491EFBD27047E3
:1022D0000022F6E710B513460A4604461946FFF7F2
:1022E000F0FF204610BD421C10F8011B0029FBD155
:1022F000801A7047034611F8012B00F8012B002AC1
:10230000F9D118467047000070B5054C054D03E043
:10231000206820448047241DAC42F9D170BD0000E4
:1023200034A402003CA4020000F02AB8202A04DBF6
:10233000203A00FA02F1002070479140C2F12003D8
:1023400020FA03F3194390407047202A04DB203A17
:1023500021FA02F00021704721FA02F3D040C2F1C5
:102360002002914008431946704700000348704717
:102370000248001D011F8860001D7047782A012057
:1023800010B500F020F8016919B1002202618847F8
:1023900001E080688047AFF300800000064C074DE5
:1023A00006E0E06840F0010394E807009847103425
:1023B000AC42F6D3FFF728FF14A4020034A40200B5
:1023C00010B5AFF3008070B5FFF7D2FF0468054683
:1023D000A4B9202005F0BAF8040011D00949002062
:1023E0002C60C4E900010849A1602073206160618C
:1023F0000649A06109B100F00BF8E061204670BD0C
:10240000AFF3008000000000C123020000000000C4
:1024100010B5882005F09AF8002801D0002101703D
:1024200010BD802902D808B1017809B10020704799
:10243000012100F8081B704718B100F10802914211
:1024400001D00020704700210170704770B58D18D1
:1024500010F8014B14F0030201D110F8012B2311E5
:1024600006D110F8013B03E010F8016B01F8016B95
:10247000521EF9D1ABB110F8012B04F00C048A1AEA
:102480000C2C03D0A2EB84129B1C08E010F8014B2B
:10249000A2EB0422F8E712F8014B01F8014B5B1E96
:1024A000F9D5A942D4D3002070BD00002DE9F04F2A
:1024B0008DB0002700200B900C904FF480700A9094
:1024C0000126002412E00A9805F01EFE40B100BF6C
:1024D00083480068304018B10A9805F007FE37437A
:1024E00076000A98001D80B20A90641C082CEAD37A
:1024F0004FF4BE7005F008FE50B14FF4BE7005F009
:10250000F5FD47F000470BAA0221002005F0D2FD9F
:10251000F8B200B3012600241BE006EA0700B0B1C0
:1025200000BF704850F82400C0F30520804600BF6B
:102530006C4850F82400C0F301408146204604F066
:10254000EFF9054615B149464046A84700BF760059
:10255000641C082CE1D307F0004000286FD0002055
:10256000099007900890002505E04FF0FF3005A97D
:1025700041F825006D1C022DF7D300BF0020099003
:10258000002471E05848005D0490049820F0C008D1
:1025900055480057401C002865D005A9404605F065
:1025A000A7F800285FD004984FEA901A404604F03C
:1025B000BFF9814604F0B4F90390039810B9BAF159
:1025C000030F4FD1BAF1030F11D1414607A80246BC
:1025D000CB0801F0070112F803C04FF0010E0EFA0C
:1025E00001FE4CEA0E0C02F803C000BF00BFCDF89C
:1025F000088002A805F010FD0190019800F5E06048
:10260000029950F82100C0F3014900BF0BA94046D0
:1026100005F06EF88346BBF1000F02D0B9F1020F4E
:1026200005D0BBF1000F1CD1B9F1030F19D1BAF1DC
:10263000030F10D1B9F1020F02D1032001E04CE0E9
:10264000022002904046029905F0B8FC0998401C0F
:10265000C0B2099000BF039818B151464046039A92
:10266000904700BF00BF641C042C8BD3099878B33B
:102670004FF0010803AA0221002005F01BFD0025F0
:102680000BE003A850F825000BA951F8251088424B
:1026900002D04FF0000802E06D1C022DF1D300BF04
:1026A000B8F1000F02D00020099010E000250CE0E6
:1026B00003A850F825000BA941F8250007A850F8F9
:1026C000250005A941F825006D1C022DF0D300BF9F
:1026D000099800287FF452AF00BF0DB0BDE8F08F1D
:1026E0000463004010650040F430012000F01F0238
:1026F00001219140024A430942F82310704700002B
:1027000080E200E000F01F0201219140024A4309EB
:1027100042F823107047000080E100E000F01F0243
:10272000012191404209920002F1E022C2F8001119
:10273000704700F01F02012191404209920002F10E
:10274000E022C2F80011704700F01F020121914001
:10275000024A430942F823107047000000E200E0FB
:1027600010B5002807DA4A07140E054A00F00F03D7
:102770001B1FD45403E04A07130E024A135410BD22
:1027800018ED00E000E400E010B54FF4807005F0B3
:1027900071F860B14FF4807005F075F8012005F014
:1027A0007BF801200B494870002004F0C7F84FF473
:1027B000827005F05FF858B14FF4827005F063F84D
:1027C000022005F069F801200249887004F0B6F88B
:1027D00010BD00008030012010B5002009490860BC
:1027E00000210948C0F84411C0F84811C0F84C1144
:1027F00000200549C1F8000102493C39086006F093
:1028000025FB10BD401101400010014010B50B48E0
:10281000006818B10120094909688847084800681C
:1028200018B101200649096888470648006818B1B0
:10283000002004490968884710BD00005C29012078
:10284000602901206429012010B50B48006818B1E7
:1028500002200949096888470848006818B1022021
:102860000649096888470648006818B101200449EC
:102870000968884710BD00005C29012060290120FB
:102880006429012010B50748006818B100200549E7
:10289000096888470448006818B10020024909689F
:1028A000884710BD5C2901206029012010B506F081
:1028B000D7F910BD70B50B48006880B109480068B1
:1028C0008047044600BF25463DB100BF064A40F29E
:1028D000D111284602F092FE00BF00BF01E004F0D3
:1028E00031FB70BDE027012094A30200014802499A
:1028F000086070470090D003742A012010B504F0DE
:10290000CDF940B10020794908604FF08041C1F80D
:1029100010017749086004F0CFF9002855D07548B8
:102920000068754908607348001D0068091D08604B
:10293000704808300068091D08606E480C30006857
:10294000091D08606B4810300068091D086069485F
:1029500014300068091D0860664818300068664930
:102960002031086063481C300068091D0860614818
:1029700020300068091D08605E4824300068091D89
:1029800008605C4828300068091D086059482C30F0
:102990000068091D086057483030006856494031CA
:1029A0000860544834300068091D086051483830C8
:1029B0000068091D08604F483C300068091D086028
:1029C0004C4840300068091D086004F083F910B1DC
:1029D0004A484B49086004F029F910B1FB204949E5
:1029E000086004F031F938B1474801784748006879
:1029F00061F303004549086004F034F918B14FF45D
:102A000000704349086004F03BF940B14148006858
:102A100000F0010018B16FF001003E4908603E4827
:102A2000006840F470003C49086000BF00BF00BF70
:102A3000BFF34F8F00BF00BF00BF00BF00BF00BF8C
:102A4000BFF36F8F00BF00BF00BF3448006800F0C5
:102A5000004030B93148001D006800F000400028F7
:102A600040D001202E49086000BF2E480068002891
:102A7000FBD012202949086000BF2A4800680028BE
:102A8000FBD012212548001D016000BF25480068C9
:102A90000028FBD000202249086000BF21480068C0
:102AA0000028FBD000BF00BF00BF00BF00BFBFF3C6
:102AB0004F8F00BF00BF00BF17487C38006800F48C
:102AC000E06019490843001D13497C39086000BFC4
:102AD00000BF00BFBFF34F8F00BF00BF00BF00BFEC
:102AE00000BFFDE7FFF702FF10BD00000C01004032
:102AF000380500400404001020C500404881030050
:102B00008C56004018F5004058020010E40E0040BA
:102B1000409602400004004088ED00E000120010E2
:102B200004E5014000E401400000FA0510B5064844
:102B3000007F20B10449054806F0BDFB03E00249CF
:102B4000024806F017FB10BDFC30012000200040B9
:102B500010B50448006818B1012002490968884787
:102B600010BD00005829012070B5054695B1032D10
:102B700013D1022003F0FAFC044600BF26463EB102
:102B800000BF07A24FF4A271304602F037FD00BF2C
:102B900000BF03E000F006FD00E000BF00BF70BD15
:102BA0002E2E5C2E2E5C2E2E5C6D61696E2E6300C7
:102BB000F0B589B00546288821287DD00CDC112885
:102BC0002ED004DC012878D0102877D111E012280B
:102BD0007BD01328F9D148E0512871D004DC222899
:102BE00057D03B28F1D1A1E052286AD05628ECD129
:102BF000ADE0072003F0BAFC044600BF26463EB114
:102C000000BF7FA240F25B11304602F0F7FC00BF2C
:102C100000BFA8887E4908807EA002F0E5F9ECE0BC
:102C2000002003F0A3FC044600BF26463EB100BFCF
:102C300073A240F26311304602F0E0FC00BF00BF17
:102C40004FF6FF7072490880042075490870012012
:102C50007449087000207449087001207349487154
:102C6000087173A002F0C0F9C7E000231A4685215D
:102C7000674800887FDF044600BF26463EB100BF9C
:102C80005FA240F27311304602F0B8FC00BF00BFF3
:102C9000B3E0002007900890A888002207A990DFE1
:102CA000044600BF264676B100BF55A240F27D1112
:102CB000304602F0A3FC05E015E059E09CE004E09A
:102CC00067E01FE000BF00BF97E06E892F8957487B
:102CD000468001465A4803F0BBF93246394659A0AE
:102CE00002F082F989E0687A50490871A87A48713F
:102CF000534803F0ADF94D484279017959A002F0EB
:102D000073F97AE000231A46194641480088A9DF82
:102D1000044600BF26463EB100BF39A24FF4CA7137
:102D2000304602F06BFC00BF00BF66E0A8881321AC
:102D300076DF044600BF26463EB100BF30A240F217
:102D40009B11304602F05AFC00BF00BF55E0A88836
:102D5000132176DF044600BF26463EB100BF28A2FD
:102D60004FF4D171304602F049FC00BF00BF44E08F
:102D7000A888002166DF044600BF26463EB100BF9A
:102D80001FA240F2A711304602F038FC00BF00BF7E
:102D900033E01022A91D05A8FFF781FA9DF8140061
:102DA00048B39DF81C00042807D09DF81C00062895
:102DB00003D09DF81C0005281DD19DF814000228A1
:102DC00002D18DF8040002E001208DF804004FF4D8
:102DD000C170ADF80800A88801A9A8DF044600BFAB
:102DE00026463EB100BF06A24FF4E171304602F024
:102DF00005FC00BF00BF00E000BF00BF09B0F0BD90
:102E00002E2E5C2E2E5C2E2E5C6D61696E2E630064
:102E1000C0260120436F6E6E65637465640D0A0001
:102E2000C8260120C9260120CB260120CC2601205E
:102E3000446973636F6E6E65637465640D0A0000A8
:102E40008C2A0120436F6E20706172616D73207552
:102E50007064617465643A2043492025692C2025FB
:102E6000690D0A00506879207570646174653A20B4
:102E700025692C2025690D0A0000000010B50D20E1
:102E8000094908620F20C861152088611720486130
:102E9000192008612920C860084600F0DFFD0221E2
:102EA000014800F02BFD10BDCC2A012070B504466E
:102EB0000D462A4621460248006800F033FD70BDE9
:102EC000002A012070B505462946114804F02AFC65
:102ED000044600BF26463EB100BF0EA240F2DB21F1
:102EE000304602F08BFB00BF00BF2946084804F0C3
:102EF0000AFC044600BF26463EB100BF05A240F2D0
:102F0000DE21304602F07AFB00BF00BF70BD00003A
:102F1000B02A01202E2E5C2E2E5C2E2E5C6D616957
:102F20006E2E630010B504464FF47A7104FB01F075
:102F300000F00AF810BD10B504464FF47A7104FB96
:102F400001F000F04DF810BD00B9704700BF00BFA0
:102F500000BF00BF00BF00BF00BF00BF00BF1E49D1
:102F600009681E4A914200D130E000BF00BF00BF97
:102F700000BF00BF00BF00BF00BF00BF00BF00BF59
:102F800000BF00BF00BF00BF00BF00BF00BF00BF49
:102F900000BF00BF00BF00BF00BF00BF00BF00BF39
:102FA00000BF00BF00BF00BF00BF00BF00BF00BF29
:102FB00000BF00BF00BF00BF00BF00BF00BF00BF19
:102FC00000BF00BF00BF00BF00BF00BF401E00D059
:102FD000BDE700BFB9E70000742A01200024F40017
:102FE00000B9704700BF00BF00BF00BF00BF00BFF7
:102FF00000BF00BF00BF1E4909681E4A914200D1B0
:1030000030E000BF00BF00BF00BF00BF00BF00BF77
:1030100000BF00BF00BF00BF00BF00BF00BF00BFB8
:1030200000BF00BF00BF00BF00BF00BF00BF00BFA8
:1030300000BF00BF00BF00BF00BF00BF00BF00BF98
:1030400000BF00BF00BF00BF00BF00BF00BF00BF88
:1030500000BF00BF00BF00BF00BF00BF00BF00BF78
:1030600000BF00BF401E00D0BDE700BFB9E70000B1
:10307000742A01200024F40070B53EDF044600BF2E
:1030800025463DB100BF04A240F20731284602F0B8
:10309000B5FA00BF00BF70BD2E2E5C2E2E5C2E2E0A
:1030A0005C6D61696E2E630038B5002000900948A0
:1030B00000906946084803F02BF8044600BF2546F7
:1030C00035B100BF05A2E721284602F097FA00BFFC
:1030D00000BF38BD193502008C2A01202E2E5C2E2F
:1030E0002E5C2E2E5C6D61696E2E630070B586B00D
:1030F00001208DF8140000208DF815008DF81600C1
:1031000007208DF8170000BF00234FF498724E4936
:1031100005A805F03DFD054600BF2E463EB100BFA7
:103120004AA24FF4FB71304602F068FA00BF00BFBC
:1031300000BF0020049004A805F0FCFC044600BF7A
:1031400025463DB100BF41A240F2FB11284602F0E6
:1031500055FA00BF00BF00200190029003900120AB
:103160008DF8040000208DF805008DF8060001A9F7
:103170004020049A69DF044600BF25463DB100BFE8
:1031800032A240F20621284602F038FA00BF00BF02
:10319000002001900290039001208DF80400F72098
:1031A000ADF8060001A92320049A69DF044600BF98
:1031B00025463DB100BF25A240F20D21284602F070
:1031C0001DFA00BF00BF0020019002900390012073
:1031D0008DF804004FF4A071ADF808108DF80600CA
:1031E00001A92020049A69DF044600BF25463DB1AD
:1031F00000BF16A240F21521284602F0FFF900BFD9
:1032000000BF04A805F0ACFC044600BF25463DB154
:1032100000BF0EA240F21921284602F0EFF900BFCC
:1032200000BF0E4805F090FC044600BF25463DB1A6
:1032300000BF06A240F21D21284602F0DFF900BFC0
:1032400000BF06B070BD0000002B01202E2E5C2EAA
:103250002E5C2E2E5C6D61696E2E63009133020030
:103260003EB500BF9DF8000020F00F00401C00900C
:103270009DF8000020F0F0001030009000BF0C22FC
:1032800016A168467CDF044600BF254635B100BF65
:1032900016A29C21284602F0B1F900BF00BF002011
:1032A000019002900620ADF804000920ADF8060058
:1032B0000020ADF808004FF4C870ADF80A0001A86E
:1032C0007ADF044600BF254635B100BF07A2A6211C
:1032D000284602F093F900BF00BF3EBD4E6F7264F6
:1032E00069635F494D414745000000002E2E5C2E6A
:1032F0002E5C2E2E5C6D61696E2E630030B5A7B01A
:103300003C2118A8FEF7E4FF02208DF860000020A1
:103310008DF8620005208DF863003C2109A8FEF7B6
:10332000D7FF0120ADF8340013490E91202101A8E8
:10333000FEF7CEFF01208DF8070040200590B42055
:10334000069000200D4B01AA09A9009018A802F0D0
:103350005DFC044600BF25463DB100BF08A240F217
:10336000C921284602F04AF900BF00BF012002F03F
:1033700047FC27B030BD0000C2260120692B0200A7
:103380002E2E5C2E2E5C2E2E5C6D61696E2E6300DF
:1033900010B50446204602F001FE2146084804F01C
:1033A00015FA2146074802F007FF2046FFF700FC08
:1033B000204602F0E9FC204602F0F2FF10BD0000BA
:1033C000B02A01208C2A012030B587B01C21684624
:1033D000FEF77EFF002000904FF4203001904FF464
:1033E0007020029003208DF80C000020ADF80E0034
:1033F0008DF810000A4805900A480690684602F0C9
:1034000095FD044600BF25463DB100BF06A240F22F
:103410001F11284602F0F2F800BF00BF07B030BD10
:1034200005370200453702002E2E5C2E2E5C2E2E14
:103430005C6D61696E2E630070B504460CB1FB20B3
:1034400000E01B2005462A464FF6FF71014804F0B4
:1034500078F970BDB02A012070B505460C46608829
:1034600010490988884216D1208840F67721884281
:1034700011D1A088C01E0C490880084600880B495D
:1034800008800B4802F0E4FD237907480288018890
:1034900008A001F0A9FD2A88698811A001F0A4FD07
:1034A00070BD0000C0260120C6260120CC260120C8
:1034B0008C2A012044617461206C656E2069732040
:1034C00073657420746F2030782558282564292C62
:1034D000206F72206D617962652025690D0A0000F8
:1034E000415454204D54552065786368616E67657A
:1034F00020636F6D706C657465642E2063656E74F7
:1035000072616C20256920706572697068657261EE
:103510006C2025690D0A000070B505460C4616465C
:103520002078072826D2DFE800F025040910171EAE
:10353000050000BF2078124908701FE001201149E2
:10354000087020780E49087018E000200D490870B6
:1035500020780B49087011E0042009490870607850
:10356000094908700AE00520054908706078074994
:10357000087003E006A001F037FD00BF00BF70BD7A
:10358000C8260120CB260120C9260120CA260120F9
:10359000556E6B6E6F776E20636F6D6D616E64211B
:1035A000210D0A0070B5002002F0E0FF044600BFC4
:1035B00025463DB100BF13A24FF49571284602F095
:1035C0001DF800BF00BF02F027FF044600BF2546DC
:1035D0003DB100BF0BA24FF49771284602F00EF8E0
:1035E00000BF00BF32DF044600BF25463DB100BF2B
:1035F00004A24FF49971284602F000F800BF00BF02
:1036000070BD00002E2E5C2E2E5C2E2E5C6D61692E
:103610006E2E63002DE9F04106460D4617461C4606
:103620002246294602A001F0DFFCBDE8F08100003F
:103630002573202D2025730D0A00000070B5054666
:10364000287820B1012841D0022848D135E0254909
:10365000254A1278881802F0E5F823480078401CC3
:103660002149087008460078401E1E49085C0A2857
:1036700005D01D4800781D49098888421CDB00BF21
:103680001948027817491A4802F0E0FD0446082C50
:103690000DD0112C0BD000BF26463EB100BF15A2A5
:1036A00040F27F21304601F0A9FF00BF00BF112C7E
:1036B000E6D000200C49087012E000BF0DA24FF4C4
:1036C0002271686801F09AFF00BF09E000BF09A2FB
:1036D0004FF42371686801F091FF00BF00E000BF64
:1036E00000BF70BD302C012044270120C6260120D8
:1036F0008C2A01202E2E5C2E2E5C2E2E5C6D616994
:103700006E2E630070B50546287878B93B210848CD
:10371000008876DF044600BF264636B100BF05A20A
:10372000FD21304601F06AFF00BF00BF70BD000000
:10373000C02601202E2E5C2E2E5C2E2E5C6D616923
:103740006E2E630010B5044600BF04A24FF48471CE
:10375000204601F053FF00BF10BD00002E2E5C2E4E
:103760002E5C2E2E5C6D61696E2E630070B5002498
:1037700000BF25463DB100BF04A240F2E721284624
:1037800001F03CFF00BF00BF70BD00002E2E5C2E7C
:103790002E5C2E2E5C6D61696E2E630070B5114932
:1037A000114803F0F9FF044600BF25463DB100BFB4
:1037B0000EA240F23521284601F020FF00BF00BFD5
:1037C0004021094803F0AEFF044600BF25463DB145
:1037D00000BF06A24FF40E71284601F00FFF00BF94
:1037E00000BF70BD59340200B02A01202E2E5C2E7D
:1037F0002E5C2E2E5C6D61696E2E630030B58BB031
:1038000008200590062006900520079007200890C4
:1038100000208DF824008DF8250011480A9000BF83
:10382000104801904FF4807002900F4803904FF4BD
:103830008070049007230D4A01A905A802F03CF806
:10384000044600BF00BF25463DB100BF08A240F2BC
:10385000AB21284601F0D2FE00BF00BF0BB030BD47
:1038600000E0D701242D0120242E01203D36020046
:103870002E2E5C2E2E5C2E2E5C6D61696E2E6300EA
:103880002DE9F047044688469146206810B900208B
:10389000BDE8F087606808B10020F9E72068484576
:1038A00001D9484600E0206805462068401B20609A
:1038B000002617E0A81BFF2801D9FF2000E0A81B65
:1038C00007463A4641460C48006801F08EF90A491D
:1038D000086800BF00BF00BF417D0029FBD100BFC9
:1038E000B8443E44AE42E5D3206818B902480068A7
:1038F00001F075FA2846CBE7FC29012070B5054692
:103900000C46082C07D8E1B20348006801F00EFA13
:103910006420FFF710FB70BDFC29012001460868F8
:1039200070470000F8B504460E461546606800284A
:103930002DD06068A84207D215A0002318A2032149
:1039400000901B4800F0C4FA6068401B606020686B
:10395000401B20606068A0B16068FF2801D9FF208B
:1039600000E0606802461348A168006801F03DF974
:10397000D4E90101FF2801D9FF2000E06068084474
:10398000A060206818B90B48006801F028FAF8BD5B
:10399000496E7465726E616C206572726F7221007F
:1039A0004172647563616D4D696E69324D500000FE
:1039B00068330120FC29012038B50446206810BB7B
:1039C0001548006801F0E1F81348006801F060F95B
:1039D0001148006801F014F900BF082241210E4887
:1039E000006801F045FA0028F7D00B48006801F0A4
:1039F0007FF920600848006801F0EAF9064800688D
:103A000001F021F907E005A000230BA2032100909B
:103A1000114800F05DFA38BDFC2901204C61737437
:103A20002063617074757265206E6F7420726561B9
:103A300064206F75742100004152445543414D3A52
:103A400020737461727453696E676C65436170743E
:103A500075726528290000006833012070B586B0B2
:103A60000446802001F0ACFA0546D4E90323D4E9EA
:103A70000510CDE90023CDE9021005212846D4E93F
:103A8000073201F06CFA05463248056032A0002387
:103A900035A219460090364800F01AFA2D4A3548EA
:103AA000116800BF886200BF00BF5522002129486D
:103AB000006801F049FA00212648006801F003FA85
:103AC0000646552E09D02CA0002327A203210090E2
:103AD000274800F0FDF900BFFEE70122FF211D4845
:103AE000006801F0B9F805AA0A211A48006801F037
:103AF0008FF804AA0B211748006801F089F89DF897
:103B00001400262803D19DF81000422808D022A0D6
:103B1000002315A203210090154800F0D9F907E011
:103B200025A0002310A219460090114800F0D0F9FA
:103B300001210848006801F030F80648006801F0EB
:103B400055F90A20FFF7F7F90248006801F0A0F8DC
:103B500006B070BDFC29012043616D657261205380
:103B600074617274000000004152445543414D009D
:103B700068330120AD2E020053504920696E7465F0
:103B80007266616365206E6F6E20726573706F6E12
:103B9000736976650000000054574920696E7465AA
:103BA0007266616365206E6F6E20726573706F6EF2
:103BB00073697665000000004F5632363430206D50
:103BC0006F64756C6520646574656374656400007A
:103BD000002101604160014908607047002A01200E
:103BE00038B504462068202801D2012038BD05A040
:103BF00000230CA2032100900D4800F069F9002079
:103C0000F4E70000505049206368616E6E656C20D7
:103C10006E6F74206F70656E206F7220696E7661B2
:103C20006C6964005050494368616E6E656C0000B9
:103C30006833012070B504460E461546204600F054
:103C40000FF82046FFF7CCFF38B10448216840F850
:103C50003160216800EBC100456070BD10F5014086
:103C600038B50446074800F060F920602068202835
:103C700007D305A000230AA203210090014800F009
:103C800027F938BD683301204E6F206672656520C4
:103C9000505049206368616E6E656C7300000000CF
:103CA0005050494368616E6E656C3A206F70656E66
:103CB0000000000010B504462046FFF791FF20B138
:103CC0002178012088400149086010BD04F50140B9
:103CD00010B504462046FFF783FF20B1217801206C
:103CE00088400149086010BD08F501404FF0FF31E0
:103CF0000160704770B504460D46256005F01F0150
:103D0000012088406060202D01D3054801E04FF07C
:103D1000A040A0602946034800F09AF870BD00005A
:103D2000000300506833012070B504460D46294653
:103D30002046FFF7DFFF204670BD4FF0FF310160E6
:103D400000214160704770B504460D462946204663
:103D5000FFF7D0FFD4E90101C1F81C0570BD70B5B3
:103D600004460D4629462046FFF7DEFF0446294655
:103D70002046FFF7E8FF204670BD70B504460D46AB
:103D8000164629462046FFF7EAFF04462673207BA5
:103D900008B1032000E00120002141EA8001A06871
:103DA00000F5E06040F82510204670BDD0E9011212
:103DB000C2F80C157047D0E90112C2F80815704717
:103DC00070B504460D4629462046FFF793FFD4E917
:103DD0000101C1F8180570BD00B502461046FFF795
:103DE000ACFF0246104600BD70B506460D460024E5
:103DF0000CE0084850F82400A84206D1064850F8C4
:103E00002410304600F0C4F870BD641C032CF0DBB5
:103E100000BFF9E77C2901208829012070B50646FA
:103E20000D4600240CE0084850F82400A84206D1B2
:103E3000064850F82410304600F0AAF870BD641C03
:103E4000022CF0DB00BFF9E7AC290120B4290120E6
:103E500030B589B005460C46610905F1140050F8EB
:103E6000210004F01F0201219140084078B104F0C4
:103E70001F0362090EA101A801F0C6F801A80023E2
:103E800011A202210090284600F022F80EE06109FC
:103E900005F1140050F8210004F01F0201219140A7
:103EA0000843620905F1140141F8220009B030BD50
:103EB000436F6E666C696374696E672070696E200B
:103EC0005025692E2569000053797374656D0000D3
:103ED0002DE9F04104460D4617469846069E94F893
:103EE0002000A8421FDC84F82450A762C4F82C806C
:103EF0003046FEF7F8F9402802D9002086F83F0046
:103F0000314604F13000FEF7F5F904F1700005F0D8
:103F1000B0FB28B904F1240104F1700005F083FB23
:103F2000204600F01AF8BDE8F081014600200FE0BD
:103F3000012383400A681A404AB90122824092B2A2
:103F40002AB1012282400B6813430B607047401C6A
:103F50002028EDDB4FF0FF30F8E730B593B0044692
:103F6000E06998B10CE0694604F1700005F03EFB91
:103F70009DF80000DDE9011203ABE569A84700BF29
:103F800004F1700005F082FB0028ECD013B030BDC6
:103F900010B54B09021D52F8232001F01F04012324
:103FA000A3409A434C09031D43F8242010BD10B5CB
:103FB00002464B09101D50F8230001F01F04012395
:103FC000A3401840C8B94B0902F10C0050F8230077
:103FD00001F01F040123A340184070B94B09101DC4
:103FE00050F8230001F01F040123A34018434C099B
:103FF000131D43F82400012010BD0020FCE710B57C
:104000004B0900F1140252F8232001F01F04012390
:10401000A3409A434C0900F1140343F8242010BD37
:1040200070B506460D4600240CE0084850F82410F0
:104030003046FFF7BCFF20B12C60054850F8240043
:1040400070BD641C032CF0DB0020F9E788290120F7
:104050007C29012070B506460D4600240CE0084876
:1040600050F824103046FFF7A2FF20B12C6005481D
:1040700050F8240070BD641C022CF0DB0020F9E72E
:10408000B4290120AC29012010B5044604F17000C8
:1040900005F00FFBA0F17004012084F8200000203F
:1040A000E061206000BF07E00022211D41F82020D0
:1040B000083141F82020401C0228F5DBE06840F080
:1040C0000400E060204610BD10B5044694F830109E
:1040D000012088400449086004F10C00FFF766FEE7
:1040E0000120A07210BD00000C05005010B5044660
:1040F00004F10C00FFF75FFE0020A07210BD10B5A8
:1041000004462068D0F81801A0B100202168C1F849
:104110001801A07A18B904F10C00FFF74CFE00203A
:104120006072E06930B12368D3F83C15D3F84C05D0
:10413000E269904710BD000070B504460D4617486F
:104140000570A07A38B304F11800FFF7B3FD00BF83
:10415000607A0028FCD10120607210482168C1F803
:10416000440501212068C0F848150D482168C1F8B0
:10417000340501212068C0F8381501202168086144
:1041800000BF607A0028FCD104F11800FFF7A0FD01
:104190000348007870BD0020FCE70000692801207A
:1041A0006A28012038B50446207A40B14FA0002388
:1041B00054A2032100905648FFF78AFE94E0211D87
:1041C0005348FFF72DFF206000287BD0012020728C
:1041D00050485149086000BF5049606841F820408C
:1041E0002268606AC2F8080501464948FFF730FEB8
:1041F000A26A2068C0F80C2511464548FFF728FE42
:10420000E26A2068C0F8102511464148FFF720FEF9
:1042100004F10C00216BFFF7D3FD206800F11402BC
:104220003F4904F11800FFF705FD2068D0F80805A4
:10423000012141EA002040F440313A480160216800
:10424000206AC1F8240594F83500400094F8341031
:1042500040EA810094F8361008432168C1F85405FB
:1042600040202168C1F8040300202168C1F818012A
:104270002D4B626813F8222050B20721002807DA7C
:104280004A07150E294A00F00F031B1FD55403E0FF
:104290004A07130E264A135400BF234A616812F8D6
:1042A000211048B200F01F02012191404209920002
:1042B00002F1E022C2F8001100BF07202168C1F816
:1042C000000500E008E01BA0002322A21946009090
:1042D0000F48FFF7FDFD07E020A0002309A20321FE
:1042E00000900B48FFF7F4FD38BD0000496E74657F
:1042F000726661636520616C7265616479206F70BC
:10430000656E00005350494D3A204F70656E0000B5
:1043100068330120794402005C290120DC3201204D
:1043200008610040186500401428012018ED00E0E5
:1043300000E400E0537069206D6173746572206958
:104340006E7465726661636520637265617465642D
:10435000000000005350494D000000004E6F2070D7
:1043600065726970686572616C20667265650000CF
:1043700038B50446207A002848D000BF607A00286B
:10438000FCD1274A616812F8211048B200F01F02E0
:1043900001219140234A430942F8231000BF204ADB
:1043A000616812F8211048B200F01F02012191400B
:1043B0001D4A430942F8231000BF1C482168FFF73B
:1043C00013FD00201A4A616842F821002068D0F8E5
:1043D00008151648FFF713FE2068D0F80C1513488F
:1043E000FFF70DFE2068D0F810151048FFF707FE04
:1043F0000E48216BFFF703FE002020720DA0002362
:1044000013A2194600900948FFF762FD12A000238D
:1044100016A2032100900548FFF75AFD38BD0000A1
:104420001428012080E100E080E200E068330120F0
:10443000DC320120537069206D61737465722069EC
:104440006E7465726661636520636C6F736564008A
:104450005350494D00000000496E746572666163F7
:1044600065206E6F74206F70656E00005350494D6B
:104470003A20436C6F73650010B50446032C08D2D4
:10448000044850F8240020B1024951F82400FFF7F5
:1044900036FE10BDDC320120F8B504460E46154646
:1044A000FF2D08D922A0002328A2032100902B4829
:1044B000FFF70EFDF8BD207A78B3012D03D104F18A
:1044C0001800FFF7F7FB00E020BF607A0028FBD15F
:1044D0000120607222482168C1F84405012120684A
:1044E000C0F848152068C0F834652068C0F8385511
:1044F000A07A18B904F10C00FFF758FC01202168DC
:10450000086194F8370018B100BF607A0028FCD128
:1045100004F11800FFF7DCFB08E0FFE711A000231F
:104520000AA2032100900D48FFF7D2FC00BFC1E7AB
:104530005472616E73616374696F6E206C656E672F
:104540007468206578636565646564005350494DFF
:104550003A20526563656976650000006833012082
:1045600068280120496E74657266616365206E6F0C
:1045700074206F70656E0000F8B504460E4617464D
:104580001D46FF2D08D921A0002327A2032100905A
:104590002948FFF79DFCF8BD207A68B3012D03D1AF
:1045A00004F11800FFF786FB00E020BF607A0028C6
:1045B000FBD1012060722068C0F844652068C0F813
:1045C00048552068C0F834752068C0F83855A07A7E
:1045D00018B904F10C00FFF7E9FB0120216808611C
:1045E00094F8370018B100BF607A0028FCD104F1BC
:1045F0001800FFF76DFB07E010A000230AA20321BB
:1046000000900D48FFF764FC00BFC4E75472616E70
:1046100073616374696F6E206C656E677468206582
:1046200078636565646564005350494D3A2054725F
:10463000616E73666572000068330120496E7465AF
:104640007266616365206E6F74206F70656E000026
:10465000F8B504460E461546FF2D08D91DA00023C7
:1046600023A2032100902648FFF732FCF8BD207AF0
:1046700030B300E020BF607A0028FBD101206072D7
:104680002068C0F844652068C0F8485500202168BB
:10469000C1F8340500212068C0F83815A07A18B98F
:1046A00004F10C00FFF782FB01202168086194F8F7
:1046B000370068B100E020BF607A0028FBD107E036
:1046C00010A000230AA2032100900D48FFF700FC70
:1046D00000BFCBE75472616E73616374696F6E20C3
:1046E0006C656E67746820657863656564656400F1
:1046F0005350494D3A205472616E736D69740000D5
:1047000068330120496E74657266616365206E6F5F
:1047100074206F70656E000010B5044604F10C0043
:10472000FFF75AFBA0F10C0404F11800FFF7DEFAC2
:10473000A0F11804002020726072A072012084F899
:1047400037001A2060621B20A0621C20E0621D203E
:1047500020634FF080502062002084F8340084F8F9
:10476000350084F83600E061204610BD70B504467F
:104770002068D0F8040188B100202168C1F8040144
:104780006072E06950B12668D6F83C35D6F8342519
:10479000D6F84C15D6F84405E569A8472068D0F846
:1047A000240170B100202168C1F824012068D0F8EC
:1047B000C404E06000206072206A10B1216AE068E1
:1047C000884770BD014600BF487A0028FCD1C86800
:1047D00070470000F8B504460D461646207A38B3F7
:1047E00000E020BF607A0028FBD101206072002029
:1047F000E0602168A069C1F888052068C0F84455C8
:104800002068C0F8486500202168C1F834050021FF
:104810002068C0F838154FF400702168C1F8000214
:10482000801C2168C1F8040301202168886007E02A
:1048300004A0002308A2032100900B48FFF748FBC7
:10484000F8BD0000496E74657266616365206E6F25
:1048500074206F70656E00005457494D3A205472B1
:10486000616E7366657200006833012038B50446D6
:10487000207A40B138A000233DA2032100903F4898
:10488000FFF726FB66E0211D3C48FFF7E3FB2060B5
:10489000002857D00120207239483A49086000BFEB
:1048A0003949606841F8204022692068C0F80C2529
:1048B00011463248FFF7CCFA22686069C2F8080551
:1048C00001462E48FFF7C4FA4FF0CC702168C1F8BA
:1048D000240500202168C1F824012168C1F80401E1
:1048E0002A4B626813F8222050B20721002807DA09
:1048F0004A07150E264A00F00F031B1FD55403E08C
:104900004A07130E234A135400BF204A616812F865
:10491000211048B200F01F0201219140420992008B
:1049200002F1E022C2F8001100BF06202168C1F8A0
:10493000000519A000230EA2194600900F48FFF7AA
:10494000C7FA07E01CA0002309A2032100900B482E
:10495000FFF7BEFA38BD0000496E74657266616388
:104960006520616C7265616479206F70656E00000E
:104970005457494D3A204F70656E0000683301204E
:10498000514B0200642901206C280120BC28012021
:1049900018ED00E000E400E0545749206D617374A5
:1049A000657220696E746572666163652063726505
:1049B00061746564000000004E6F2070657269705C
:1049C000686572616C206672656500002DE9F843C8
:1049D00004460D4616461F46DDF82080207A30B387
:1049E00000E020BF607A0028FBD101206072002027
:1049F000E0602168A069C1F888052068C0F84455C6
:104A00002068C0F848652068C0F834752068C0F890
:104A100038854FF484502168C1F8000240F202202A
:104A20002168C1F8040301202168886007E005A01F
:104A3000002309A2032100900B48FFF749FABDE8C3
:104A4000F8830000496E74657266616365206E6F5D
:104A500074206F70656E00005457494D3A205472AF
:104A6000616E7366657200006833012038B50446D4
:104A7000207A00283FD000BF607A0028FCD1224A6B
:104A8000616812F8211048B200F01F020121914024
:104A90001E4A430942F8231000BF1B4A616812F8FE
:104AA000211048B200F01F0201219140184A430929
:104AB00042F8231000BF17482168FFF7AFF9002024
:104AC000154A616842F821002068D0F80C15114899
:104AD000FFF795FA2068D0F808150E48FFF78FFA0F
:104AE000002020720DA0002311A219460090094851
:104AF000FFF7EEF907E011A000230DA203210090BB
:104B00000448FFF7E5F938BDBC28012080E100E04A
:104B100080E200E0683301206C280120496E746552
:104B2000726661636520636C6F73656400000000EA
:104B30005457494D3A20436C6F736500496E746554
:104B40007266616365206E6F74206F70656E000021
:104B500010B50446022C08D2044850F8240020B1B5
:104B6000024951F82400FFF701FE10BD6C28012016
:104B70000021017241720221016103214161012181
:104B800081610021C1610162704710B504460122B4
:104B90000421204600F0D8F910BD11B9002202729C
:104BA00001E001220272704710B50446A16EE16374
:104BB000E16E6163216FA163616F21634FF08041FA
:104BC000E162002184F8431004F10C00FFF7EAFAD7
:104BD00004F10C00FFF7CCFBA16F6165E16FA165EB
:104BE00004F14400FFF742FE10BD70B504460D46C7
:104BF00016463246294604F10C00FFF74DFC70BD05
:104C000010B5044602220421204600F09DF910BD93
:104C100037B582B0044615460021204600F078F9E9
:104C200001202B46024603A9009004F14400FFF73F
:104C3000CDFE04F14400FFF7C5FD0120FEF772F937
:104C4000012005B030BD10B504463C2104F10C0034
:104C5000FFF772FA10BD000070B504460D46164607
:104C60000021204600F054F908490D704E700222D0
:104C700004F14400FFF7AEFD04F14400FFF7A2FD8C
:104C80000120FEF74FF9012070BD000054290120DA
:104C900010B5044601220421204600F055F910BD4C
:104CA0002DE9F04180460D46002600272C460FE0F6
:104CB0002078617800EB012086B2A178E07801EBE2
:104CC000002087B23A4631464046FFF7C5FF241D13
:104CD000FF2E01D0012000E00020FF2F01D0012194
:104CE00000E0002108430028E2D10120BDE8F08166
:104CF0002DE9F04104464FF000084221204600F023
:104D0000E2F805464321204600F0DDF8064644213E
:104D1000204600F0D8F800F07F07380440EA06206B
:104D200040EA05084046BDE8F081000070B5054640
:104D30000C46092C33D2DFE804F0050A0F14191EC3
:104D400023282D0019492846FFF7AAFF2CE018490F
:104D50002846FFF7A5FF27E016492846FFF7A0FFE2
:104D600022E015492846FFF79BFF1DE0134928461E
:104D7000FFF796FF18E012492846FFF791FF13E06E
:104D800010492846FFF78CFF0EE00F492846FFF731
:104D900087FF09E00D492846FFF782FF04E0054937
:104DA0002846FFF77DFF00BF00BF70BDE89D0200F1
:104DB000889E0200289F0200C89F020068A002008F
:104DC0000CA10200B0A102004CA20200F0A202005D
:104DD00010B5044604F10C00FFF776F910BD10B5CC
:104DE000044604F10C00FFF781F910BD10B504462C
:104DF000607A05282FD10122FF212046FFF72CFFE2
:104E0000802212212046FFF727FF6420FEF78AF850
:104E1000207A01281AD111492046FFF741FF104995
:104E20002046FFF73DFF0F492046FFF739FF0122DB
:104E3000FF212046FFF710FF002215212046FFF733
:104E40000BFF09492046FFF72BFF03E007492046E7
:104E5000FFF726FF00E000BF00BF10BDA09A0200D0
:104E60009C9D0200C49D0200289F020098970200AA
:104E70002DE9F04106460F4614463946304600F00B
:104E800022F8054625402846BDE8F0817CB5044659
:104E90000D4600200190E8B28DF8040000260121A3
:104EA000204600F035F802236A4601A904F10C00FF
:104EB000FFF762FB00BF00BF607D0028FBD19DF8BB
:104EC000016030467CBD70B505460C4604F07F019C
:104ED0002846FFF7DBFF0646304670BD70B5044636
:104EE0000D4616460121204600F012F807490D70C4
:104EF0004E70022204F10C00FFF7AAFB00BF00BFB6
:104F0000607D0028FBD1012070BD000056290120E2
:104F100070B504460D4600BF207DA84200D170BD8B
:104F200045B104F14400FFF7A1FD04F10C00FFF7C7
:104F300039F907E004F10C00FFF71AFA04F1440014
:104F4000FFF794FC00BFEAE770B505460C4616462D
:104F500044F0800132462846FFF7C0FF70BD2DE9BE
:104F6000F05F04460D4616461F46DDE90CABDDE951
:104F70000A8904F10C00FFF7CFFBA0F10C0404F147
:104F80004400FFF7F5FDA0F14404E667A767C4F805
:104F90006880C4F86C90C4F870A0C4F874B020465F
:104FA000FFF702FE6572607A052802D13021E165C3
:104FB00002E04221E16500BF00BF2046BDE8F09F4E
:104FC00010B5040007D1012405E0FDF7CFF9006812
:104FD00000B904488047204602F0B8FA0028F4D00F
:104FE00010BD0000292302000FB4054B10B503A922
:104FF000044A029800F064F810BC5DF814FB00004D
:10500000E36D0200D82701200FB4084B10B504A9A6
:1050100002AA039800F054F8044602A9002000F008
:10502000AFF9204610BC5DF814FB0000815302006C
:1050300002E008C8121F08C1002AFAD17047704761
:10504000002001E001C1121F002AFBD170470000BF
:105050000146202908DA012088400A4A104008B198
:10506000012070470020FCE7402909DAA1F1200067
:10507000012202FA00F008B10120F2E70020F0E777
:105080000120EEE7FC06FFBD00BFEFF310810846EC
:1050900072B6704710B50248FEF7F6FF10BD00006B
:1050A0006833012010B50448FEF792FD01220B2160
:1050B0000248FEF762FE10BDCC2A0120F02A012032
:1050C0002DE9FF4F8DB09B460F460446002606E0B3
:1050D00025280BD05A460F999047641C761C2078DF
:1050E0000028F5D111B03046BDE8F08F0025A84664
:1050F0000122984900E0054314F8013F203B02FAE1
:1051000003F00842F7D120782E2817D114F8010FA8
:1051100045F004052A280ED06FF02F022078A0F168
:10512000300109290AD808EB880102EB410100EBA4
:105130000108641CF2E757F8048B641C20786C2883
:105140000DD004DC4C2812D06A2811D104E0742858
:105150000DD07A280CD10AE045F4001507E06178FB
:1051600045F48015814202D1641C05F58015641C4C
:105170002278692A45D008DC002AB3D0582A69D0A1
:10518000632A10D0642A08D13BE0702A67D0732AC2
:1051900013D0752A5CD0782A5CD010465A460F99F5
:1051A0009047761CD3E017F8040B8DF80000002020
:1051B0008DF80100E946012003E057F8049B4FF009
:1051C000FF3069074FF0000501D40AE06D1C45452A
:1051D0000DDA8542FADB19F805100029F6D106E050
:1051E0006D1C8542FCDB19F805100029F8D12E440E
:1051F00004E019F8010B5A460F9990476D1EF8D23A
:10520000A5E00A200021CDE90801C5F302500228DB
:105210000DD001CFC117031E71F100030DDA4FF05D
:10522000000CD0EB0C006CEB01012D2308E0FF1DFE
:1052300027F00707F7E80201EDE72B0504D52B233C
:105240008DF8283001233BE0EB0739D02023F7E726
:105250000A2000E010200021CDE9080107E010201D
:10526000002145F00405CDE908014FF00808C5F319
:10527000025002280FD001CF00214FF0000A2B0767
:105280001FD5702A0DD0DDE908C38CF0100C5CEA44
:10529000030C0CD015E0FF1D27F00707F7E802010B
:1052A000EBE740228DF828204FF0010A0BE050EA8E
:1052B000010306D030238DF828308DF829200223F1
:1052C0009A46582A04D024A20DF120090B9209E035
:1052D00026A2F9E7DDE90823FCF7B0FF0B9B9B5CF6
:1052E00009F8013D50EA0102F4D1ADEB090020308C
:1052F0000890680701D44FF001080899884502DD3D
:10530000A8EB010000E000208046002506E00AA886
:105310005A46405D0F9990476D1C761C5545F6DB4B
:1053200004E030205A460F999047761CB8F10001EE
:10533000A8F10108F5DC05E019F8010B5A460F99B0
:105340009047761C0899481E08900029F4DC641CDC
:10535000C5E60000092801003031323334353637D4
:1053600038396162636465660000000030313233B1
:105370003435363738394142434445460000000051
:105380000A68531C0B60107070470246002104E04D
:10539000505C08B101207047491C0629F8D3002051
:1053A000F9E72DE9FC410446884616460025378872
:1053B0000020308094F82D0058B13A4631464046DE
:1053C00000F00BFE054600BF15B12846BDE8FC8184
:1053D00000BFA07850B13A463146404600F02AFB63
:1053E000054600BF0DB12846F0E700BFE07860B188
:1053F000E17848B23B463246414601F0CDFC0546D5
:1054000000BF0DB12846E1E700BF606868B1616880
:1054100091F900003B463246414603F026FE054620
:1054200000BF0DB12846D1E700BF208900280EDD5E
:1054300043460622022104F10800CDE9006704F08A
:1054400039F8054600BF0DB12846BFE700BF208AE6
:1054500000280EDD43460722032104F11000CDE9A8
:10546000006704F027F8054600BF0DB12846ADE7F8
:1054700000BF208B00280EDD43461522142104F1C5
:105480001800CDE9006704F015F8054600BF0DB11E
:1054900028469BE700BF206A58B13B46324641464A
:1054A000206A01F0D8FA054600BF0DB128468DE705
:1054B00000BF606A58B13B4632464146606A02F01E
:1054C0007BF8054600BF0DB128467FE700BF94F882
:1054D0002C0000280BDD3B4632464146204603F0B7
:1054E00057FA054600BF0DB128466FE700BF207888
:1054F00058B13B4632464146204602F098F80546F0
:1055000000BF0DB1284661E700BF28465EE70000F6
:1055100070B504461448FFF738FF0546012C06D045
:10552000022C0BD0032C10D0042C1AD113E00F48FE
:10553000407810B10DB1012070BD00BF0B488078DC
:1055400010B10DB10220F7E700BF0848C07808B1DC
:105550000320F1E700BF0548007908B10420EBE71C
:1055600000BF0020E8E700006E270120902F0120F7
:105570000146481C052290FBF2F302FB1300C0B267
:1055800070470146C87800F0040008B9072070474A
:105590000020FCE710B501220221002000F0B8FF36
:1055A000044600BF1CB1072C01D0204610BD00BF2F
:1055B00007220221012000F0ABFF044600BF1CB10E
:1055C000072C01D02046F1E700BF0A22002108463F
:1055D00000F09EFF044600BF1CB1072C01D02046FE
:1055E000E4E700BF0020E1E770B504460D4616462B
:1055F00032462946204600F011F870BDFEB504463B
:105600000E461546B0B2ADF80000019502946A4608
:10561000002144F20100FFF7E7FFFEBD18B50123AA
:1056200000939DF800301E4B186059609A606FF42B
:105630008043034463B1012B19D1194BDA60DB6855
:105640001B88174CA3612346DB685B68E3610EE0AF
:10565000134B1A611B699B68114C636123461B69DC
:105660001B88A36123461B695B68E36100BF00BF21
:105670000B4B1B680A4B5B68094B9B68084BDB684C
:10568000074B1B69064B5B69054B9B69044BDB6948
:1056900072B600BF9DF80030002BFBD162B618BD7A
:1056A0001C31012070B504460D46204601F058FB20
:1056B00028B12946204601F047FB002070BD052097
:1056C000FCE7034609B90E20704712B1501E104086
:1056D00008B10920F8E71960501E988000209860F2
:1056E000D86000BFF0E770B504460D46204601F0D3
:1056F00037FBA188884205D82946204601F043FBA4
:10570000002070BD0420FCE710B503460C4600BF26
:105710000B48807808B9082010BD00BF0AB90720DF
:10572000FAE70BB90720F7E71868007C08B10820F2
:10573000F2E71968002008744C744A6100BFEBE777
:105740003C31012010B502F0C7FF00200F4908705E
:1057500048700B20887000200D4908600D490870C2
:105760000D4908701420FCF7C1FF07211420FCF735
:10577000F7FF1420FCF7D2FF002002F083FF02F0B5
:105780007BFF06490860002010BD00003C3101206D
:10579000B4270120C4270120C5270120B8270120F4
:1057A0002DE9F04104460E461746254600BF104835
:1057B000807810B90820BDE8F08100BF0CB908203E
:1057C000F9E7052E01D20720F5E7686908B9082036
:1057D000F1E7687C012801D1304600E000208046D6
:1057E0003B4642463146284603F0E0FAE3E7000034
:1057F0003C31012070B50446254600BF084880783A
:1058000008B9082070BD00BF0CB1686908B908204C
:10581000F8E7002028740221284603F0F6FAF1E7A1
:105820003C3101202DE9F04104461048077821461B
:105830000F48FFF737FF8046A7B100200B490870DB
:1058400001220C490C4802F051F9054600BF2E46D2
:1058500036B100BF09A2D5213046FFF7CFFE00BF09
:1058600000BF00BF4046BDE8F0810000D627012000
:1058700048320120D5270120C82701202E2E5C2E7A
:105880002E5C2E2E5C2E2E5C2E2E5C2E2E5C636FDC
:105890006D706F6E656E74735C6C69627261726953
:1058A00065735C756172745C6170705F7561727450
:1058B0005F6669666F2E63002DE9F04188B004468B
:1058C0000D46174698462E4807601DB9072008B0B8
:1058D000BDE8F081A88882B22A482968FFF7F1FE66
:1058E000064600BF0EB13046F1E700BFA88982B27C
:1058F0002548A968FFF7E5FE064600BF0EB1304611
:10590000E5E700BF202221496846FCF7C8FC606932
:105910000690207C08B1012000E000208DF81400E2
:105920008DF81C80607C08B10E2000E000208DF80E
:105930001500E0680290A0680390206801906068FC
:105940000090134A6946134802F08EF8064600BFDD
:105950000EB13046BBE700BF00200F490870206839
:10596000401C58B19DF81D0010B90A4802F028F9F2
:1059700001220A49074802F0B9F8A8E70020A6E783
:10598000D0270120483201205832012078970200A8
:10599000A1900200C8270120D6270120D527012089
:1059A00070B5044621460B48FFF79DFE054675B9C4
:1059B000094802F09FFA50B908490648FFF772FEFD
:1059C00028B901220549044802F0DEF905462846B7
:1059D00070BD000058320120C8270120D4270120C3
:1059E00010B50446204602F09FFF10BD70B5044676
:1059F00025460E488068B0B1ADB9FFF745FB0646B5
:105A00000A4800680A490860084840684FF0E021E9
:105A1000C1F804010020054988601EB900BF62B6C4
:105A200000BF00BF00BF00BF70BD00006832012092
:105A300000E100E0F8B505460C4617462088001D39
:105A4000B84201D90C20F8BD684679DF064600BF90
:105A50000EB13046F7E700BF032021886854208844
:105A6000401C20801920218868542088401C2080F8
:105A700020884119BDF8000003F0A9FC21880844E2
:105A800020800020DFE7000070B505460C46206846
:105A9000401C28B1206802F0DFFA206802F05FFAAB
:105AA0006068401C18B10021606802F04BFA287948
:105AB0002D4901EB4010007F50B32868A169C0F860
:105AC000241500BF617D227D286841EA0203C0F8E9
:105AD0006C3500BFD4E90012286802F07BFB207D02
:105AE00001283FD1A068401C18B10021A06802F035
:105AF00029FAE068401C28B1E06802F0ADFAE068DD
:105B000002F02DFAD4E90221286802F04FFB29E0C7
:105B10002868A169C0F8241500BF617D227D28682E
:105B200041EA0203C0F86C3500BFD4E900122868CE
:105B300002F021FB207D012814D1A068401C18B17F
:105B40000021A06802F0FEF9E068401C28B1E0687E
:105B500002F082FAE06802F002FAD4E90221286831
:105B600002F0F1FA70BD0000FC3001202DE9F04197
:105B700092B080460D461F2011901090B8F1000F92
:105B800017D04046FFF7FDFC044600BF1CB120467D
:105B900012B0BDE8F08100BF11AA08A94046FFF786
:105BA00000FC044600BF0CB12046F1E700BF08AE80
:105BB00002E0002600201190ADB1284603F03EF827
:105BC000044600BF0CB12046E2E700BF10AA6946B8
:105BD0002846FFF7E6FB044600BF0CB12046D7E796
:105BE00000BF6F4602E0002700201090BDF8400083
:105BF000C3B2BDF84400C1B23A46304672DFC7E7CF
:105C000001490870704700006C2701202DE9F0471A
:105C100004460F4615461E46DDF8208004B115B92E
:105C20000E20BDE8F087012049490870002049494D
:105C30000870202229464848FCF731FB00204749DC
:105C40000870474806604748C0F800804FF6FF706C
:105C500045490880454800210160818081713C21CF
:105C60004348FCF735FB207841490870A0788870DC
:105C7000E078C870607848700846D4E90412C0E93A
:105C80000412D4E90212C0E90212D4E90612C0E9F2
:105C90000612606AD8B13748354948623649816092
:105CA000606A00883249496A0880606A80883049A1
:105CB000496A8880002005E0616A8968095C2E4A8B
:105CC0001154401C2A49496A89888142F4D8A06A43
:105CD00020B32A492A4881602549886227492448F7
:105CE000806A8160A06A80882149896A8880A06A68
:105CF00000881F49896A0880002005E0A16A896838
:105D0000095C1E4A1154401C1949896A89888142DC
:105D1000F4D894F82C00164981F82C00206A58B168
:105D2000184813490862206A4088096A4880206A36
:105D300000880F49096A0880606810B10C496068E2
:105D4000486039460A48FFF711FF8146484668E730
:105D5000682701206B270120902F01206C2701204C
:105D60007C270120802701207A2701206D27012030
:105D7000B02F0120EC2F0120F82F0120243001202A
:105D8000183001207627012010B5044620881028FD
:105D900004D0112806D01B280CD107E0204602F0C1
:105DA0004DFA08E0204602F0F7FA04E0204602F03F
:105DB00083FB00E000BF00BF10BD00007FB50546BB
:105DC0004E48007810B9082004B070BD4C480570EA
:105DD00000F0FDFF20B101204A4908700020F3E7E0
:105DE000494800210160818081714848407818B19C
:105DF0004348007801280DD04448807818B14048C5
:105E00000078012806D04148807888B13C48007865
:105E100002280DD13E48006838B101203D49087084
:105E200008203B490968884702E00020394908708A
:105E30002846FFF76DFB3249087035480068C0B14D
:105E400008460078032803D008460078042810D1BB
:105E50002E48007868B13048007850B900202F49AA
:105E6000087001202E4908700720294909688847D1
:105E700002E000202A490870002000900190029062
:105E800003908DF800008DF808001D480078052863
:105E90001CD2DFE800F01703080D1200684602F07C
:105EA000C3FD044613E0684602F0CEFD04460EE052
:105EB000684602F0DFFD044609E0684602F00AFE8B
:105EC000044604E000201749087000E000BF00BF4E
:105ED0000B48007838B114480178684673DF0446EF
:105EE0000CB1204670E70A48006820B10D480078E0
:105EF000074909688847002066E7000068270120F5
:105F00006B270120692701206D270120902F012098
:105F10007C27012074270120842701208627012067
:105F2000852701206A2701206C27012070B50546CE
:105F30001C2229461248FCF7B2F9002011490870CA
:105F4000286850B1104829680A68026049684160B1
:105F50007ADF04463CB1204670BD0B487BDF044627
:105F60000CB12046F8E74FF6FF7008490880002082
:105F700007490870074A00210748FFF7C5FBEBE710
:105F8000443001209C2701208827012092270120EE
:105F900090270120DD9302000097020010B504460F
:105FA0002088102806D0112808D012280ED050289A
:105FB00010D107E0204602F021F90CE0204602F063
:105FC000C7F908E0204602F093FA04E0204602F008
:105FD00009F900E000BF00BF10BD2DE9FC410546F6
:105FE0000C46174620880930B84202D90C20BDE87B
:105FF000FC8168466DDF064600BF0EB13046F6E70D
:1060000000BF0820218868542088401C20801B2065
:10601000218868542088401C208020882844DDF88E
:1060200001100160BDF8051081802088801D20804E
:106030009DF80000400818B900202188685402E04B
:106040000120218868542088401C20800020CEE751
:1060500030B587B004460D4600BF14B90E2007B016
:1060600030BD00BFA08B4FF6FF71884201D0E07FAA
:1060700008B90820F3E70720009002208DF81400EB
:106080002868CDF81500A888ADF819000020019007
:10609000029003900490A08AADF8040005A8049033
:1060A000CDF80CD001208DF80600A08B01A9A6DF49
:1060B000D5E730B587B004460D4600BF14B90E20B1
:1060C00007B030BD00BFA08B4FF6FF71884201D0F2
:1060D000E07F08B90820F3E70520009001208DF843
:1060E00014002868CDF8150000200190029003905C
:1060F0000490A08AADF8040005A80490CDF80CD057
:1061000001208DF80600A08B01A9A6DFD8E70000CA
:1061100070B586B004460E46264B0FCB01AD0FC5B9
:1061200000BF14B90E2006B070BD00BF00BF0EB98D
:106130000E20F8E700BF4FF6FF70A08330682062A2
:106140000020A077214601A862DF054600BF0DB1FF
:106150002846E8E700BF20788DF816000120ADF84A
:106160001400A21C05A9A0DF054600BF0DB12846FA
:10617000D9E700BF3146204602F0F9FA054600BFD4
:106180000DB12846CFE700BF3146204602F0C2FEDF
:10619000054600BF0DB12846C5E700BF3146204681
:1061A00000F034FE054600BF0DB12846BBE700BF36
:1061B0000020B8E71C97020070B505460C4605B1F3
:1061C00004B970BD2088102806D0112809D05028A5
:1061D0000CD0572815D10EE02146284602F02AF8A7
:1061E00010E02146284602F0D3F80BE0214628466D
:1061F00002F0A4F906E00548006808B102F0E8F9E9
:1062000000E000BF00BF00BFDBE70000A0270120C7
:106210002DE9F04104460E461546A08B4FF6FF715E
:10622000884201D0A07F10B90820BDE8F08106485F
:10623000006808B11120F8E7AAB23146204600F004
:1062400005F807463846F0E7A027012037B584B0A7
:1062500004460D4600BF14B90E2007B030BD00BF84
:10626000A08B4FF6FF71884201D0A07F08B90820AB
:10627000F3E7BDF81800F42801DD0720EDE7002062
:106280000090019002900390A088ADF80000039563
:1062900006A8029001208DF80200A08B6946A6DFB7
:1062A000DBE770B50446204603F08BF8054605F0A1
:1062B000010070BD01460148405C7047D096020065
:1062C000F8B505460B48405D0090684601F094FE25
:1062D0000446D4F80465012000998840B043C4F80E
:1062E00008050120009988403040C4F80C0500BF23
:1062F000F8BD0000CC96020010B504460249085DC6
:10630000012101F0B6FE10BDCC96020010B5044686
:106310000249085D002101F0ACFE10BDCC960200E0
:10632000F8B504460A48005D0090684601F064FE36
:10633000064600BFD6F804050099C84000F00100E9
:1063400008B1012000E00020054685F00100F8BDFD
:10635000CC96020010B5002403E02046FFF7CCFFE6
:10636000641C042CF9D310BD10B5002403E02046B2
:10637000FFF7CCFF641C042CF9D310BD02464FF08C
:10638000FF30002106E0054B5B5C934201D10846DB
:1063900002E0491C0429F6D300BF7047D0960200E2
:1063A00070B505462888102802D011282CD115E098
:1063B0001748006860B900F0C5FB044600BF34B15F
:1063C0001448006818B1204612490968884700BF80
:1063D0000F480068401C0E49086016E00C48006831
:1063E000401E0B4908600846006860B9FFF7D2F804
:1063F000044600BF34B10748006818B1204605497B
:106400000968884700BF00E000BF00BF70BD000002
:10641000642701206027012010B5002000F074FAE5
:10642000044600BF1CB1062C01D0204610BD00BFA1
:10643000012000F069FA044600BF1CB1062C01D00F
:106440002046F3E700BF0020F0E700002DE9F0410F
:1064500006460F464FF0000800243046FFF78EFF37
:106460000446042C3ED20FB3012F02D0022F38D1A4
:1064700030E004EB4400214911F8008004EB4400B3
:106480000844407850B11E4A4FF400411D4800684E
:10649000FFF786F905460DB91948067004EB44006C
:1064A000164908448078184908551AE015480068CC
:1064B000FFF7A0F91448005D04EB44010F4A1144B2
:1064C0008978884205D104EB44001146084490F8CD
:1064D000028006E004EB44000849084490F801807B
:1064E00000BF00BFB8F1000F06D00848006818B11F
:1064F0004046064909688847BDE8F081642F0120BD
:1065000058270120DC96020059270120542701203A
:1065100030B503460020042B23D2012A07D10129DC
:1065200003D103F10E04E4B200E00024224679B165
:10653000012902D0022911D104E003EB43040A4DE2
:106540002A550DE003EB4304074D2C44627007E02D
:1065500003EB4304044D2C44A27001E0072000BF6C
:1065600000E0072030BD0000642F012070B5044614
:1065700000250548007800F0010018B1204600F021
:1065800005F80546284670BD4C2701202DE9F04747
:10659000044600260025D748007820B10020D549C0
:1065A000087000F08FFD182C79D2DFE804F00C1190
:1065B000124579ADF1FFEEEDECEBEAE9E8E7E6E54F
:1065C000E4E3E2E1E0DF00F07DFDCB4804708DE123
:1065D00000BF0020FFF7A4FE58B10020FFF78CFE9B
:1065E000022C02D14FF4E16001E04FF47A600546DD
:1065F00009E00020FFF78AFE022C01D1C82001E04B
:106600004FF4C8700546BC4804704FF40040A5FB29
:1066100000204FF4FA73D71840F100015A0000230C
:106620003846FBF70BFE814600224946B348006816
:10663000FFF7B6F8064659E10020FFF771FE58B1A2
:106640000020FFF759FE032C02D14FF4487001E0FF
:106650004FF47A60054609E00020FFF757FE032C4F
:1066600001D1C82001E04FF4C8700546A24804706B
:106670004FF40040A5FB00204FF4FA73D71840F107
:1066800000015A0000233846FBF7D8FD814600225E
:1066900049469A480068FFF783F8064626E124E158
:1066A0000020FFF73DFE58B10020FFF725FE042C27
:1066B00002D14FF47A6001E04FF47A6005460AE0B7
:1066C0000020FFF723FE042C02D14FF4C87001E034
:1066D0004FF4C8700546884804704FF40040A5FB8D
:1066E00000104FF4FA73CF1840F100015A00002354
:1066F0003846FBF7A3FD8146002249467F480068E3
:10670000FFF74EF80646F1E00020FFF709FE50B112
:106710000020FFF7F1FD052C01D1C82001E04FF466
:106720007A60054609E00020FFF7F0FD052C01D155
:10673000C82001E04FF4C87005466F4804704FF45C
:106740000040A5FB00204FF4FA73D71840F1000178
:106750005A0000233846FBF771FD81460022494666
:1067600066480068FFF71CF80646BFE0B8E0B6E0F0
:10677000AAE0A1E098E092E05FE05DE05BE059E034
:1067800057E051E042E033E024E015E00EE0FFE79F
:106790000020FFF795FD58480470002240F6CD41D7
:1067A00056480068FEF7FCFF06469FE00020FFF712
:1067B000ADFD5148047099E001204E490870FFF783
:1067C0007FFD002240F6CD414C480068FEF7E8FF0F
:1067D00006468BE0012047490870FFF771FD002253
:1067E0004FF4804145480068FEF7DAFF06467DE039
:1067F000012040490870FFF763FD002240F6CD41BB
:106800003E480068FEF7CCFF06466FE0012039499C
:106810000870FFF755FD00224FF4804137480068AB
:10682000FEF7BEFF064661E0FFF79EFD32480470AA
:106830005CE000BF00BF00BF00BF31480068FEF74A
:10684000D9FF0646C4F1110515B30EBB012D18D9A9
:10685000A8B2C82148434FF4004180FB01304FF4F7
:10686000FA729F1840F10001520000233846FBF7EE
:10687000E5FC81460022494621480068FEF790FF6A
:1068800006460220FFF742FD01201E49087005E080
:106890000220FFF731FD00201A49087026E000F0C1
:1068A00011FC1548047021E000F00CFC0020FFF7FB
:1068B0002DFD1148047019E000F004FC0120FFF7E1
:1068C00025FD0D48047011E000F0FCFB0020FFF7EF
:1068D0001DFD0120FFF71AFD0748047006E000BF08
:1068E000FFF742FD0448047000E000BF00BF3046DF
:1068F000BDE8F0874927012048270120D4960200EF
:10690000D89602005027012070B504462046FFF7B4
:10691000D1FC0546032101F02FFB002070BD0000D3
:106920000146024850F821007047000094300120D1
:106930000146014840567047C430012070B50546F5
:106940000DB9094C01E0084C083409E0204600F07C
:10695000B3FB064606B904E028467168884700BFC5
:10696000F4E700BF70BD0000883001202DE9F0473A
:1069700082461F480068002836D01D480068056818
:1069800001F07AFE07461B4804682146384602F0AB
:106990005CF9C61C1848007808B901F07FFEAE42C9
:1069A00001D2284600E03046044424F07F442046CB
:1069B00001F05CFE01F060FE80463946404602F080
:1069C00044F900F103093946204602F03EF98145B9
:1069D00009D901F051FE814601F048FE2F2000F058
:1069E00061FF02F07FFA01E001F076FEBDE8F0877A
:1069F000B4270120B8270120C627012001460888B6
:106A0000062808DB0888B0F5486F06DD08884FF6D1
:106A1000FF72904201D0072070474888062808DBA3
:106A20004888B0F5486F06DD48884FF6FF729042FF
:106A300001D00720F0E708884FF6FF72904208D097
:106A40004888904205D008884A88904201DD072096
:106A5000E2E70020E0E72DE9F04106460D46144646
:106A600098462088801D404502D90C20BDE8F08161
:106A70003046FFF7C3FF074600BF0FB13846F5E7C2
:106A800000BF0520218868542088401C20801220E7
:106A9000218868542088401C208022885119308821
:106AA00002F095FC218808442080228851197088C2
:106AB00002F08DFC2188084420800020D6E70000E9
:106AC00038B51B4800F0E6FA20BB1A48007848B1F8
:106AD00019484069E8B100200090174841696846AC
:106AE000884716E01548007810B91348456801E05A
:106AF000114885680022294611480068FEF750FEBB
:106B0000044634B10C48806918B10B4881692046AD
:106B1000884709E00848406930B1012000900648E4
:106B200041696846884700BF00200249087038BDA7
:106B3000942701209C270120443001209027012028
:106B40000097020010B5012200210846FFF7E0FC83
:106B5000044600BF1CB1072C01D0204610BD00BF69
:106B6000072202210120FFF7D3FC044600BF1CB11D
:106B7000072C01D02046F1E700BF042202210020AB
:106B8000FFF7C6FC044600BF1CB1072C01D020460D
:106B9000E4E700BF0020E1E77CB504460D46002095
:106BA00000900190A81D00EBC4008079ADF80000B2
:106BB000A81D00EBC4008079ADF8020000226946F0
:106BC000204690DF06467CBD014614480078144AF2
:106BD000127890421DD011480078401C0F4A107066
:106BE00010460078022801D1002010700D480B4A91
:106BF000127850F8220008600B4A086812681044A6
:106C0000094A10601046006820F07F4010600120A3
:106C100070470020086000BFFAE70000C427012089
:106C2000C5270120BC270120B8270120054800689E
:106C3000082805D10348001D006808B901207047E5
:106C40000020FCE73001001005480068082805D145
:106C50000348001D006808B9012070470020FCE7C8
:106C60003001001005480068082805D10348001DC0
:106C7000006808B9012070470020FCE730010010CF
:106C800005480068082805D10348001D006808B9B8
:106C9000012070470020FCE7300100100548006823
:106CA000082805D10348001D006808B90120704775
:106CB0000020FCE73001001005480068082805D1D5
:106CC0000348001D006808B9012070470020FCE758
:106CD0003001001005480068082805D10348001D50
:106CE000006808B9012070470020FCE7300100105F
:106CF000F0B5034600241FE0124E306806689E423D
:106D000003D90668F61A06601AE006689B1B066837
:106D10003444002606600B4E35680A4FC6693E6053
:106D2000C66846B10E1926F07F464660C668866082
:106D30001668C661156000BF024800680028DBD1F4
:106D400000BFF0BDB427012070B504460D462A46A9
:106D50000021204600F00EF8A068401CA06070BD25
:106D600001468A68C868801A704701468A68C86800
:106D7000801A704710B583680B44848823400468E8
:106D8000E35C137010BDC26883881A40036899548D
:106D9000C268521CC260704730B504461088C01CDF
:106DA000984201D90C2030BD022015884855108822
:106DB000401C10800120158848551088401C108008
:106DC00015884C551088401C10800020EBE708B552
:106DD000684600F00FF8009808B1012008BD0020B7
:106DE000FCE770B504460D46E0B2FEF7D9FD20463B
:106DF00070BD0000014609B9032070470248406E8B
:106E000008600020F9E700007432012030B58FB02F
:106E100004460D460020079000BF9DF81C0020F09E
:106E20000F00401C8DF81C009DF81C0020F0F000A5
:106E300010308DF81C0000BF00BF9DF81D0020F031
:106E40000F00401C8DF81D009DF81D0020F0F00083
:106E500010308DF81D0000BF9DF81E0020F00600C8
:106E6000801C8DF81E001C2108A8FBF731FA9DF844
:106E7000200020F0100010308DF820000020099034
:106E80000B900C9007A80D9000200E9020788DF8A4
:106E900006000420ADF804000020009000BF9DF81B
:106EA000000020F00F00401C8DF800009DF800004D
:106EB00020F0F00010308DF8000000BF00BF9DF8FA
:106EC000010020F00F00401C8DF801009DF801002A
:106ED00020F0F00010308DF8010000BF9DF8020096
:106EE00020F00600801C8DF802009DF8020020F0C2
:106EF00008008DF802009DF8020020F010008DF8C7
:106F000002009DF8020020F00100401C8DF80200F4
:106F1000142102A8FBF7DCF901A80290CDF80CD0EF
:106F20000520ADF810000020ADF812001020ADF8DB
:106F30001400608804F1140302AA08A9A2DF0FB0AC
:106F400030BD0000F8B52948007800B9F8BD00252B
:106F50002748006808B9012000E00020064600BF6D
:106F6000EDB92448007800B1F0E7684648DF0446F0
:106F7000052C01D1012511E034B100BF1E4AB52115
:106F80002046FEF73BFB09E0009800F025FD1B487A
:106F9000006818B1194900980968884700BFEEB920
:106FA0001448007800B1D1E7154800880090694680
:106FB0001448006861DF0446052C01D101260CE06D
:106FC00034B100BF0C4ADD212046FEF717FB04E078
:106FD0000C48006806490968884700BF0DB106B132
:106FE00000E0BDE700BF00BFB0E70000E8270120D8
:106FF000F4270120E927012094A30200E4270120BF
:10700000F0270120EC27012070B504460D462079B9
:107010001D4901EB4010007FF8B14FF488712068E2
:1070200001F0BDF84FF49071206801F0B8F84FF40A
:107030009271206801F0B3F84FF4A271206801F05A
:10704000AEF81249206801F0BAF8206800F0FCFCA4
:107050000646294600F0C8FC14E04FF48E71206803
:1070600001F06AF84FF4A271206801F065F8084950
:10707000206801F071F8206800F0E6FC0646294619
:1070800000F0B2FC70BD0000FC30012010030200D3
:107090008000020001464888064A1288904206DBBA
:1070A0004888044A5288904201DC01207047002041
:1070B000FCE70000882701200146086808B1026843
:1070C0000A60704710B50848007850B1002405E008
:1070D000022C02D02046FFF70FF9641C042CF7D3D2
:1070E00001E0FFF737F910BD50270120F72101809B
:1070F00017214180002101714171FB2181711B2108
:10710000C17170472DE9F041064600274748D0F885
:10711000008078E016B13446E66947E044480078DC
:1071200000EB40014248001D00EBC105001F007844
:10713000401C3F490870084600788978884202D18F
:1071400000203B4908706C68287801281AD0022872
:1071500002D0032817D107E0686801F0E3FD00B111
:107160000127002020744EE007E030490868002124
:1071700001742E4AC169116000BF2C4800680028C4
:10718000F3D140E000E03EE000BF207C00B13AE0F7
:10719000A8686060E868A0602869E0606869A0612C
:1071A0002448007808B10020606000BF2249606870
:1071B0000968401A20F07F402049884208D21E49C1
:1071C0006068096801F041FDA168084420600FE093
:1071D00019486168006801F038FD0546A068A842BA
:1071E00003D9A068401B206001E00020206000BFA0
:1071F00000206060A060012020740020E061204633
:1072000001F05CFD00BF002E84D1094800780849D8
:1072100049788842F8D11FB904480068404502D037
:107220000120BDE8F0810020FBE70000B427012029
:107230003C310120C7270120B8270120FFFF7F0034
:10724000C2B00025FEF77EFA044600BF26463EB1D6
:1072500000BF82A240F21B313046FEF7CFF900BFDB
:1072600000BFFCF7CBFAFCF781FAFBF73FFFFBF717
:10727000F7FFFCF793FAFBF717FFFCF73FF8FCF773
:10728000A3F87AA0FDF7B0FE7C487D49C86100BF35
:107290000846002180F8201000BF0320FEF78EFD75
:1072A000044600BF26463EB100BF6CA24FF44B71AE
:1072B0003046FEF7A3F900BF00BFFBF7DFFD01205A
:1072C000FCF7BAF8F720FBF7FDFD00BF6D4800782A
:1072D000072873D2DFE800F08B04262D3667830081
:1072E0000020684908706848FCF718FBC8B967A017
:1072F000FDF77AFE6448FCF75FFB6348FCF70EFB82
:107300000646314667A0FDF76FFE701E0090694685
:107310006D48FEF7CEFE012202A95B48FCF7B0FAE9
:1073200000BF65E000205749087068A0FDF75CFECB
:107330005EE00020534908706A4908706AA0FDF7B2
:1073400053FE55E000204F4908706D4801786DA04C
:10735000FDF74AFE6A480078062822D2DFE800F0EE
:1073600003080D12171C00214748FCF7C7FA18E064
:1073700002214548FCF7C2FA13E004214248FCF719
:10738000BDFA0EE005214048FCF7B8FA09E00621F5
:107390003D48FCF7B3FA04E008213B48FCF7AEFA9D
:1073A00000BF00BF24E00020364908705DA0FDF753
:1073B0001BFE6348007810B9012001E017E00220AD
:1073C0008DF804005E48007808B9012000E0022032
:1073D0008DF805003C49888B01A98FDF08E000206B
:1073E0002849087057493848FEF732FE00E000BFD0
:1073F00000BF3C480078B8B1B5B92348FCF78EFA15
:1074000090B92148FCF7D8FA1F48FCF787FA0646DE
:10741000701E009069462C48FEF74BFE012202A91F
:107420001948FCF72DFA00BF1DB91748FCF776FA8A
:1074300070B135B94448028802A91348FCF720FA14
:1074400005462A4602A92048FEF7E2FE00B90025BB
:107450000C48007808B9FBF70FFE37E72E2E5C2E9C
:107460002E5C2E2E5C6D61696E2E63000D0A5541F7
:107470005254205374617274210D0A0015360200B3
:1074800068330120C8260120CC2A01205374617280
:1074900074696E6720636170747572652E2E2E0D8F
:1074A0000A0000004361707475726520636F6D702F
:1074B0006C6574653A2073697A6520256920627964
:1074C0007465730D0A0000008C2A012053747265E4
:1074D000616D206D6F646520656E61626C65640D21
:1074E0000A000000CB26012053747265616D206D87
:1074F0006F64652064697361626C65640D0A0000E5
:10750000C92601204368616E6765207265736F6CE0
:107510007574696F6E20746F206D6F64653A2025F5
:10752000690D0A00417474656D7074696E6720742A
:107530006F206368616E6765207068792E0D0A00A0
:10754000CA260120CC260120C6260120F0B50B302A
:10755000154D20F007010024144A0FE003688B4208
:107560000BD38B4205D95E1A43184768C3E90067FD
:1075700000E04368136002C004E0021D10680028A8
:10758000ECD12046002802D1286808B10020F0BDC7
:10759000064A07481060074A121A22F00702C0E99B
:1075A000002401202860D7E7882A0120842A0120AE
:1075B0004C360120485601202DE9F04105460E4683
:1075C00014469846A888871C2088801C384440456B
:1075D00002D90C20BDE8F081FE2F01D90C20F9E77B
:1075E000781C218870542088401C2080FF2021882E
:1075F00070542088401C208022889119288801F02E
:10760000E6FE218808442080A88800280DDDA868AF
:1076100008B90720DEE7AA8823889819A968FAF72D
:107620003EFE2088A988084420800020D2E72DE96A
:10763000F84F05460F46144698462878012804D18D
:10764000687810B90720BDE8F88F2088801C404575
:1076500008D82878012807D12088801C6978084438
:10766000404501D90C20EEE72088A8EB0000801EE1
:1076700086B200962188891CC81969467DDF81463B
:1076800000BFB9F1000F01D04846DCE700BF287801
:10769000022806D1BDF80000B04202DC4FF0090A12
:1076A0000BE04FF0080A2878012805D16878B0422D
:1076B00002DC6878009000E00096BDF80000FE282B
:1076C00001D90C20BFE7BDF80000401C2188785488
:1076D0002088401C2080208807F800A02088401CBB
:1076E00020802088BDF80010084420800020AAE7F0
:1076F00030B502460B46D40802F007020120904044
:107700001D5D284030BD024600BF0AB90E207047FB
:1077100000BF172901DBF72901DD0720F7E75180BA
:107720000020F4E7024600BF0AB90E20704700BFF0
:10773000172901DBF72901DD0720F7E71180002079
:10774000F4E72DE9FC4106460C4615460020009062
:10775000019016B90E20BDE8FC814FF6FF708442FF
:1077600007D1FB2D01DA284600E0FB203071002014
:10777000F1E7022C01DB0720EDE7B01D00EBC400B0
:107780008571ADF80050ADF80250002269462046E0
:1077900090DF07463846DEE770B504460E4600BF68
:1077A0000CB90E2070BD00BFA661F720208060805C
:1077B000FB202071002505E0A11D01EBC500FFF7AE
:1077C00095FC6D1C022DF7D30020EBE72DE9F0416D
:1077D00005460E46B488022C01DBBDE8F0813088F6
:1077E000232820D006DC102809D011280CD022280C
:1077F00023D11DE03A280CD055281ED10EE0314689
:10780000284600F025FD19E03146284600F0E2FD4B
:1078100014E03146284600F01DFE0FE031462846B0
:1078200000F0E2FD0AE03146284600F045FD05E0A3
:107830003146284600F06AFD00E000BF00BFA81DE9
:1078400000EBC400007998B1A81D30F83410204630
:107850009EDF074657B90021A81D00EBC400017147
:107860000121A81D00EBC400417100E000BF00BF72
:1078700000BFB2E701464FF08040405808B10120F8
:1078800070470020FCE708B500224FF080410A5005
:107890000958009100BF08BD014908607047000009
:1078A0000803004000B9704700BF00BF00BF00BF21
:1078B00000BF00BF00BF00BF00BF1E4909681E4ACD
:1078C000914200D130E000BF00BF00BF00BF00BF49
:1078D00000BF00BF00BF00BF00BF00BF00BF00BFB0
:1078E00000BF00BF00BF00BF00BF00BF00BF00BFA0
:1078F00000BF00BF00BF00BF00BF00BF00BF00BF90
:1079000000BF00BF00BF00BF00BF00BF00BF00BF7F
:1079100000BF00BF00BF00BF00BF00BF00BF00BF6F
:1079200000BF00BF00BF00BF401E00D0BDE700BFCA
:10793000B9E70000742A01200024F40010B50024E7
:107940001648007808B1852425E000201349886096
:1079500048600861C86000BF00BF4109890001F1AB
:10796000E021D1F8001101228240114009B101212A
:1079700000E0002119B90721002000F035F800BF10
:1079800001F056F920B901200549086000BF00BF89
:10799000012002490870204610BD000080300120FF
:1079A0001805004008B5002000906846FEF718F85A
:1079B0000848007808B9FFF7C1FF0648C068401CB6
:1079C0000449C860012088709DF80000FEF70EF899
:1079D00008BD00008030012010B5044614B9002015
:1079E000FEF7ACFF10BD000070B50B4601461A460D
:1079F000002907DA5407260E104C01F00F052D1F41
:107A0000665503E05407250E0D4C655400BF00BFBA
:107A100000F01F02012191400A4A440942F8241053
:107A200000BF00BF00F01F020121914042099200F7
:107A300002F1E022C2F8001100BF70BD18ED00E0B5
:107A400000E400E080E200E00146C1F3073250B2FA
:107A50007047014601F06040B0F1005F01D10120A4
:107A600070470020FCE700002DE9F04105460E4676
:107A7000174628791C4901EB40144FF00008E07EBE
:107A800020B14FF008084046BDE8F081707F2077B4
:107A900031462846FDF7F8FF67603069206060686E
:107AA00018B1317F2846FFF7AFFA00BF28790E4999
:107AB00001EB4010007F28B128680821C0F80015AC
:107AC00000BF05E028680421C0F8001500BF00BF12
:107AD00000BF0020E0752076A0750120E076002030
