:020000040002F8
:10300000C091002019320200213202002332020056
:10301000253202002732020029320200000000009F
:103020000000000000000000000000002B32020041
:103030002D320200000000002F3202003132020067
:1030400089370200333202001D3C0200A938020019
:10305000E538020033320200B53402003332020098
:1030600033320200333202003332020033320200C4
:1030700033320200333202003332020033320200B4
:1030800033320200D93702003332020033320200F9
:103090004939020033320200513902003332020052
:1030A0003332020033320200333202003332020084
:1030B0003332020033320200000000000000000042
:1030C000333202003332020033320200213902006F
:1030D00033320200333202003332020000000000BB
:1030E00000000000000000000000000000000000E0
:1030F00000000000000000000000000000000000D0
:1031000000000000000000000000000000000000BF
:1031100000000000000000000000000000000000AF
:10312000000000000000000000000000000000009F
:10313000000000000000000000000000000000008F
:10314000000000000000000000000000000000007F
:10315000000000000000000000000000000000006F
:10316000000000000000000000000000000000005F
:10317000000000000000000000000000000000004F
:10318000000000000000000000000000000000003F
:10319000000000000000000000000000000000002F
:1031A000000000000000000000000000000000001F
:1031B000000000000000000000000000000000000F
:1031C00000000000000000000000000000000000FF
:1031D00000000000000000000000000000000000EF
:1031E00000000000000000000000000000000000DF
:1031F00000000000000000000000000000000000CF
:10320000DFF810D000F0CEF800F082F80048004758
:1032100009890200C09100200648804706480047FF
:10322000FEE7FEE7FEE7FEE7FEE7FEE7FEE7FEE776
:10323000FEE7FEE799390200013202002DE9F05F56
:103240000546002092469B46884606468146402415
:103250001BE0284641464746224600F07AF853468E
:103260005A46C01A914110D311461846224600F022
:1032700061F82D1A67EB01084F4622460120002114
:1032800000F058F817EB00094E41201EA4F101048C
:10329000DFDC484631462A464346BDE8F09F000041
:1032A00000487047D4BF020040EA01039B0703D0E7
:1032B00009E008C9121F08C0042AFAD203E011F875
:1032C000013B00F8013B521EF9D27047D2B201E037
:1032D00000F8012B491EFBD270470022F6E710B51B
:1032E00013460A4604461946FFF7F0FF204610BD74
:1032F000421C10F8011B0029FBD1801A70470346BD
:1033000011F8012B00F8012B002AF9D1184670475B
:1033100070B5054C054D03E0206820448047241D0E
:10332000AC42F9D170BD000000C2020008C2020028
:1033300000F02AB8202A04DB203A00FA02F100202B
:1033400070479140C2F1200320FA03F319439040E3
:103350007047202A04DB203A21FA02F0002170474E
:1033600021FA02F3D040C2F12002914008431946ED
:1033700070470000034870470248001D011F886025
:10338000001D70475C43002010B500F020F8016973
:1033900019B100220261884701E080688047AFF3DD
:1033A00000800000064C074D06E0E06840F0010395
:1033B00094E8070098471034AC42F6D3FFF724FF97
:1033C000E0C1020000C2020010B5AFF3008070B58A
:1033D000FFF7D2FF04680546A4B9202005F01AFCC7
:1033E000040011D0094900202C60C4E900010849FB
:1033F000A1602073206160610649A06109B100F0FD
:103400000BF8E061204670BDAFF3008000000000C3
:10341000C93302000000000010B5882005F0FAFB57
:10342000002801D00021017010BD802902D808B108
:10343000017809B100207047012100F8081B70478E
:1034400018B100F10802914201D00020704700211C
:103450000170704770B58D1810F8014B14F003021D
:1034600001D110F8012B231106D110F8013B03E024
:1034700010F8016B01F8016B521EF9D1ABB110F8D5
:10348000012B04F00C048A1A0C2C03D0A2EB84123A
:103490009B1C08E010F8014BA2EB0422F8E712F89D
:1034A000014B01F8014B5B1EF9D5A942D4D3002092
:1034B00070BD00002DE9F04F89B04FF000080020EA
:1034C00008904FF4807007900126002413E00798BD
:1034D00006F03AF948B100BF81480068304020B199
:1034E000079806F023F948EA060876000798001DB9
:1034F00080B20790641C082CE9D34FF4BE7006F02C
:1035000023F950B14FF4BE7006F010F948F00048AE
:1035100008AA0121002006F0EFF808F0FF0000B330
:10352000012600241BE006EA0800B0B100BF6D4888
:1035300050F82400C0F30420074600BF694850F843
:103540002400C0F301408146204604F05BFC0546A0
:1035500015B149463846A84700BF7600641C082CC0
:10356000E1D308F0004000287ED0002006900590AE
:10357000002505E04FF0FF3004A941F825006D1C3F
:10358000002DF7D000BF0020069000246FE05648C1
:10359000005D0390039820F0C00753480057401C7B
:1035A000002863D004A9384605F006FC00285DD049
:1035B00003984FEA901A384604F02CFC814604F038
:1035C00021FC0290029810B9BAF1030F4BD1BAF165
:1035D000030F11D1394605A80246CB0801F00701B7
:1035E00012F803C04FF0010E0EFA01FE4CEA0E0C69
:1035F00002F803C000BF00BF00BF00BF4FF0A041F2
:10360000084600F5E06151F82710C1F3014900BFF9
:1036100008A9384605F0D0FB8346BBF1000F02D065
:10362000B9F1020F05D0BBF1000F1BD1B9F1030FA7
:1036300018D1BAF1030F0FD1B9F1020F01D1032054
:1036400000E0022001903846019906F013F8069830
:10365000401CC0B2069000BF029818B151463846CF
:10366000029A904700BF00E036E000BF641C042CC3
:103670008DD3069858B3012703AA0121002006F034
:103680003BF800250AE003A850F8250008A951F8E6
:103690002510884201D0002702E06D1C002DF2D0D9
:1036A00000BF17B10020069010E000250CE003A831
:1036B00050F8250008A941F8250005A850F8250074
:1036C00004A941F825006D1C002DF0D000BF06981C
:1036D00000287FF458AF00BF09B0BDE8F08F0000AC
:1036E0000463004010650040C849002000F01F023C
:1036F00001219140024A430942F82310704700001B
:1037000080E200E000F01F0201219140024A4309DB
:1037100042F823107047000080E100E000F01F0233
:10372000012191404209920002F1E022C2F8001109
:10373000704700F01F02012191404209920002F1FE
:10374000E022C2F80011704700F01F0201219140F1
:10375000024A430942F823107047000000E200E0EB
:1037600010B5002807DA4A07140E054A00F00F03C7
:103770001B1FD45403E04A07130E024A135410BD12
:1037800018ED00E000E400E010B54FF4807005F0A3
:10379000DDFB60B14FF4807005F0E1FB012005F026
:1037A000E7FB01200B494870002004F039FB4FF47F
:1037B000827005F0CBFB58B14FF4827005F0CFFB5F
:1037C000022005F0D5FB01200249887004F028FB97
:1037D00010BD00006449002010B5002009490860B0
:1037E00000210948C0F84411C0F84811C0F84C1134
:1037F00000200549C1F8000102493C39086007F082
:10380000E3F810BD401101400010014010B500BFA9
:103810000348007808B900F013FA00BF10BD00009B
:10382000DC4D00202DE9F047074688461646C24683
:1038300007EB47011B4800EBC109D9F8140020B180
:10384000012811D0022826D11EE0484600F030FAA7
:103850000546B54201D2002405E0344632465146C1
:10386000484600F06CFA18E0484600F021FA054698
:10387000B54201D2284600E0304604462246514671
:10388000484600F05CFA08E032465146484600F0EF
:103890001DFA044601E0002400BF00BF2046BDE839
:1038A000F0870000F44D002010B50B48006818B1F7
:1038B00000200949096888470848006818B10120B4
:1038C0000649096888470648006818B1012004497C
:1038D0000968884710BD0000D4420020D84200206B
:1038E000DC42002010B50B48006818B101200949DE
:1038F000096888470848006818B102200649096825
:1039000088470648006818B10020044909688847BC
:1039100010BD0000D4420020D8420020DC4200202C
:1039200010B50748006818B10220054909688847A2
:103930000448006818B1002002490968884710BD92
:10394000D4420020D842002010B506F047FF10BD39
:1039500070B50B48006880B109480068804704468C
:1039600000BF25463DB100BF064A40F2D1112846AE
:1039700003F09AF800BF00BF01E004F047FE70BDFD
:103980001441002060C102000148024908607047EC
:103990000090D0035843002010B504F0EDFB28B18F
:1039A0008E480088C0F304208D49086004F038FC7C
:1039B00010B18C488C49486704F04AFC30B1874804
:1039C000E0380068C0F342308849086004F06AFCBF
:1039D00028B18748006820F080708549086004F0AD
:1039E00079FC48B10020834908604FF08041C1F85C
:1039F00010017E49091F086004F096FC18B10320ED
:103A00007A496431086004F0A7FC68B105207A495E
:103A10000860012078497831086000207649083133
:103A200008603F20091F086004F0AEFC002855D054
:103A30006A48E0300068714908606848E43000680E
:103A4000091D08606548E8300068091D0860634882
:103A5000EC300068091D08606048F0300068091DFE
:103A600008605E48F4300068091D08605B48F83063
:103A700000686249203108605848FC300068091D20
:103A800008605F480068091D08605D48001D006807
:103A9000091D08605A4808300068091D0860584828
:103AA0000C300068091D0860554810300068534903
:103AB00040310860524814300068091D08605048C1
:103AC00018300068091D08604D481C300068091D49
:103AD00008604B4820300068091D086004F022FB94
:103AE00030B13E48CC38006800F04F0045490860CE
:103AF00004F06CFB40B14448006800F0010018B1CC
:103B00006FF001004049086039487438006840F49B
:103B1000700037497439086000BF00BF00BFBFF3B1
:103B20004F8F00BF00BF00BF00BF00BF00BFBFF38B
:103B30006F8F00BF00BF00BF3448006800F0004036
:103B400028B93248001D006800F00040F0B30120A1
:103B50002F49086000BF2F4800680028FBD01520BF
:103B60002A49086000BF2B4800680028FBD01521B7
:103B70002648001D016000BF264800680028FBD0D1
:103B800000202349086000BF224800680028FBD0BD
:103B900000BF00BF00BF00BF00BFBFF34F8F00BF1B
:103BA00000BF00BF1248F038006800F4E0601A4916
:103BB0000843001D0E49F039086000BF00BF00BF78
:103BC000BFF34F8F00BF00BF00BF00E002E000BFA7
:103BD00000BFFDE7FFF7D8FE10BD00002403001072
:103BE000403501400DF0ADBA00C007403C05004033
:103BF000FCED00E00C0100401056004020C50040E4
:103C000024040010E40E00400004004000120010E4
:103C100004E5014000E401400000FA0510B5064843
:103C2000007F20B10449054807F025F903E0024967
:103C3000024807F07FF810BDD04900200020004066
:103C400010B5124C02202061606111A0A0611349DF
:103C5000E1614FF4007121620021A1626162E162C1
:103C60000BA0A0640E49E164102121650021A1652B
:103C70006165E1650BA1E01DFFF741FB0AA120464C
:103C8000FFF73DFB2020A07110BD0000DC4D00209F
:103C90005465726D696E616C00000000CC4B0020B1
:103CA000CC4D002052545400534547474552000024
:103CB00010B501460A69CB689A4204D88C68641E24
:103CC000E41AA01801E0D41A601E10BD2DE9F047D7
:103CD0000446894617464FF0000AE56800BFD4F84D
:103CE0001080A84503D9A8EB0500461E04E0A5EB0B
:103CF0000800401CA1680E1AA068401BB04201D900
:103D0000304601E0A068401B0646BE4201D2304664
:103D100000E0384606466168481932464946FFF7D2
:103D2000C3FAB244B144BF1B3544A068A84200D1D5
:103D30000025E560002FD2D15046BDE8F0872DE97F
:103D4000F047044689461546E668A068871BAF42DF
:103D500008D9616888192A464946FFF7A5FA7019FB
:103D6000E06010E0B8466168881942464946FFF7AE
:103D70009BFAA5EB070809EB070142466068FFF7CD
:103D800093FAC4F80C80BDE8F087000070B50546D2
:103D900095B1032D13D1022003F038FE044600BF75
:103DA00026463EB100BF07A24FF4A271304602F092
:103DB0007BFE00BF00BF03E000F006FD00E000BF97
:103DC00000BF70BD2E2E5C2E2E5C2E2E5C6D6169A8
:103DD0006E2E6300F0B589B00546288822287DD074
:103DE0000CDC11282ED004DC012878D0102877D1E3
:103DF00011E012287BD01328F9D148E0512871D066
:103E000004DC232857D03B28F1D1A1E052286AD006
:103E10005628ECD1ADE0072003F0F8FD044600BFC2
:103E200026463EB100BF7FA240F25B11304602F051
:103E30003BFE00BF00BFA8887E4908807EA002F03C
:103E400029FAECE0002003F0E1FD044600BF26461D
:103E50003EB100BF73A240F26311304602F024FE6F
:103E600000BF00BF4FF6FF707249088004207549FB
:103E700008700120744908700020744908700120FE
:103E800073494871087173A002F004FAC7E0002377
:103E90001A468521674800887FDF044600BF264612
:103EA0003EB100BF5FA240F27311304602F0FCFD4C
:103EB00000BF00BFB3E0002007900890A888002250
:103EC00007A990DF044600BF264676B100BF55A281
:103ED00040F27D11304602F0E7FD05E015E059E0C3
:103EE0009CE004E067E01FE000BF00BF97E06E8940
:103EF0002F895748468001465A4803F0FFFA324658
:103F0000394659A002F0C6F989E0687A504908712B
:103F1000A87A4871534803F0F1FA4D484279017983
:103F200059A002F0B7F97AE000231A461946414831
:103F30000088A9DF044600BF26463EB100BF39A273
:103F40004FF4CB71304602F0AFFD00BF00BF66E01A
:103F5000A888132176DF044600BF26463EB100BF85
:103F600030A240F29D11304602F09EFD00BF00BF1E
:103F700055E0A888132176DF044600BF26463EB1EF
:103F800000BF28A24FF4D271304602F08DFD00BF71
:103F900000BF44E0A888002166DF044600BF264633
:103FA0003EB100BF1FA240F2A911304602F07CFDD5
:103FB00000BF00BF33E01022A91D05A8FFF774F968
:103FC0009DF8140048B39DF81C00042807D09DF804
:103FD0001C00062803D09DF81C0005281DD19DF863
:103FE0001400022802D18DF8040002E001208DF8AF
:103FF00004004FF4C170ADF80800A88801A9A8DF3B
:10400000044600BF26463EB100BF06A24FF4E2714F
:10401000304602F049FD00BF00BF00E000BF00BF16
:1040200009B0F0BD2E2E5C2E2E5C2E2E5C6D6169CB
:104030006E2E630000400020436F6E6E65637465F2
:10404000640D0A0008400020094000200B400020B9
:104050000C400020446973636F6E6E656374656421
:104060000D0A000070430020436F6E207061726182
:104070006D7320757064617465643A20434920252E
:10408000692C2025690D0A005068792075706461DB
:1040900074653A2025692C2025690D0A000000006E
:1040A00010B51B20094908621A20C86119208861CF
:1040B00018204861172008611620C860084600F0E3
:1040C000E1FD0221014800F02DFD10BDB0430020AC
:1040D00070B504460D462A4621460248006800F0A5
:1040E00035FD70BDA041002070B505462946114838
:1040F00004F07CFE044600BF26463EB100BF0EA27F
:1041000040F2DD21304602F0CFFC00BF00BF29465F
:10411000084804F05CFE044600BF26463EB100BFDE
:1041200005A24FF43871304602F0BEFC00BF00BF5C
:1041300070BD0000944300202E2E5C2E2E5C2E2E8F
:104140005C6D61696E2E630010B504464FF47A71A0
:1041500004FB01F000F00AF810BD10B504464FF45E
:104160007A7104FB01F000F04DF810BD00B9704702
:1041700000BF00BF00BF00BF00BF00BF00BF00BF47
:1041800000BF1E4909681E4A914200D130E000BFBD
:1041900000BF00BF00BF00BF00BF00BF00BF00BF27
:1041A00000BF00BF00BF00BF00BF00BF00BF00BF17
:1041B00000BF00BF00BF00BF00BF00BF00BF00BF07
:1041C00000BF00BF00BF00BF00BF00BF00BF00BFF7
:1041D00000BF00BF00BF00BF00BF00BF00BF00BFE7
:1041E00000BF00BF00BF00BF00BF00BF00BF00BFD7
:1041F000401E00D0BDE700BFB9E7000058430020D3
:104200000024F40000B9704700BF00BF00BF00BF2A
:1042100000BF00BF00BF00BF00BF1E4909681E4AA3
:10422000914200D130E000BF00BF00BF00BF00BF1F
:1042300000BF00BF00BF00BF00BF00BF00BF00BF86
:1042400000BF00BF00BF00BF00BF00BF00BF00BF76
:1042500000BF00BF00BF00BF00BF00BF00BF00BF66
:1042600000BF00BF00BF00BF00BF00BF00BF00BF56
:1042700000BF00BF00BF00BF00BF00BF00BF00BF46
:1042800000BF00BF00BF00BF401E00D0BDE700BFA1
:10429000B9E70000584300200024F40070B53EDF69
:1042A000044600BF25463DB100BF04A240F20931DB
:1042B000284602F0F9FB00BF00BF70BD2E2E5C2E19
:1042C0002E5C2E2E5C6D61696E2E630038B5002069
:1042D0000090094800906946084803F06FF90446C9
:1042E00000BF254635B100BF05A2E721284602F0F0
:1042F000DBFB00BF00BF38BD3D470200704300201C
:104300002E2E5C2E2E5C2E2E5C6D61696E2E63004F
:1043100070B586B001208DF8140000208DF81500CE
:104320008DF8160007208DF8170000BF00234FF40A
:1043300098724E4905A806F0E9F9054600BF2E46D9
:104340003EB100BF4AA24FF4FC71304602F0ACFB14
:1043500000BF00BF00BF0020049004A806F036F99B
:10436000044600BF25463DB100BF41A240F2FD1109
:10437000284602F099FB00BF00BF00200190029088
:10438000039001208DF8040000208DF805008DF8C1
:10439000060001A94020049A69DF044600BF2546B3
:1043A0003DB100BF32A24FF40271284602F07CFBFF
:1043B00000BF00BF002001900290039001208DF803
:1043C0000400F720ADF8060001A92320049A69DF54
:1043D000044600BF25463DB100BF25A240F20F2193
:1043E000284602F061FB00BF00BF00200190029050
:1043F000039001208DF804004FF4A071ADF808106F
:104400008DF8060001A92020049A69DF044600BF48
:1044100025463DB100BF16A240F21721284602F002
:1044200043FB00BF00BF04A806F0E6F8044600BF47
:1044300025463DB100BF0EA240F21B21284602F0E6
:1044400033FB00BF00BF0E4806F0CAF8044600BFA9
:1044500025463DB100BF06A240F21F21284602F0CA
:1044600023FB00BF00BF06B070BD0000E443002086
:104470002E2E5C2E2E5C2E2E5C6D61696E2E6300DE
:10448000B54502003EB500BF9DF8000020F00F00CA
:10449000401C00909DF8000020F0F00010300090CB
:1044A00000BF0C2216A168467CDF044600BF2546EB
:1044B00035B100BF16A29C21284602F0F5FA00BFD4
:1044C00000BF0020019002900620ADF804000920F2
:1044D000ADF806000020ADF808004FF4C870ADF844
:1044E0000A0001A87ADF044600BF254635B100BFA7
:1044F00007A2A621284602F0D7FA00BF00BF3EBDA2
:104500004E6F726469635F494D414745000000008A
:104510002E2E5C2E2E5C2E2E5C6D61696E2E63003D
:1045200030B5A7B03C2118A8FEF7D7FE02208DF8C1
:10453000600000208DF8620005208DF863003C21AA
:1045400009A8FEF7CAFE0120ADF8340013490E9108
:10455000202101A8FEF7C1FE01208DF807004020B0
:104560000590B420069000200D4B01AA09A90090E7
:1045700018A802F0A1FD044600BF25463DB100BFCA
:1045800008A240F2CB21284602F08EFA00BF00BFFD
:10459000012002F08BFD27B030BD0000024000205A
:1045A0008D3D02002E2E5C2E2E5C2E2E5C6D6169E0
:1045B0006E2E630010B50446204602F045FF2146EA
:1045C000084804F067FC2146074803F04BF82046F2
:1045D000FFF700FC204602F02DFE204603F030F9E4
:1045E00010BD0000944300207043002030B587B018
:1045F0001C216846FEF771FE002000904FF4203029
:1046000001904FF47020029003208DF80C000020E0
:10461000ADF80E008DF810000A4805900A48069083
:10462000684602F0D9FE044600BF25463DB100BFF2
:1046300006A240F21F11284602F036FA00BF00BF62
:1046400007B030BD29490200694902002E2E5C2EB8
:104650002E5C2E2E5C6D61696E2E630070B5044673
:104660000CB1FB2000E01B2005462A464FF6FF71E7
:10467000014804F0CAFB70BD9443002070B50546A4
:104680000C46608810490988884216D1208840F677
:104690007721884211D1A088C01E0C4908800846A5
:1046A00000880B4908800B4802F028FF237907484F
:1046B0000288018808A001F0EDFD2A88698811A010
:1046C00001F0E8FD70BD0000004000200640002021
:1046D0000C4000207043002044617461206C656EC2
:1046E0002069732073657420746F203078255828F2
:1046F0002564292C206F72206D61796265202569FF
:104700000D0A0000415454204D54552065786368CB
:10471000616E676520636F6D706C657465642E20D3
:1047200063656E7472616C202569207065726970B2
:10473000686572616C2025690D0A000070B5054638
:104740000C4616462078072826D2DFE800F025041C
:104750000910171E050000BF2078124908701FE0DD
:1047600001201149087020780E49087018E00020D7
:104770000D49087020780B49087011E004200949A0
:1047800008706078094908700AE00520054908703A
:1047900060780749087003E006A001F07BFD00BFC8
:1047A00000BF70BD084000200B40002009400020E1
:1047B0000A400020556E6B6E6F776E20636F6D6DD3
:1047C000616E6421210D0A0070B5002003F01EF90E
:1047D000044600BF25463DB100BF13A24FF49571BA
:1047E000284602F061F900BF00BF03F065F80446F7
:1047F00000BF25463DB100BF0BA24FF4977128467C
:1048000002F052F900BF00BF32DF044600BF254668
:104810003DB100BF04A24FF49971284602F044F95B
:1048200000BF00BF70BD00002E2E5C2E2E5C2E2E11
:104830005C6D61696E2E63002DE9F04106460D4600
:1048400017461C462246294602A001F023FDBDE87A
:10485000F08100002573202D2025730D0A00000033
:1048600070B50546287820B1012841D0022848D1EA
:1048700035E02549254A1278881802F029FA23489C
:104880000078401C2149087008460078401E1E49E7
:10489000085C0A2805D01D4800781D49098888420F
:1048A0001CDB00BF1948027817491A4802F024FFA0
:1048B0000446082C0DD0112C0BD000BF26463EB16B
:1048C00000BF15A240F28121304602F0EDF800BF92
:1048D00000BF112CE6D000200C49087012E000BF88
:1048E0000DA240F28A21686802F0DEF800BF09E0FC
:1048F00000BF09A240F28E21686802F0D5F800BF1F
:1049000000E000BF00BF70BD1445002074400020CF
:1049100006400020704300202E2E5C2E2E5C2E2E92
:104920005C6D61696E2E630070B50546287878B9B4
:104930003B210848008876DF044600BF264636B192
:1049400000BF05A2FD21304602F0AEF800BF00BF57
:1049500070BD0000004000202E2E5C2E2E5C2E2EFE
:104960005C6D61696E2E630010B5044600BF04A241
:104970004FF48471204602F097F800BF10BD00008C
:104980002E2E5C2E2E5C2E2E5C6D61696E2E6300C9
:1049900070B5002005F0C0F8044600BF25463DB1C3
:1049A00000BF04A240F2E921284602F07DF800BFD2
:1049B00000BF70BD2E2E5C2E2E5C2E2E5C6D6169AC
:1049C0006E2E630070B51149114804F049FA04468F
:1049D00000BF25463DB100BF0EA240F23721284658
:1049E00002F062F800BF00BF4021094804F0FEF960
:1049F000044600BF25463DB100BF06A240F23A2161
:104A0000284602F051F800BF00BF70BD7D4602008D
:104A1000944300202E2E5C2E2E5C2E2E5C6D616940
:104A20006E2E630030B58BB00820059006200690EE
:104A3000052007900720089000208DF824008DF8AD
:104A4000250011480A9000BF104801904FF4807073
:104A500002900F4803904FF48070049007230D4A92
:104A600001A905A802F07EF9044600BF00BF254653
:104A70003DB100BF08A240F2AD21284602F014F873
:104A800000BF00BF0BB030BD00E0D70108460020DA
:104A900008470020614802002E2E5C2E2E5C2E2E30
:104AA0005C6D61696E2E63002DE9F047044688460F
:104AB0009146206810B90020BDE8F087606808B111
:104AC0000020F9E72068484501D9484600E0206801
:104AD00005462068401B2060002617E0A81BFF2821
:104AE00001D9FF2000E0A81B07463A4641460C4882
:104AF000006801F0D0F90A49086800BF00BF00BF94
:104B0000417D0029FBD100BFB8443E44AE42E5D30D
:104B1000206818B90248006801F0B7FA2846CBE7C8
:104B20009C41002070B505460C46082C07D8E1B220
:104B30000348006801F050FA6420FFF70EFB70BDD7
:104B40009C4100200146086870470000F8B5044603
:104B50000E461546606800282DD06068A84207D22E
:104B600015A0002318A2032100901B4800F0BEFAF4
:104B70006068401B60602068401B20606068A0B1D6
:104B80006068FF2801D9FF2000E0606802461348F2
:104B9000A168006801F07FF9D4E90101FF2801D97B
:104BA000FF2000E060680844A060206818B90B4846
:104BB000006801F06AFAF8BD496E7465726E616C46
:104BC000206572726F7221004172647563616D4D70
:104BD000696E69324D500000E04E00209C4100207B
:104BE00038B50446206810BB1548006801F023F969
:104BF0001348006801F0A2F91148006801F056F965
:104C000000BF082241210E48006801F087FA002801
:104C1000F7D00B48006801F0C1F92060084800682F
:104C200001F02CFA0648006801F063F907E005A0DE
:104C300000230BA203210090114800F057FA38BD61
:104C40009C4100204C6173742063617074757265BF
:104C5000206E6F742072656164206F75742100008E
:104C60004152445543414D3A207374617274536903
:104C70006E676C6543617074757265282900000069
:104C8000E04E002070B586B00446802001F0EEFAB8
:104C90000546D4E90323D4E90510CDE90023CDE985
:104CA000021005212846D4E9073201F0AEFA054684
:104CB0003248056032A0002335A2194600903648DC
:104CC00000F014FA2D4A3548116800BF886200BF11
:104CD00000BF552200212948006801F08BFA00210D
:104CE0002648006801F045FA0646552E09D02CA04A
:104CF000002327A203210090274800F0F7F900BF06
:104D0000FEE70122FF211D48006801F0FBF805AA1B
:104D10000A211A48006801F0D1F804AA0B211748AB
:104D2000006801F0CBF89DF81400262803D19DF807
:104D30001000422808D022A0002315A203210090D1
:104D4000154800F0D3F907E025A0002310A219466A
:104D50000090114800F0CAF901210848006801F0EC
:104D600072F80648006801F097F90A20FFF7F5F994
:104D70000248006801F0E2F806B070BD9C410020D6
:104D800043616D65726120537461727400000000AC
:104D90004152445543414D00E04E0020D1400200B5
:104DA00053504920696E74657266616365206E6F49
:104DB0006E20726573706F6E736976650000000017
:104DC00054574920696E74657266616365206E6F21
:104DD0006E20726573706F6E7369766500000000F7
:104DE0004F5632363430206D6F64756C65206465C3
:104DF00074656374656400000021016041600149CD
:104E000008607047A041002038B50446206820287B
:104E100001D2012038BD05A000230CA2032100907F
:104E20000D4800F063F90020F4E7000050504920DD
:104E30006368616E6E656C206E6F74206F70656E56
:104E4000206F7220696E76616C696400505049432E
:104E500068616E6E656C0000E04E002070B504461F
:104E60000E461546204600F00FF82046FFF7CCFF0F
:104E700038B10448216840F83160216800EBC10076
:104E8000456070BD10F5014038B50446074800F094
:104E900059F920602068202807D305A000230AA222
:104EA00003210090014800F021F938BDE04E0020B8
:104EB0004E6F206672656520505049206368616EB0
:104EC0006E656C73000000005050494368616E6E5F
:104ED000656C3A206F70656E0000000010B50446E6
:104EE0002046FFF791FF20B1217801208840014939
:104EF000086010BD04F5014010B504462046FFF7D8
:104F000083FF20B12178012088400149086010BD4D
:104F100008F501404FF0FF310160704770B504465D
:104F20000D46256005F01F010120884060604FF0AC
:104F3000A040A0602946024800F098F870BD00002B
:104F4000E04E002070B504460D4629462046FFF786
:104F5000E5FF204670BD4FF0FF3101600021416048
:104F6000704770B504460D4629462046FFF7D6FF28
:104F7000D4E90101C1F81C0570BD70B504460D46A9
:104F800029462046FFF7DEFF044629462046FFF764
:104F9000E8FF204670BD70B504460D46164629460A
:104FA0002046FFF7EAFF04462673207B08B1032062
:104FB00000E00120002141EA8001A06800F5E060E6
:104FC00040F82510204670BDD0E90112C2F80C153A
:104FD0007047D0E90112C2F80815704770B5044651
:104FE0000D4629462046FFF799FFD4E90101C1F893
:104FF000180570BD00B502461046FFF7ACFF02462B
:10500000104600BD70B506460D4600240CE0084869
:1050100050F82400A84206D1064850F82410304623
:1050200000F0C3F870BD641C032CF0DB00BFF9E78F
:10503000EC420020F842002070B506460D460024E0
:105040000CE0084850F82400A84206D1064850F861
:105050002410304600F0A9F870BD641C022CF0DB6F
:1050600000BFF9E71C4300202443002030B589B07D
:1050700005460C46610905F1140050F8210004F0C2
:105080001F0201219140084078B104F01F0362091A
:105090000EA101A801F026F901A8002311A2022106
:1050A0000090284600F022F80EE0610905F1140096
:1050B00050F8210004F01F020121914008436209C9
:1050C00005F1140141F8220009B030BD436F6E664E
:1050D0006C696374696E672070696E205025692E53
:1050E0002569000053797374656D00002DE9F04166
:1050F00004460D4617469846069E207FA8421FDCB0
:1051000084F820506762C4F828803046FEF7F0F833
:10511000402802D9002086F83F00314604F12C00D7
:10512000FEF7EDF804F16C0006F083F828B904F1FD
:10513000200104F16C0006F056F8204600F01AF841
:10514000BDE8F081014600200FE0012383400A689A
:105150001A404AB90122824092B22AB10122824009
:105160000B6813430B607047401C2028EDDB4FF0A9
:10517000FF30F8E730B593B00446A06998B10CE071
:10518000694604F16C0006F011F89DF80000DDE9B5
:10519000011203ABA569A84700BF04F16C0006F03B
:1051A00055F80028ECD013B030BD10B54B09021DE6
:1051B00052F8232001F01F040123A3409A434C0915
:1051C000031D43F8242010BD2DE9F04104460D468F
:1051D00017461E46052C1BD2DFE804F003040B1211
:1051E000130016E033462A460BA1032004F07DFC91
:1051F0000FE033462A460CA1022004F076FC08E0BA
:1052000000BF33462A460DA1012004F06EFC00E0E9
:1052100000BF00BFBDE8F0813A494E464F3A2573C2
:10522000202D2025730D0A003A5741524E494E4712
:105230003A2573202D2025730D0A00003A4552525D
:105240004F523A2573202D2025730D0A00000000CF
:1052500010B502464B09101D50F8230001F01F0441
:105260000123A3401840C8B94B0902F10C0050F8C3
:10527000230001F01F040123A340184070B94B091B
:10528000101D50F8230001F01F040123A340184310
:105290004C09131D43F82400012010BD0020FCE739
:1052A00010B54B0900F1140252F8232001F01F043D
:1052B0000123A3409A434C0900F1140343F824202E
:1052C00010BD000070B506460D4600240CE00848ED
:1052D00050F824103046FFF7BBFF20B12C60054882
:1052E00050F8240070BD641C032CF0DB0020F9E7AB
:1052F000F8420020EC42002070B506460D4600241E
:105300000CE0084850F824103046FFF7A1FF20B108
:105310002C60054850F8240070BD641C022CF0DBA2
:105320000020F9E7244300201C43002010B5044668
:1053300004F16C0005F09DFFA0F16C0401202077C2
:105340000020A061206000BF07E00022211D41F87D
:105350002020083141F82020401C0228F5DB0448B9
:10536000A061E06840F00400E060204610BD00004D
:10537000C951020010B5044694F83010012088404D
:105380000449086004F10C00FFF71EFE0120A07222
:1053900010BD00000C05005010B5044604F10C00CF
:1053A000FFF717FE0020A07210BD10B5044620685C
:1053B000D0F81801A0B100202168C1F81801A07A26
:1053C00018B904F10C00FFF704FE00206072E069D8
:1053D00030B12368D3F83C15D3F84C05E269904707
:1053E00010BD000070B504460D4617480570A07A40
:1053F00038B304F11800FFF771FD00BF607A002890
:10540000FCD10120607210482168C1F844050121D7
:105410002068C0F848150D482168C1F834050121FD
:105420002068C0F8381501202168086100BF607A43
:105430000028FCD104F11800FFF75EFD0348007856
:1054400070BD0020FCE70000CD420020CE420020CD
:1054500038B50446207A40B14FA0002354A203215E
:1054600000905648FFF742FE94E0211D5348FFF795
:1054700029FF206000287BD001202072504851492C
:10548000086000BF5049606841F820402268606AA7
:10549000C2F8080501464948FFF7E8FDA26A2068FE
:1054A000C0F80C2511464548FFF7E0FDE26A206888
:1054B000C0F8102511464148FFF7D8FD04F10C0053
:1054C000216BFFF78BFD206800F114023F4904F1C6
:1054D0001800FFF7C3FC2068D0F80805012141EA55
:1054E000002040F440313A4801602168206AC1F848
:1054F000240594F83500400094F8341040EA810007
:1055000094F8361008432168C1F8540540202168FA
:10551000C1F8040300202168C1F818012D4B62680E
:1055200013F8222050B20721002807DA4A07150E87
:10553000294A00F00F031B1FD55403E04A07130E3E
:10554000264A135400BF234A616812F8211048B25A
:1055500000F01F02012191404209920002F1E02275
:10556000C2F8001100BF07202168C1F8000500E063
:1055700008E01BA0002322A2194600900F48FFF765
:10558000B5FD07E020A0002309A2032100900B48ED
:10559000FFF7ACFD38BD0000496E7465726661634B
:1055A0006520616C7265616479206F70656E0000C2
:1055B0005350494D3A204F70656E0000E04E002078
:1055C00025570200D4420020544E002008610040BC
:1055D000186500408042002018ED00E000E400E083
:1055E000537069206D617374657220696E746572A1
:1055F0006661636520637265617465640000000024
:105600005350494D000000004E6F20706572697064
:10561000686572616C2066726565000038B5044685
:10562000207A002848D000BF607A0028FCD1274AA1
:10563000616812F8211048B200F01F020121914068
:10564000234A430942F8231000BF204A616812F838
:10565000211048B200F01F02012191401D4A430968
:1056600042F8231000BF1C482168FFF7CBFC002044
:105670001A4A616842F821002068D0F808151648D7
:10568000FFF70EFE2068D0F80C151348FFF708FE50
:105690002068D0F810151048FFF702FE0E48216B65
:1056A000FFF7FEFD002020720DA0002313A2194673
:1056B00000900948FFF71AFD12A0002316A203214B
:1056C00000900548FFF712FD38BD00008042002021
:1056D00080E100E080E200E0E04E0020544E002037
:1056E000537069206D617374657220696E746572A0
:1056F0006661636520636C6F736564005350494D48
:1057000000000000496E74657266616365206E6F0B
:1057100074206F70656E00005350494D3A20436C01
:105720006F73650010B50446032C08D2044850F886
:10573000240020B1024951F82400FFF736FE10BDC5
:10574000544E0020F8B504460E461546FF2D08D9E4
:1057500022A0002328A2032100902B48FFF7C6FCBB
:10576000F8BD207A78B3012D03D104F11800FFF7BA
:10577000B5FB00E020BF607A0028FBD101206072F9
:1057800022482168C1F8440501212068C0F8481565
:105790002068C0F834652068C0F83855A07A18B978
:1057A00004F10C00FFF710FC01202168086194F857
:1057B000370018B100BF607A0028FCD104F118004E
:1057C000FFF79AFB08E0FFE711A000230AA20321DC
:1057D00000900D48FFF78AFC00BFC1E75472616E6C
:1057E00073616374696F6E206C656E6774682065A1
:1057F00078636565646564005350494D3A2052658D
:105800006365697665000000E04E0020CC42002010
:10581000496E74657266616365206E6F74206F7087
:10582000656E0000F8B504460E4617461D46FF2D6E
:1058300008D921A0002327A2032100902948FFF7BF
:1058400055FCF8BD207A68B3012D03D104F118008E
:10585000FFF744FB00E020BF607A0028FBD1012065
:1058600060722068C0F844652068C0F84855206818
:10587000C0F834752068C0F83855A07A18B904F11A
:105880000C00FFF7A1FB01202168086194F83700A4
:1058900018B100BF607A0028FCD104F11800FFF7AE
:1058A0002BFB07E010A000230AA2032100900D4863
:1058B000FFF71CFC00BFC4E75472616E7361637430
:1058C000696F6E206C656E677468206578636565C6
:1058D000646564005350494D3A205472616E73669A
:1058E00065720000E04E0020496E74657266616367
:1058F00065206E6F74206F70656E0000F8B5044609
:105900000E461546FF2D08D91DA0002323A2032112
:1059100000902648FFF7EAFBF8BD207A30B300E09C
:1059200020BF607A0028FBD1012060722068C0F897
:1059300044652068C0F8485500202168C1F8340546
:1059400000212068C0F83815A07A18B904F10C00BD
:10595000FFF73AFB01202168086194F8370068B12D
:1059600000E020BF607A0028FBD107E010A00023F0
:105970000AA2032100900D48FFF7B8FB00BFCBE758
:105980005472616E73616374696F6E206C656E67CB
:105990007468206578636565646564005350494D9B
:1059A0003A205472616E736D69740000E04E0020FD
:1059B000496E74657266616365206E6F74206F70E6
:1059C000656E000010B5044604F10C00FFF712FBF1
:1059D000A0F10C0404F11800FFF79CFAA0F11804E0
:1059E000002020726072A072012084F837001A2013
:1059F00060621B20A0621C20E0621D2020634FF02B
:105A000080502062002084F8340084F8350084F847
:105A10003600E061204610BD70B504462068D0F81D
:105A2000040188B100202168C1F804016072E069B6
:105A300050B12668D6F83C35D6F83425D6F84C1542
:105A4000D6F84405E569A8472068D0F8240170B16C
:105A500000202168C1F824012068D0F8C404E06067
:105A600000206072206A10B1216AE068884770BD2A
:105A7000014600BF487A0028FCD1C8687047000082
:105A8000F8B504460D461646207A38B300E020BF2C
:105A9000607A0028FBD1012060720020E06021685C
:105AA000A069C1F888052068C0F844552068C0F88E
:105AB000486500202168C1F8340500212068C0F83D
:105AC00038154FF400702168C1F80002801C21686D
:105AD000C1F8040301202168886007E004A00023C6
:105AE00008A2032100900B48FFF700FBF8BD00005F
:105AF000496E74657266616365206E6F74206F70A5
:105B0000656E00005457494D3A205472616E7366B9
:105B100065720000E04E002038B50446207A40B19E
:105B200038A000233DA2032100903F48FFF7DEFA92
:105B300066E0211D3C48FFF7DFFB2060002857D0BE
:105B40000120207239483A49086000BF394960682D
:105B500041F8204022692068C0F80C2511463248DF
:105B6000FFF784FA22686069C2F8080501462E48EA
:105B7000FFF77CFA4FF0CC702168C1F824050020B3
:105B80002168C1F824012168C1F804012A4B626828
:105B900013F8222050B20721002807DA4A07150E11
:105BA000264A00F00F031B1FD55403E04A07130ECB
:105BB000234A135400BF204A616812F8211048B2EA
:105BC00000F01F02012191404209920002F1E022FF
:105BD000C2F8001100BF06202168C1F8000519A015
:105BE00000230EA2194600900F48FFF77FFA07E046
:105BF0001CA0002309A2032100900B48FFF776FAAE
:105C000038BD0000496E7465726661636520616C21
:105C10007265616479206F70656E00005457494D5C
:105C20003A204F70656E0000E04E0020FD5D0200DE
:105C3000DC420020044200204C42002018ED00E02D
:105C400000E400E0545749206D6173746572206967
:105C50006E74657266616365206372656174656404
:105C6000000000004E6F2070657269706865726197
:105C70006C206672656500002DE9F84304460D4608
:105C800016461F46DDF82080207A30B300E020BFA2
:105C9000607A0028FBD1012060720020E06021685A
:105CA000A069C1F888052068C0F844552068C0F88C
:105CB00048652068C0F834752068C0F838854FF40E
:105CC00084502168C1F8000240F202202168C1F826
:105CD000040301202168886007E005A0002309A2D1
:105CE000032100900B48FFF701FABDE8F88300009C
:105CF000496E74657266616365206E6F74206F70A3
:105D0000656E00005457494D3A205472616E7366B7
:105D100065720000E04E002038B50446207A002865
:105D20003FD000BF607A0028FCD1224A616812F897
:105D3000211048B200F01F02012191401E4A430980
:105D400042F8231000BF1B4A616812F8211048B2C4
:105D500000F01F0201219140184A430942F8231024
:105D600000BF17482168FFF767F90020154A6168EE
:105D700042F821002068D0F80C151148FFF790FA7E
:105D80002068D0F808150E48FFF78AFA0020207224
:105D90000DA0002311A2194600900948FFF7A6F9AB
:105DA00007E011A000230DA2032100900448FFF793
:105DB0009DF938BD4C42002080E100E080E200E027
:105DC000E04E002004420020496E746572666163F3
:105DD0006520636C6F736564000000005457494D83
:105DE0003A20436C6F736500496E74657266616337
:105DF00065206E6F74206F70656E000010B50446EC
:105E0000022C08D2044850F8240020B1024951F86D
:105E10002400FFF701FE10BD0442002000210172A2
:105E2000417202210161032141610121816100214F
:105E3000C1610162704710B5044601220421204669
:105E400000F0D8F910BD11B90022027201E0012260
:105E50000272704710B50446A16EE163E16E6163A2
:105E6000216FA163616F21634FF08041E1620021E6
:105E700084F8431004F10C00FFF7EAFA04F10C0077
:105E8000FFF7CCFBA16F6165E16FA16504F14400F0
:105E9000FFF742FE10BD70B504460D461646324669
:105EA000294604F10C00FFF74DFC70BD10B5044607
:105EB00002220421204600F09DF910BD37B582B0C2
:105EC000044615460021204600F078F901202B46B3
:105ED000024603A9009004F14400FFF7CDFE04F14F
:105EE0004400FFF7C5FD0120FEF72EF9012005B0A3
:105EF00030BD10B504463C2104F10C00FFF772FAE6
:105F000010BD000070B504460D461646002120461F
:105F100000F054F908490D704E70022204F144005B
:105F2000FFF7AEFD04F14400FFF7A2FD0120FEF7EC
:105F30000BF9012070BD00008C41002010B5044613
:105F400001220421204600F055F910BD2DE9F04151
:105F500080460D46002600272C460FE02078617809
:105F600000EB012086B2A178E07801EB002087B237
:105F70003A4631464046FFF7C5FF241DFF2E01D0AB
:105F8000012000E00020FF2F01D0012100E00021CE
:105F900008430028E2D10120BDE8F0812DE9F0415D
:105FA00004464FF000084221204600F0E2F8054682
:105FB0004321204600F0DDF806464421204600F04B
:105FC000D8F800F07F07380440EA062040EA0508C8
:105FD0004046BDE8F081000070B505460C46092C2E
:105FE00033D2DFE804F0050A0F14191E23282D0010
:105FF00019492846FFF7AAFF2CE018492846FFF761
:10600000A5FF27E016492846FFF7A0FF22E0154923
:106010002846FFF79BFF1DE013492846FFF796FF30
:1060200018E012492846FFF791FF13E0104928466F
:10603000FFF78CFF0EE00F492846FFF787FF09E0C6
:106040000D492846FFF782FF04E005492846FFF77F
:106050007DFF00BF00BF70BDA4B9020044BA0200BA
:10606000E4BA020084BB020024BC0200C8BC0200E7
:106070006CBD020008BE0200ACBE020010B50446B2
:1060800004F10C00FFF776F910BD10B5044604F1D9
:106090000C00FFF781F910BD10B50446607A0528A1
:1060A0002FD10122FF212046FFF72CFF8022122151
:1060B0002046FFF727FF6420FEF746F8207A0128E4
:1060C0001AD111492046FFF741FF10492046FFF73A
:1060D0003DFF0F492046FFF739FF0122FF212046EF
:1060E000FFF710FF002215212046FFF70BFF09499B
:1060F0002046FFF72BFF03E007492046FFF726FF66
:1061000000E000BF00BF10BD5CB6020058B902003D
:1061100080B90200E4BA020054B302002DE9F04154
:1061200006460F4614463946304600F022F805462A
:1061300025402846BDE8F0817CB504460D46002088
:106140000190E8B28DF8040000260121204600F0FD
:1061500035F802236A4601A904F10C00FFF762FB3F
:1061600000BF00BF607D0028FBD19DF80160304674
:106170007CBD70B505460C4604F07F012846FFF74C
:10618000DBFF0646304670BD70B504460D46164628
:106190000121204600F012F807490D704E700222CE
:1061A00004F10C00FFF7AAFB00BF00BF607D0028D0
:1061B000FBD1012070BD00008E41002070B5044667
:1061C0000D4600BF207DA84200D170BD45B104F14D
:1061D0004400FFF7A1FD04F10C00FFF739F907E0D7
:1061E00004F10C00FFF71AFA04F14400FFF794FCE5
:1061F00000BFEAE770B505460C46164644F080013C
:1062000032462846FFF7C0FF70BD2DE9F05F044617
:106210000D4616461F46DDE90CABDDE90A8904F19F
:106220000C00FFF7CFFBA0F10C0404F14400FFF7D2
:10623000F5FDA0F14404E667A767C4F86880C4F8D8
:106240006C90C4F870A0C4F874B02046FFF702FE4A
:106250006572607A052802D13021E16502E04221B1
:10626000E16500BF00BF2046BDE8F09F10B5040007
:1062700007D1012405E0FDF77DF8006800B9044866
:106280008047204602F0C6FC0028F4D010BD000074
:10629000313302000FB4054B10B503A9044A02982C
:1062A00000F07CF810BC5DF814FB0000AB84020029
:1062B000084100200FB41CB50246002007AC00299D
:1062C0000BD0491ECDE90021054B6A4621460698B0
:1062D00000F064F8009A002111701CBC5DF814FBFA
:1062E000FF6702000FB4084B10B504A902AA039877
:1062F00000F054F8044602A9002000F08BFA204672
:1063000010BC5DF814FB00001568020002E008C82C
:10631000121F08C1002AFAD170477047002001E01F
:1063200001C1121F002AFBD170470000014620293D
:1063300008DA012088400A4A104008B1012070475D
:106340000020FCE7402909DAA1F12000012202FA2D
:1063500000F008B10120F2E70020F0E70120EEE7AD
:10636000FC06FFBD00BFEFF31081084672B6704710
:1063700010B50248FEF7DAFF10BD0000E04E002025
:1063800010B50448FEF738FD01220D210248FEF742
:1063900002FE10BDB0430020D44300202DE9FF4F82
:1063A0008DB00F460546002606E025280BD0DDE916
:1063B0000F1290476D1C761C28780028F5D111B07B
:1063C0003046BDE8F08F0024A246A1460122EC49E8
:1063D00000E0044315F8013F203B02FA03F00842B5
:1063E000F7D128782A2810D06FF02F022878A0F152
:1063F0003001092914D80AEB8A0102EB410144F06B
:10640000020400EB010A6D1CF0E701CF5FEA000A0D
:1064100003D544F40054CAF1000A44F002046D1C90
:1064200028782E2817D115F8010F44F004042A28E3
:106430000ED06FF02F022878A0F1300109290AD878
:1064400009EB890102EB410100EB01096D1CF2E748
:1064500057F8049B6D1C28786C280FD006DC4C285C
:1064600017D068280DD06A2814D104E0742810D001
:106470007A280FD10DE044F400140AE044F48014AB
:1064800001E044F440146978814202D104F580149B
:106490006D1C6D1C2A786E2A1FD00CDC632A31D04B
:1064A00004DC002A8BD0582A11D1A3E0642A68D0DA
:1064B000692A0CD165E0732A2ED004DC6F2A73D0D0
:1064C000702A04D19BE0752A6FD0782A6ED01046CE
:1064D000DDE90F129047761C50E1C4F30250022808
:1064E00006D0032809D0042801CF09D0066045E171
:1064F00001CFF117C0E9006140E101CF06803DE125
:1065000006703BE117F8040B8DF8000000208DF8B1
:106510000100EB46012003E057F804BB4FF0FF30C9
:1065200061074FF0000102D40DE008F10101884637
:1065300049450FDA8045F8DB1BF808100029F4D133
:1065400008E008F1010188468142FADB1BF80810D7
:106550000029F6D1DDE90F23AAEB08008146214688
:1065600000F036F9304400EB080604E0DDE90F12D4
:106570001BF8010B9047B8F10108F7D221464846B5
:10658000F7E00A21C4F302534FF0000B0891022BED
:1065900004D001CFC117032B09D00AE0FF1D27F05B
:1065A0000707F7E8020108E032E01FE020E000B250
:1065B000C117042B01D140B2C117031E71F10003B2
:1065C00007DA4FF0000CD0EB0C006CEB01012D232F
:1065D00002E0230504D52B238DF82430012303E0AA
:1065E000E30701D02023F7E7984658E00A2110E09E
:1065F00010210EE010204FF0000B08900CE010214D
:106600004FF0000B44F004044FF00809089103E038
:1066100008214FF0000B0891C4F30253022B04D061
:1066200001CF0021032B06D006E0FF1D27F007074E
:10663000F7E8020103E080B2042B00D1C0B24FF0B2
:10664000000823072BD5702A07D0DDF820C08CF076
:10665000100C5CEA0B0C05D00EE040238DF82430C2
:10666000012308E050EA010306D030238DF82430DE
:106670008DF8252002239846DDF820C08CF0080C08
:106680005CEA0B0C0BD150EA010301D1630706D57C
:1066900030238DF824304FF00108A9F10109582A60
:1066A00004D038A20B9208AA0A920BE03AA2F9E7AA
:1066B0005B46089AFCF7C2FD0B9B9B5C0A9A521E34
:1066C0000A92137050EA0102F2D10A98ADEB000071
:1066D00000F1200B600702D524F4803401E04FF074
:1066E0000109D94502DDA9EB0B0000E0002000EB19
:1066F0000B0141440890AAEB010AE00306D4DDE94E
:106700000F232146504600F063F806444FF000097D
:1067100008E009A911F80900DDE90F12904709F115
:106720000109761CC145F4DBE0030CD5DDE90F233C
:106730002146504600F04CF8064404E0DDE90F1213
:1067400030209047761C0899481E08900029F5DCF7
:1067500008E00A980A990078491C0A91DDE90F12AD
:106760009047761CBBF10001ABF1010BF1DC214637
:106770005046DDE90F2300F019F806446D1C1BE6B6
:106780000928010030313233343536373839616207
:1067900063646566000000003031323334353637CB
:1067A0003839414243444546000000002DE9F0419C
:1067B000044600251E461746880404D405E03946E1
:1067C0002020B0476D1C641EF9D52846BDE8F08135
:1067D0002DE9F041044600251E469046C80301D528
:1067E000302700E02027880404D505E041463846DC
:1067F000B0476D1C641EF9D52846BDE8F0814A6893
:10680000002A06D00A68531C0B6010704868401EAE
:10681000486070470A68531C0B601070704702464E
:10682000002104E0505C08B101207047491C062992
:10683000F8D30020F9E72DE9FC41044688461646C6
:10684000002537880020308094F82D0058B13A4652
:106850003146404600F017FE054600BF15B12846F8
:10686000BDE8FC8100BFA07850B13A4631464046B1
:1068700000F036FB054600BF0DB12846F0E700BF2B
:10688000E07860B1E17848B23B463246414601F0DB
:10689000E7FD054600BF0DB12846E1E700BF60688F
:1068A00068B1616891F900003B463246414604F008
:1068B000BBF9054600BF0DB12846D1E700BF2089CE
:1068C00000280EDD43460622022104F10800CDE92E
:1068D000006704F0CFFB054600BF0DB12846BFE7B7
:1068E00000BF208A00280EDD43460722032104F161
:1068F0001000CDE9006704F0BDFB054600BF0DB1F7
:106900002846ADE700BF208B00280EDD4346152248
:10691000142104F11800CDE9006704F0ABFB054633
:1069200000BF0DB128469BE700BF206A58B13B4627
:1069300032464146206A01F000FB054600BF0DB11A
:1069400028468DE700BF606A58B13B463246414653
:10695000606A02F095F9054600BF0DB128467FE751
:1069600000BF94F82C0000280BDD3B463246414620
:10697000204603F059FD054600BF0DB128466FE7DC
:1069800000BF207858B13B4632464146204602F0CF
:10699000B2F9054600BF0DB1284661E700BF2846A1
:1069A0005EE7000070B504461448FFF738FF05465F
:1069B000012C06D0022C0BD0032C10D0042C1AD1A1
:1069C00013E00F48407810B10DB1012070BD00BF39
:1069D0000B48807810B10DB10220F7E700BF0848DE
:1069E000C07808B10320F1E700BF0548007908B17D
:1069F0000420EBE700BF0020E8E700009E400020F5
:106A0000744800200146481C052290FBF2F302FB6B
:106A10001300C0B270470146C87800F0040008B9FE
:106A2000072070470020FCE710B50122022100205A
:106A300000F0BEFF044600BF1CB1072C01D0204669
:106A400010BD00BF07220221012000F0B1FF044663
:106A500000BF1CB1072C01D02046F1E700BF0A227D
:106A60000021084600F0A4FF044600BF1CB1072C1B
:106A700001D02046E4E700BF0020E1E770B50446FE
:106A80000D46164604A1012003F019F832462946A6
:106A9000204600F019F870BD3A4552524F523A461E
:106AA0006174616C0D0A0000FEB504460E46154681
:106AB000B0B2ADF80000019502946A46002144F29C
:106AC0000100FFF7DBFFFEBD18B5012300939DF821
:106AD00000301E4B186059609A606FF48043034485
:106AE00063B1012B19D1194BDA60DB681B88174C95
:106AF000A3612346DB685B68E3610EE0134B1A6118
:106B00001B699B68114C636123461B691B88A36149
:106B100023461B695B68E36100BF00BF0B4B1B682A
:106B20000A4B5B68094B9B68084BDB68074B1B698A
:106B3000064B5B69054B9B69044BDB6972B600BF72
:106B40009DF80030002BFBD162B618BDF049002043
:106B500070B504460D46204601F066FC28B1294672
:106B6000204601F055FC002070BD0520FCE70346DF
:106B700009B90E20704712B1501E104008B109200B
:106B8000F8E71960501E988000209860D86000BF18
:106B9000F0E770B504460D46204601F045FCA1889B
:106BA000884205D82946204601F051FC002070BDDE
:106BB0000420FCE710B503460C4600BF0B48807864
:106BC00008B9082010BD00BF0AB90720FAE70BB9C1
:106BD0000720F7E71868007C08B10820F2E7196879
:106BE000002008744C744A6100BFEBE7104A002093
:106BF00010B503F09BFA00200F49087048700B2075
:106C0000887000200D4908600D4908700D49087012
:106C10001420FCF76BFD07211420FCF7A1FD1420C4
:106C2000FCF77CFD002003F057FA03F04FFA064909
:106C30000860002010BD0000104A0020E440002041
:106C4000F4400020F5400020E84000202DE9F0410C
:106C500004460E461746254600BF1048807810B9F6
:106C60000820BDE8F08100BF0CB90820F9E7052E27
:106C700001D20720F5E7686908B90820F1E7687CC8
:106C8000012801D1304600E0002080463B464246C4
:106C90003146284603F048FEE3E70000104A002092
:106CA00070B50446254600BF0848807808B908201A
:106CB00070BD00BF0CB1686908B90820F8E7002072
:106CC00028740221284603F05EFEF1E7104A0020F6
:106CD0002DE9F04104461048077821460F48FFF798
:106CE00037FF8046A7B100200B49087001220C49EC
:106CF0000C4802F067FA054600BF2E4636B100BFC9
:106D000009A2D5213046FFF7CFFE00BF00BF00BF6C
:106D10004046BDE8F0810000064100201C4B0020E9
:106D200005410020F84000202E2E5C2E2E5C2E2ED9
:106D30005C2E2E5C2E2E5C2E2E5C636F6D706F6E43
:106D4000656E74735C6C69627261726965735C759F
:106D50006172745C6170705F756172745F666966A0
:106D60006F2E63002DE9F04188B004460D461746AA
:106D700098462E4807601DB9072008B0BDE8F0818D
:106D8000A88882B22A482968FFF7F1FE064600BFAC
:106D90000EB13046F1E700BFA88982B22548A96844
:106DA000FFF7E5FE064600BF0EB13046E5E700BF3F
:106DB000202221496846FCF777FA60690690207C1A
:106DC00008B1012000E000208DF814008DF81C802F
:106DD000607C08B10E2000E000208DF81500E0680E
:106DE0000290A06803902068019060680090134AA8
:106DF0006946134802F0A4F9064600BF0EB13046BA
:106E0000BBE700BF00200F4908702068401C58B144
:106E10009DF81D0010B90A4802F03EFA01220A4905
:106E2000074802F0CFF9A8E70020A6E700410020BC
:106E30001C4B00202C4B002034B3020061AC02003C
:106E4000F8400020064100200541002070B50446AE
:106E500021460B48FFF79DFE054675B9094802F02B
:106E6000B5FB50B908490648FFF772FE28B9012260
:106E70000549044802F0F4FA0546284670BD0000B2
:106E80002C4B0020F84000200441002010B504469F
:106E9000204603F071FA10BD70B5044625460E4831
:106EA0008068B0B1ADB9FFF75DFA06460A480068E0
:106EB0000A490860084840684FF0E021C1F8040121
:106EC0000020054988601EB900BF62B600BF00BF40
:106ED00000BF00BF70BD00003C4B002000E100E09F
:106EE000F8B505460C4617462088001DB84201D962
:106EF0000C20F8BD684679DF064600BF0EB130466B
:106F0000F7E700BF0320218868542088401C2080B8
:106F10001920218868542088401C2080208841192D
:106F2000BDF8000004F033F82188084420800020D8
:106F3000DFE7000070B505460C462068401C28B10C
:106F4000206802F0B0FB206802F06FFB6068401C14
:106F500018B10021606802F05BFB28792D4901EB34
:106F60004010007F50B32868A169C0F8241500BF05
:106F7000617D227D286841EA0203C0F86C3500BFBC
:106F8000D4E90012286802F035FE207D01283FD1A7
:106F9000A068401C18B10021A06802F039FBE0682D
:106FA000401C28B1E06802F07EFBE06802F03DFB87
:106FB000D4E90221286802F009FE29E02868A169C5
:106FC000C0F8241500BF617D227D286841EA0203D4
:106FD000C0F86C3500BFD4E90012286802F0DDFD6E
:106FE000207D012814D1A068401C18B10021A068A0
:106FF00002F00EFBE068401C28B1E06802F053FB91
:10700000E06802F012FBD4E90221286802F0AEFD2C
:1070100070BD0000D04900202DE9F04192B08046BB
:107020000D461F2011901090B8F1000F17D0404668
:10703000FFF7F1FC044600BF1CB1204612B0BDE8CA
:10704000F08100BF11AA08A94046FFF7F4FB0446EF
:1070500000BF0CB12046F1E700BF08AE02E00026F9
:1070600000201190ADB1284603F0A6FB044600BFF6
:107070000CB12046E2E700BF10AA69462846FFF798
:10708000DAFB044600BF0CB12046D7E700BF6F46CD
:1070900002E0002700201090BDF84000C3B2BDF808
:1070A0004400C1B23A46304672DFC7E70149087072
:1070B000704700009C4000202DE9F04704460F4631
:1070C00015461E46DDF8208004B115B90E20BDE836
:1070D000F0870120494908700020494908702022A2
:1070E00029464848FCF7E0F800204749087047481F
:1070F00006604748C0F800804FF6FF704549088099
:10710000454800210160818081713C214348FCF7A2
:10711000E4F8207841490870A0788870E078C87059
:10712000607848700846D4E90412C0E90412D4E932
:107130000212C0E90212D4E90612C0E90612606A1E
:10714000D8B137483549486236498160606A00885D
:107150003249496A0880606A80883049496A888073
:10716000002005E0616A8968095C2E4A1154401CC0
:107170002A49496A89888142F4D8A06A20B32A49F9
:107180002A4881602549886227492448806A8160AD
:10719000A06A80882149896A8880A06A00881F497E
:1071A000896A0880002005E0A16A8968095C1E4A96
:1071B0001154401C1949896A89888142F4D894F88D
:1071C0002C00164981F82C00206A58B11848134940
:1071D0000862206A4088096A4880206A00880F494E
:1071E000096A0880606810B10C49606848603946D7
:1071F0000A48FFF711FF8146484668E7984000209B
:107200009B400020744800209C400020AC4000209F
:10721000B0400020AA4000209D400020944800205B
:10722000D0480020DC48002008490020FC4800200D
:10723000A640002010B504462088102804D011284C
:1072400006D01B280CD107E0204602F007FD08E01D
:10725000204602F0C1FD04E0204602F057FE00E0A7
:1072600000BF00BF10BD00007FB505464E48007846
:1072700010B9082004B070BD4C48057001F00BF93E
:1072800020B101204A4908700020F3E74948002155
:107290000160818081714848407818B14348007886
:1072A00001280DD04448807818B140480078012862
:1072B00006D04148807888B13C48007802280DD13A
:1072C0003E48006838B101203D49087008203B491C
:1072D0000968884702E00020394908702846FFF70E
:1072E00061FB3249087035480068C0B10846007833
:1072F000032803D008460078042810D12E480078CF
:1073000068B13048007850B900202F49087001203A
:107310002E490870072029490968884702E00020A3
:107320002A490870002000900190029003908DF887
:1073300000008DF808001D48007805281CD2DFE801
:1073400000F01703080D1200684603F0B9F8044670
:1073500013E0684603F0C4F804460EE0684603F004
:10736000D5F8044609E0684603F000F9044604E055
:1073700000201749087000E000BF00BF0B480078EC
:1073800038B114480178684673DF04460CB12046D2
:1073900070E70A48006820B10D480078074909687D
:1073A0008847002066E70000984000209B400020AE
:1073B000994000209D40002074480020AC400020EF
:1073C000A4400020B4400020B6400020B54000207A
:1073D0009A4000209C40002070B505461C2229469A
:1073E0001248FBF761FF002011490870286850B16E
:1073F000104829680A680260496841607ADF0446DB
:107400003CB1204670BD0B487BDF04460CB12046E2
:10741000F8E74FF6FF700849088000200749087018
:10742000074A00210748FFF7C5FBEBE72849002082
:10743000CC400020B8400020C2400020C0400020C6
:107440009DAF0200C0B2020010B50446208810288B
:1074500006D0112808D012280ED0502810D107E0ED
:10746000204602F0DBFB0CE0204602F091FC08E035
:10747000204602F067FD04E0204602F0C3FB00E076
:1074800000BF00BF10BD2DE9FC4105460C46174664
:1074900020880930B84202D90C20BDE8FC8168463A
:1074A0006DDF064600BF0EB13046F6E700BF08208C
:1074B000218868542088401C20801B202188685423
:1074C0002088401C208020882844DDF801100160BD
:1074D000BDF8051081802088801D20809DF8000067
:1074E000400818B900202188685402E00120218852
:1074F00068542088401C20800020CEE730B587B03B
:1075000004460D4600BF14B90E2007B030BD00BFC1
:10751000A08B4FF6FF71884201D0E07F08B90820A8
:10752000F3E70720009002208DF814002868CDF8BA
:107530001500A888ADF81900002001900290039072
:107540000490A08AADF8040005A80490CDF80CD0F2
:1075500001208DF80600A08B01A9A6DFD5E730B584
:1075600087B004460D4600BF14B90E2007B030BDE9
:1075700000BFA08B4FF6FF71884201D0E07F08B9B1
:107580000820F3E70520009001208DF814002868FA
:10759000CDF8150000200190029003900490A08A7D
:1075A000ADF8040005A80490CDF80CD001208DF8AA
:1075B0000600A08B01A9A6DFD8E7000070B586B051
:1075C00004460E46264B0FCB01AD0FC500BF14B9C4
:1075D0000E2006B070BD00BF00BF0EB90E20F8E748
:1075E00000BF4FF6FF70A083306820620020A077B4
:1075F000214601A862DF054600BF0DB12846E8E735
:1076000000BF20788DF816000120ADF81400A21CF0
:1076100005A9A0DF054600BF0DB12846D9E700BF88
:107620003146204602F0CDFD054600BF0DB128468B
:10763000CFE700BF3146204603F04BFA054600BFB6
:107640000DB12846C5E700BF3146204600F042FF95
:10765000054600BF0DB12846BBE700BF0020B8E7D4
:10766000DCB2020070B505460C4605B104B970BD28
:107670002088102806D0112809D050280CD057286F
:1076800015D10EE02146284602F0E4FA10E021462A
:10769000284602F09DFB0BE02146284602F078FCCC
:1076A00006E00548006808B102F0BCFC00E000BF3D
:1076B00000BF00BFDBE70000D04000202DE9F04113
:1076C00004460E461546A08B4FF6FF71884201D046
:1076D000A07F10B90820BDE8F0810648006808B115
:1076E0001120F8E7AAB23146204600F005F8074617
:1076F0003846F0E7D040002037B584B004460D4648
:1077000000BF14B90E2007B030BD00BFA08B4FF6EC
:10771000FF71884201D0A07F08B90820F3E7BDF8C7
:107720001800F42801DD0720EDE70020009001900B
:1077300002900390A088ADF80000039506A802907F
:1077400001208DF80200A08B6946A6DFDBE770B54B
:107750000446204603F015FC054605F0010070BD07
:1077600001460148405C704790B2020010B50246E5
:107770000949885C00BF4FF0A0442146D1F8043588
:10778000012484409C43C1F80845012484401C40E6
:10779000C1F80C4500BF10BD8CB2020010B5044604
:1077A0000249085D012101F089FF10BD8CB2020081
:1077B00010B504460249085D002101F07FFF10BDAD
:1077C0008CB2020010B50146094B585C00BF4FF067
:1077D000A044234600BFD3F80445C44004F001048C
:1077E0000CB1012000E00020024682F0010010BD33
:1077F0008CB2020010B5002403E02046FFF7CEFF54
:10780000641C042CF9D310BD10B5002403E02046FD
:10781000FFF7CEFF641C042CF9D310BD02464FF0D5
:10782000FF30002106E0054B5B5C934201D1084626
:1078300002E0491C0429F6D300BF704790B2020051
:1078400070B505462888102802D011282CD115E0E3
:107850001748006860B900F0E7FB044600BF34B188
:107860001448006818B1204612490968884700BFCB
:107870000F480068401C0E49086016E00C4800687C
:10788000401E0B4908600846006860B9FFF7CCF855
:10789000044600BF34B10748006818B120460549C6
:1078A0000968884700BF00E000BF00BF70BD00004E
:1078B000944000209040002010B5002000F074FAA1
:1078C000044600BF1CB1062C01D0204610BD00BFED
:1078D000012000F069FA044600BF1CB1062C01D05B
:1078E0002046F3E700BF0020F0E700002DE9F0415B
:1078F00006460F464FF0000800243046FFF78EFF83
:107900000446042C3ED20FB3012F02D0022F38D1EF
:1079100030E004EB4400214911F8008004EB4400FE
:107920000844407850B11E4A4FF400411D48006899
:10793000FFF78CF905460DB91948067004EB4400B1
:10794000164908448078184908551AE01548006817
:10795000FFF7A6F91448005D04EB44010F4A1144F7
:107960008978884205D104EB44001146084490F818
:10797000028006E004EB44000849084490F80180C6
:1079800000BF00BFB8F1000F06D00848006818B16A
:107990004046064909688847BDE8F081484800200C
:1079A000884000209CB202008940002084400020D2
:1079B00030B503460020042B23D2012A07D1012928
:1079C00003D103F10E04E4B200E00024224679B1B1
:1079D000012902D0022911D104E003EB43040A4D2E
:1079E0002A550DE003EB4304074D2C44627007E079
:1079F00003EB4304044D2C44A27001E0072000BFB8
:107A000000E0072030BD00004848002070B5044663
:107A100000250548007800F0010018B1204600F06C
:107A200005F80546284670BD7C4000202DE9F0474A
:107A3000044600260025D748007820B10020D5490B
:107A4000087000F0A3FE182C79D2DFE804F00C11C6
:107A5000124579ADF1FFEEEDECEBEAE9E8E7E6E59A
:107A6000E4E3E2E1E0DF00F091FECB4804708DE159
:107A700000BF0020FFF7A6FE58B10020FFF78EFEE2
:107A8000022C02D14FF4E16001E04FF47A60054628
:107A900009E00020FFF78CFE022C01D1C82001E094
:107AA0004FF4C8700546BC4804704FF40040A5FB75
:107AB00000204FF4FA73D71840F100015A00002358
:107AC0003846FBF7BBFB814600224946B3480068B5
:107AD000FFF7BCF8064659E10020FFF773FE58B1E6
:107AE0000020FFF75BFE032C02D14FF4487001E049
:107AF0004FF47A60054609E00020FFF759FE032C99
:107B000001D1C82001E04FF4C8700546A2480470B6
:107B10004FF40040A5FB00204FF4FA73D71840F152
:107B200000015A0000233846FBF788FB81460022FB
:107B300049469A480068FFF789F8064626E124E19D
:107B40000020FFF73FFE58B10020FFF727FE042C6E
:107B500002D14FF47A6001E04FF47A6005460AE002
:107B60000020FFF725FE042C02D14FF4C87001E07D
:107B70004FF4C8700546884804704FF40040A5FBD8
:107B800000104FF4FA73CF1840F100015A0000239F
:107B90003846FBF753FB8146002249467F48006880
:107BA000FFF754F80646F1E00020FFF70BFE50B156
:107BB0000020FFF7F3FD052C01D1C82001E04FF4B0
:107BC0007A60054609E00020FFF7F2FD052C01D19F
:107BD000C82001E04FF4C87005466F4804704FF4A8
:107BE0000040A5FB00204FF4FA73D71840F10001C4
:107BF0005A0000233846FBF721FB81460022494604
:107C000066480068FFF722F80646BFE0B8E0B6E035
:107C1000AAE0A1E098E092E05FE05DE05BE059E07F
:107C200057E051E042E033E024E015E00EE0FFE7EA
:107C30000020FFF79BFD58480470002240F6CD411C
:107C400056480068FFF702F806469FE00020FFF75D
:107C5000AFFD5148047099E001204E490870FFF7CC
:107C600085FD002240F6CD414C480068FEF7EEFF4E
:107C700006468BE0012047490870FFF777FD002298
:107C80004FF4804145480068FEF7E0FF06467DE07E
:107C9000012040490870FFF769FD002240F6CD4100
:107CA0003E480068FEF7D2FF06466FE001203949E2
:107CB0000870FFF75BFD00224FF4804137480068F1
:107CC000FEF7C4FF064661E0FFF79EFD32480470F0
:107CD0005CE000BF00BF00BF00BF31480068FEF796
:107CE000DFFF0646C4F1110515B30EBB012D18D9EF
:107CF000A8B2C82148434FF4004180FB01304FF443
:107D0000FA729F1840F10001520000233846FBF739
:107D100095FA81460022494621480068FEF796FF01
:107D200006460220FFF744FD01201E49087005E0C9
:107D30000220FFF733FD00201A49087026E000F00A
:107D400025FD1548047021E000F020FD0020FFF71C
:107D50002FFD1148047019E000F018FD0120FFF715
:107D600027FD0D48047011E000F010FD0020FFF722
:107D70001FFD0120FFF71CFD0748047006E000BF4F
:107D8000FFF742FD0448047000E000BF00BF30462A
:107D9000BDE8F087794000207840002094B20200CE
:107DA00098B202008040002070B504462046FFF7DC
:107DB000D7FC0546032101F044FC002070BD0246BB
:107DC000002901DA002003E013680B44136001204E
:107DD000704730B502460B4602210EE08C0042FA95
:107DE00004F404F00F00092802DD00F1370401E07B
:107DF00000F13004C1F101055C550C1EA1F1010137
:107E0000ECD130BD0146024850F821007047000017
:107E1000784900200146014840567047A849002093
:107E200070B505460DB9094C01E0084C083409E06D
:107E3000204600F0A5FC064606B904E02846716815
:107E4000884700BFF4E700BF70BD00006C49002008
:107E50002DE9F04782461F480068002836D01D48AB
:107E60000068056802F032F907461B48046821469D
:107E7000384602F0A8FCC61C1848007808B902F081
:107E800037F9AE4201D2284600E03046044424F0DF
:107E90007F44204602F014F902F018F98046394672
:107EA000404602F090FC00F103093946204602F0FA
:107EB0008AFC814509D902F009F9814602F000F9EE
:107EC0002F2001F05BF802F0CBFD01E002F02EF96B
:107ED000BDE8F087E4400020E8400020F6400020A4
:107EE00001460888062808DB0888B0F5486F06DDDB
:107EF00008884FF6FF72904201D0072070474888EB
:107F0000062808DB4888B0F5486F06DD48884FF63C
:107F1000FF72904201D00720F0E708884FF6FF7209
:107F2000904208D04888904205D008884A889042FC
:107F300001DD0720E2E70020E0E72DE9F0410646F9
:107F40000D46144698462088801D404502D90C20D5
:107F5000BDE8F0813046FFF7C3FF074600BF0FB111
:107F60003846F5E700BF0520218868542088401C6A
:107F700020801220218868542088401C208022887C
:107F80005119308803F003F82188084420802288A2
:107F90005119708802F0FBFF2188084420800020DE
:107FA000D6E7000038B51B4800F0D8FB20BB1A48C4
:107FB000007848B119484069E8B10020009017489E
:107FC00041696846884716E01548007810B913489B
:107FD000456801E01148856800222946114800687B
:107FE000FEF734FE044634B10C48806918B10B48E2
:107FF00081692046884709E00848406930B101207E
:108000000090064841696846884700BF0020024941
:10801000087038BDC4400020CC4000202849002012
:10802000C0400020C0B2020010B501220021084665
:10803000FFF7BEFC044600BF1CB1072C01D0204650
:1080400010BD00BF072202210120FFF7B1FC04464A
:1080500000BF1CB1072C01D02046F1E700BF04226D
:1080600002210020FFF7A4FC044600BF1CB1072C2E
:1080700001D02046E4E700BF0020E1E77CB50446DC
:108080000D46002000900190A81D00EBC4008079EF
:10809000ADF80000A81D00EBC4008079ADF8020027
:1080A00000226946204690DF06462EB1334622461E
:1080B0000249012001F019FD7CBD0000ECC0020066
:1080C000014614480078144A127890421DD0114895
:1080D0000078401C0F4A107010460078022801D129
:1080E000002010700D480B4A127850F822000860EA
:1080F0000B4A086812681044094A1060104600686C
:1081000020F07F401060012070470020086000BF11
:10811000FAE70000F4400020F5400020EC40002089
:10812000E840002013480078062820D11148001D9F
:10813000007800F00F00D0B90E480830007800F049
:10814000F000302801D1012070470A48083000783B
:1081500000F0F000402801D10120F5E70548083083
:10816000007800F0F000502801D10120ECE7002059
:10817000EAE70000E00F00F013480078062820D15D
:108180001148001D007800F00F00D0B90E480830EB
:10819000007800F0F000302801D1012070470A4833
:1081A0000830007800F0F000402801D10120F5E708
:1081B00005480830007800F0F000502801D1012077
:1081C000ECE70020EAE70000E00F00F01348007839
:1081D000062820D11148001D007800F00F00D0B90A
:1081E0000E480830007800F0F000302801D101205E
:1081F00070470A480830007800F0F000402801D1AC
:108200000120F5E705480830007800F0F00050281C
:1082100001D10120ECE70020EAE70000E00F00F0C8
:108220000A48007806280ED10848001D007800F0A2
:108230000F0040B905480830007800F0F000302801
:1082400001D1012070470020FCE70000E00F00F0A2
:1082500013480078062820D11148001D007800F04E
:108260000F00D0B90E480830007800F0F000302838
:1082700001D1012070470A480830007800F0F00072
:10828000402801D10120F5E705480830007800F0CA
:10829000F000502801D10120ECE70020EAE70000BF
:1082A000E00F00F00A48007806280ED10848001DAB
:1082B000007800F00F0040B905480830007800F061
:1082C000F000302801D1012070470020FCE70000B9
:1082D000E00F00F013480078062820D11148001D57
:1082E000007800F00F00D0B90E480830007800F098
:1082F000F000302801D1012070470A48083000788A
:1083000000F0F000402801D10120F5E705480830D1
:10831000007800F0F000502801D10120ECE70020A7
:10832000EAE70000E00F00F00A48007806280ED1C6
:108330000848001D007800F00F0040B905480830DB
:10834000007800F0F000302801D1012070470020B3
:10835000FCE70000E00F00F00A48007806280ED184
:108360000848001D007800F00F0040B905480830AB
:10837000007800F0F000302801D101207047002083
:10838000FCE70000E00F00F00A48007806280ED154
:108390000848001D007800F00F0040B9054808307B
:1083A000007800F0F000502801D101207047002033
:1083B000FCE70000E00F00F0F0B5034600241FE0EA
:1083C000124E306806689E4203D90668F61A0660A7
:1083D0001AE006689B1B06683444002606600B4EB4
:1083E00035680A4FC6693E60C66846B10E1926F068
:1083F0007F464660C66886601668C661156000BF25
:10840000024800680028DBD100BFF0BDE440002036
:1084100070B504460D462A460021204600F00EF8AD
:10842000A068401CA06070BD01468A68C868801AB8
:10843000704701468A68C868801A704710B583681B
:108440000B44848823400468E35C137010BDC26849
:1084500083881A4003689954C268521CC2607047EE
:1084600030B504461088C01C984201D90C2030BD9C
:108470000220158848551088401C1080012015885E
:1084800048551088401C108015884C551088401C99
:1084900010800020EBE708B5684600F00FF8009860
:1084A00008B1012008BD0020FCE770B504460D4668
:1084B000E0B2FEF7CBFC204670BD0000014609B9D2
:1084C000032070470248406E08600020F9E7000072
:1084D000484B002030B58FB004460D460020079071
:1084E00000BF9DF81C0020F00F00401C8DF81C0000
:1084F0009DF81C0020F0F00010308DF81C0000BF2B
:1085000000BF9DF81D0020F00F00401C8DF81D00DD
:108510009DF81D0020F0F00010308DF81D0000BF08
:108520009DF81E0020F00600801C8DF81E001C2106
:1085300008A8FAF7D2FE9DF8200020F010001030B5
:108540008DF82000002009900B900C9007A80D904A
:1085500000200E9020788DF806000420ADF804006D
:108560000020009000BF9DF8000020F00F00401C8C
:108570008DF800009DF8000020F0F00010308DF81C
:10858000000000BF00BF9DF8010020F00F00401C5C
:108590008DF801009DF8010020F0F00010308DF8FA
:1085A000010000BF9DF8020020F00600801C8DF83D
:1085B00002009DF8020020F008008DF802009DF8EE
:1085C000020020F010008DF802009DF8020020F05B
:1085D0000100401C8DF80200142102A8FAF77DFE6C
:1085E00001A80290CDF80CD00520ADF810000020B5
:1085F000ADF812001020ADF81400608804F11403E7
:1086000002AA08A9A2DF0FB030BD0000F8B52948C2
:10861000007800B9F8BD00252748006808B9012096
:1086200000E00020064600BFEDB92448007800B104
:10863000F0E7684648DF0446052C01D1012511E02A
:1086400034B100BF1E4AB5212046FEF72DFA09E0DD
:10865000009800F02DFD1B48006818B119490098DA
:108660000968884700BFEEB91448007800B1D1E727
:1086700015480088009069461448006861DF044688
:10868000052C01D101260CE034B100BF0C4ADD21DC
:108690002046FEF709FA04E00C480068064909681C
:1086A000884700BF0DB106B100E0BDE700BF00BFC5
:1086B000B0E700001C410020284100201D4100209F
:1086C00060C1020018410020244100202041002008
:1086D00070B504460D4620791D4901EB4010007F1E
:1086E000F8B14FF48871206801F069FA4FF4907185
:1086F000206801F064FA4FF49271206801F05FFA8B
:108700004FF4A271206801F05AFA1249206801F072
:1087100066FA206800F004FD0646294600F0D0FC09
:1087200014E04FF48E71206801F019FA4FF4A27131
:10873000206801F014FA0849206801F01FFA206847
:1087400000F0EEFC0646294600F0BAFC70BD0000C1
:10875000D049002010030200800002000146488832
:10876000064A1288904206DB4888044A52889042A2
:1087700001DC012070470020FCE70000B840002029
:108780000146086808B102680A60704710B50848D9
:10879000007850B1002405E0022C02D02046FEF7FC
:1087A000FDFF641C042CF7D301E0FFF723F810BD94
:1087B00080400020F72101801721418000210171B4
:1087C0004171FB2181711B21C17170472DE9F0417D
:1087D000064600274748D0F8008078E016B13446B6
:1087E000E66947E04448007800EB40014248001D3C
:1087F00000EBC105001F0078401C3F490870084687
:1088000000788978884202D100203B4908706C6862
:10881000287801281AD0022802D0032817D107E0AF
:10882000686802F03DF800B10127002020744EE096
:1088300007E030490868002101742E4AC1691160BF
:1088400000BF2C4800680028F3D140E000E03EE083
:1088500000BF207C00B13AE0A8686060E868A060D2
:108860002869E0606869A0612448007808B10020A8
:10887000606000BF224960680968401A20F07F40AC
:108880002049884208D21E496068096801F09BFFB0
:10889000A168084420600FE019486168006801F091
:1088A00092FF0546A068A84203D9A068401B20603B
:1088B00001E00020206000BF00206060A060012077
:1088C00020740020E061204601F0B6FF00BF002EBA
:1088D00084D109480078084949788842F8D11FB9FD
:1088E00004480068404502D00120BDE8F081002026
:1088F000FBE70000E4400020104A0020F740002081
:10890000E8400020FFFF7F00C2B00025FEF770F9AD
:10891000044600BF26463EB100BF82A240F21D3190
:108920003046FEF7C1F800BF00BFFCF77BF8FCF74C
:108930002FF8FBF7EDFCFBF7A5FDFCF743F8FBF781
:10894000C5FCFBF7EDFDFBF751FE7AA0FDF7A2FC9D
:108950007C487D49886100BF08460021017700BF3F
:108960000320FEF781FC044600BF26463EB100BF4F
:108970006CA240F22E313046FEF796F800BF00BFE1
:10898000FBF78EFB0120FBF769FEF720FBF7ACFB42
:1089900000BF6E480078072873D2DFE800F08B0430
:1089A000262D366783000020684908706848FCF768
:1089B000C9F8C8B967A0FDF76DFC6548FCF710F968
:1089C0006348FCF7BFF80646314668A0FDF762FC35
:1089D000701E009069466E48FEF7C1FD012202A993
:1089E0005B48FCF761F800BF65E00020574908705C
:1089F00068A0FDF74FFC5EE00020544908706B4909
:108A000008706BA0FDF746FC55E000204F49087048
:108A10006D4801786DA0FDF73DFC6B480078062895
:108A200022D2DFE800F003080D12171C002148488D
:108A3000FCF778F818E002214548FCF773F813E0DA
:108A400004214348FCF76EF80EE005214048FCF78E
:108A500069F809E006213E48FCF764F804E00821C3
:108A60003B48FCF75FF800BF00BF24E00020374917
:108A700008705EA0FDF70EFC6348007810B9012075
:108A800001E017E002208DF804005F48007808B983
:108A9000012000E002208DF805003D49888B01A9E6
:108AA0008FDF08E000202949087058493848FEF750
:108AB00025FD00E000BF00BF3C480078B8B1B5B963
:108AC0002348FCF73FF890B92148FCF789F8204883
:108AD000FCF738F80646701E009069462C48FEF7F1
